{
	"data": {
		"bytecode": {
			"linkReferences": {},
			"object": "60806040526000600b556000600c556000600d556040518060800160405280600060ff168152602001600060ff168152602001600060ff168152602001600060ff168152506011906004620000569291906200006b565b503480156200006457600080fd5b5062000136565b826004601f01602090048101928215620000f95791602002820160005b83821115620000c857835183826101000a81548160ff021916908360ff160217905550926020019260010160208160000104928301926001030262000088565b8015620000f75782816101000a81549060ff0219169055600101602081600001049283019260010302620000c8565b505b5090506200010891906200010c565b5090565b5b808211156200013257600081816101000a81549060ff0219169055506001016200010d565b5090565b61682f80620001466000396000f3fe608060405234801561001057600080fd5b50600436106102325760003560e01c80636a28f82811610130578063c39f49c0116100b8578063e13454161161007c578063e134541614610689578063e45be8eb146106a7578063e8adfbc7146106c5578063f2fde38b146106e3578063fc6f9468146106ff57610232565b8063c39f49c0146105d1578063cfad527714610601578063d1f7dbcf1461061f578063d411b0fa1461064f578063d826f88f1461067f57610232565b8063850bad94116100ff578063850bad941461051b57806385dcdf1b1461054b5780638da5cb5b1461057b578063a42206c914610599578063ae169a50146105b557610232565b80636a28f828146104bb578063704b6c02146104d9578063715018a6146104f55780637c5b4a37146104ff57610232565b8063324a5562116101be578063552164ee11610182578063552164ee146103f357806359bcbd68146104235780635c17623a146104535780635ea8cd121461046f5780636575243f1461048b57610232565b8063324a55621461034f5780633a4f69991461036b578063438209f5146103895780634e45f095146103a75780634ed73d28146103d757610232565b80631a39d8ef116102055780631a39d8ef146102ab5780631ff68866146102c957806321ce919d146102d35780632bdff851146103035780632f506b201461031f57610232565b806304d59dbf1461023757806311e420651461025557806314c20d571461027157806319d8ac611461028d575b600080fd5b61023f61071d565b60405161024c9190615c62565b60405180910390f35b61026f600480360381019061026a91906147e2565b610743565b005b61028b60048036038101906102869190614911565b610952565b005b610295610e04565b6040516102a29190615f3a565b60405180910390f35b6102b3610e0a565b6040516102c09190615f3a565b60405180910390f35b6102d1610e10565b005b6102ed60048036038101906102e891906146ea565b610f05565b6040516102fa9190615f3a565b60405180910390f35b61031d600480360381019061031891906148bd565b610f33565b005b61033960048036038101906103349190614989565b611481565b6040516103469190615f3a565b60405180910390f35b610369600480360381019061036491906149c5565b6114a6565b005b610373611554565b6040516103809190615f7e565b60405180910390f35b610391611567565b60405161039e9190615bcb565b60405180910390f35b6103c160048036038101906103bc919061486b565b61157a565b6040516103ce9190615f7e565b60405180910390f35b6103f160048036038101906103ec9190614726565b6115a1565b005b61040d6004803603810190610408919061486b565b61195b565b60405161041a9190615f3a565b60405180910390f35b61043d6004803603810190610438919061494d565b6119f9565b60405161044a9190615f7e565b60405180910390f35b61046d600480360381019061046891906149ee565b611a2f565b005b6104896004803603810190610484919061486b565b611b02565b005b6104a560048036038101906104a0919061494d565b611b9c565b6040516104b29190615f3a565b60405180910390f35b6104c3611bca565b6040516104d09190615f3a565b60405180910390f35b6104f360048036038101906104ee9190614698565b611bd0565b005b6104fd611ca2565b005b6105196004803603810190610514919061486b565b611dee565b005b6105356004803603810190610530919061486b565b611f1c565b6040516105429190615f7e565b60405180910390f35b61056560048036038101906105609190614767565b611f43565b6040516105729190615b94565b60405180910390f35b610583612552565b6040516105909190615a6d565b60405180910390f35b6105b360048036038101906105ae919061486b565b61257b565b005b6105cf60048036038101906105ca919061486b565b612951565b005b6105eb60048036038101906105e6919061494d565b612c99565b6040516105f89190615f3a565b60405180910390f35b610609612cc7565b6040516106169190615f3a565b60405180910390f35b6106396004803603810190610634919061494d565b612ccd565b6040516106469190615f3a565b60405180910390f35b6106696004803603810190610664919061486b565b612d03565b6040516106769190615f3a565b60405180910390f35b610687613111565b005b6106916133fb565b60405161069e9190615bcb565b60405180910390f35b6106af61342c565b6040516106bc9190615f3a565b60405180910390f35b6106cd613432565b6040516106da9190615c7d565b60405180910390f35b6106fd60048036038101906106f89190614698565b613458565b005b610707613613565b6040516107149190615a6d565b60405180910390f35b600260009054906101000a900473ffffffffffffffffffffffffffffffffffffffff1681565b600060159054906101000a900460ff168061076b5750600060149054906101000a900460ff16155b6107aa576040517f08c379a00000000000000000000000000000000000000000000000000000000081526004016107a190615e1a565b60405180910390fd5b60008060159054906101000a900460ff1615905080156107fb576001600060156101000a81548160ff0219169083151502179055506001600060146101000a81548160ff0219169083151502179055505b86600260006101000a81548173ffffffffffffffffffffffffffffffffffffffff021916908373ffffffffffffffffffffffffffffffffffffffff16021790555085600360006101000a81548173ffffffffffffffffffffffffffffffffffffffff021916908373ffffffffffffffffffffffffffffffffffffffff1602179055508460058190555083600460146101000a81548160ff021916908360ff16021790555081600460006101000a81548173ffffffffffffffffffffffffffffffffffffffff021916908373ffffffffffffffffffffffffffffffffffffffff16021790555042600e819055506040518060600160405280603c60ff168152602001601460ff168152602001600a60ff16815250600190600361091e9291906141d8565b5061092883613639565b80156109495760008060156101000a81548160ff0219169083151502179055505b50505050505050565b61095a6133fb565b1561099a576040517f08c379a000000000000000000000000000000000000000000000000000000000815260040161099190615e5a565b60405180910390fd5b601060009054906101000a900460ff16156109ea576040517f08c379a00000000000000000000000000000000000000000000000000000000081526004016109e190615dfa565b60405180910390fd5b600554821015610a2f576040517f08c379a0000000000000000000000000000000000000000000000000000000008152600401610a2690615e3a565b60405180910390fd5b60005b6004811015610ab057600460149054906101000a900460ff1660ff16828260048110610a5a57fe5b602002015160ff161115610aa3576040517f08c379a0000000000000000000000000000000000000000000000000000000008152600401610a9a90615cfa565b60405180910390fd5b8080600101915050610a32565b506000600360009054906101000a900473ffffffffffffffffffffffffffffffffffffffff1673ffffffffffffffffffffffffffffffffffffffff166337391c00338486600b546040518563ffffffff1660e01b8152600401610b169493929190615a88565b602060405180830381600087803b158015610b3057600080fd5b505af1158015610b44573d6000803e3d6000fd5b505050506040513d601f19601f82011682018060405250810190610b689190614894565b905060076000600b5481526020019081526020016000208190806001815401808255809150506001900390600052602060002001600090919091909150556000600a60003373ffffffffffffffffffffffffffffffffffffffff1673ffffffffffffffffffffffffffffffffffffffff168152602001908152602001600020805490501415610bfe576001600c5401600c819055505b600a60003373ffffffffffffffffffffffffffffffffffffffff1673ffffffffffffffffffffffffffffffffffffffff168152602001908152602001600020819080600181540180825580915050600190039060005260206000200160009091909190915055610c7983600d546136d790919063ffffffff16565b600d8190555042600e81905550610c8e614272565b610c9783611f43565b905060005b600b60ff16811015610d6057610d058560096000600b54815260200190815260200160002060008585600b8110610ccf57fe5b602002015167ffffffffffffffff1667ffffffffffffffff168152602001908152602001600020546136d790919063ffffffff16565b60096000600b54815260200190815260200160002060008484600b8110610d2857fe5b602002015167ffffffffffffffff1667ffffffffffffffff168152602001908152602001600020819055508080600101915050610c9c565b50610db0333086600260009054906101000a900473ffffffffffffffffffffffffffffffffffffffff1673ffffffffffffffffffffffffffffffffffffffff166136e4909392919063ffffffff16565b3373ffffffffffffffffffffffffffffffffffffffff167fe3d4187f6ca4248660cc0ac8b8056515bac4a8132be2eca31d6d0cc170722a7e83604051610df69190615f3a565b60405180910390a250505050565b600e5481565b600d5481565b600460009054906101000a900473ffffffffffffffffffffffffffffffffffffffff1673ffffffffffffffffffffffffffffffffffffffff163373ffffffffffffffffffffffffffffffffffffffff1614610ea0576040517f08c379a0000000000000000000000000000000000000000000000000000000008152600401610e9790615e9a565b60405180910390fd5b610ea86133fb565b15610ee8576040517f08c379a0000000000000000000000000000000000000000000000000000000008152600401610edf90615f1a565b60405180910390fd5b6001601060006101000a81548160ff021916908315150217905550565b600a6020528160005260406000208181548110610f1e57fe5b90600052602060002001600091509150505481565b610f3b6133fb565b15610f7b576040517f08c379a0000000000000000000000000000000000000000000000000000000008152600401610f7290615e5a565b60405180910390fd5b601060009054906101000a900460ff1615610fcb576040517f08c379a0000000000000000000000000000000000000000000000000000000008152600401610fc290615dfa565b60405180910390fd5b600554821015611010576040517f08c379a000000000000000000000000000000000000000000000000000000000815260040161100790615e3a565b60405180910390fd5b6000805b82518110156113de5760005b60048110156110e357600460149054906101000a900460ff1660ff1684838151811061104857fe5b6020026020010151826004811061105b57fe5b602002015160ff16111580156110975750600084838151811061107a57fe5b6020026020010151826004811061108d57fe5b602002015160ff16115b6110d6576040517f08c379a00000000000000000000000000000000000000000000000000000000081526004016110cd90615cfa565b60405180910390fd5b8080600101915050611020565b506000600360009054906101000a900473ffffffffffffffffffffffffffffffffffffffff1673ffffffffffffffffffffffffffffffffffffffff166337391c003386858151811061113157fe5b602002602001015188600b546040518563ffffffff1660e01b815260040161115c9493929190615a88565b602060405180830381600087803b15801561117657600080fd5b505af115801561118a573d6000803e3d6000fd5b505050506040513d601f19601f820116820180604052508101906111ae9190614894565b905060076000600b5481526020019081526020016000208190806001815401808255809150506001900390600052602060002001600090919091909150556000600a60003373ffffffffffffffffffffffffffffffffffffffff1673ffffffffffffffffffffffffffffffffffffffff168152602001908152602001600020805490501415611244576001600c5401600c819055505b600a60003373ffffffffffffffffffffffffffffffffffffffff1673ffffffffffffffffffffffffffffffffffffffff1681526020019081526020016000208190806001815401808255809150506001900390600052602060002001600090919091909150556112bf85600d546136d790919063ffffffff16565b600d8190555042600e819055506112df85846136d790919063ffffffff16565b92506112e9614272565b6113058584815181106112f857fe5b6020026020010151611f43565b905060005b600b60ff168110156113ce576113738760096000600b54815260200190815260200160002060008585600b811061133d57fe5b602002015167ffffffffffffffff1667ffffffffffffffff168152602001908152602001600020546136d790919063ffffffff16565b60096000600b54815260200190815260200160002060008484600b811061139657fe5b602002015167ffffffffffffffff1667ffffffffffffffff16815260200190815260200160002081905550808060010191505061130a565b5050508080600101915050611014565b5061142e333083600260009054906101000a900473ffffffffffffffffffffffffffffffffffffffff1673ffffffffffffffffffffffffffffffffffffffff166136e4909392919063ffffffff16565b3373ffffffffffffffffffffffffffffffffffffffff167f96c35ad1cc1743f26cb87980c38042de8082358ec6d171a7986d6e11dddfe857826040516114749190615f3a565b60405180910390a2505050565b6009602052816000526040600020602052806000526040600020600091509150505481565b600460009054906101000a900473ffffffffffffffffffffffffffffffffffffffff1673ffffffffffffffffffffffffffffffffffffffff163373ffffffffffffffffffffffffffffffffffffffff1614611536576040517f08c379a000000000000000000000000000000000000000000000000000000000815260040161152d90615e9a565b60405180910390fd5b80600460146101000a81548160ff021916908360ff16021790555050565b600460149054906101000a900460ff1681565b601060009054906101000a900460ff1681565b600f816004811061158757fe5b60209182820401919006915054906101000a900460ff1681565b6000805b825181101561182457600360009054906101000a900473ffffffffffffffffffffffffffffffffffffffff1673ffffffffffffffffffffffffffffffffffffffff16636352211e8483815181106115f857fe5b60200260200101516040518263ffffffff1660e01b815260040161161c9190615f3a565b60206040518083038186803b15801561163457600080fd5b505afa158015611648573d6000803e3d6000fd5b505050506040513d601f19601f8201168201806040525081019061166c91906146c1565b73ffffffffffffffffffffffffffffffffffffffff163373ffffffffffffffffffffffffffffffffffffffff16146116d9576040517f08c379a00000000000000000000000000000000000000000000000000000000081526004016116d090615d9a565b60405180910390fd5b600360009054906101000a900473ffffffffffffffffffffffffffffffffffffffff1673ffffffffffffffffffffffffffffffffffffffff166336dbd2f984838151811061172357fe5b60200260200101516040518263ffffffff1660e01b81526004016117479190615f3a565b60206040518083038186803b15801561175f57600080fd5b505afa158015611773573d6000803e3d6000fd5b505050506040513d601f19601f8201168201806040525081019061179791906147b9565b156117d7576040517f08c379a00000000000000000000000000000000000000000000000000000000081526004016117ce90615dda565b60405180910390fd5b60006117f58483815181106117e857fe5b6020026020010151612d03565b905060008111156118165761181383826136d790919063ffffffff16565b92505b5080806001019150506115a5565b50600360009054906101000a900473ffffffffffffffffffffffffffffffffffffffff1673ffffffffffffffffffffffffffffffffffffffff166374310355836040518263ffffffff1660e01b81526004016118809190615b72565b600060405180830381600087803b15801561189a57600080fd5b505af11580156118ae573d6000803e3d6000fd5b505050506000811115611909576119083382600260009054906101000a900473ffffffffffffffffffffffffffffffffffffffff1673ffffffffffffffffffffffffffffffffffffffff1661376d9092919063ffffffff16565b5b3373ffffffffffffffffffffffffffffffffffffffff167f6606374655494f5c0e2d6f392656e9777afd9ac5f61527d1bcad50b7e918a03e8260405161194f9190615f3a565b60405180910390a25050565b6000600b548211156119a2576040517f08c379a000000000000000000000000000000000000000000000000000000000815260040161199990615d1a565b60405180910390fd5b6119aa6133fb565b1580156119b85750600b5482145b156119c757600d5490506119f4565b600860008381526020019081526020016000206000815481106119e657fe5b906000526020600020015490505b919050565b60066020528160005260406000208160048110611a1257fe5b60209182820401919006915091509054906101000a900460ff1681565b600460009054906101000a900473ffffffffffffffffffffffffffffffffffffffff1673ffffffffffffffffffffffffffffffffffffffff163373ffffffffffffffffffffffffffffffffffffffff1614611abf576040517f08c379a0000000000000000000000000000000000000000000000000000000008152600401611ab690615e9a565b60405180910390fd5b60405180606001604052808460ff1660ff1681526020018360ff1660ff1681526020018260ff1660ff168152506001906003611afc9291906141d8565b50505050565b600460009054906101000a900473ffffffffffffffffffffffffffffffffffffffff1673ffffffffffffffffffffffffffffffffffffffff163373ffffffffffffffffffffffffffffffffffffffff1614611b92576040517f08c379a0000000000000000000000000000000000000000000000000000000008152600401611b8990615e9a565b60405180910390fd5b8060058190555050565b60076020528160005260406000208181548110611bb557fe5b90600052602060002001600091509150505481565b600b5481565b3373ffffffffffffffffffffffffffffffffffffffff1660008054906101000a900473ffffffffffffffffffffffffffffffffffffffff1673ffffffffffffffffffffffffffffffffffffffff1614611c5e576040517f08c379a0000000000000000000000000000000000000000000000000000000008152600401611c5590615e7a565b60405180910390fd5b80600460006101000a81548173ffffffffffffffffffffffffffffffffffffffff021916908373ffffffffffffffffffffffffffffffffffffffff16021790555050565b3373ffffffffffffffffffffffffffffffffffffffff1660008054906101000a900473ffffffffffffffffffffffffffffffffffffffff1673ffffffffffffffffffffffffffffffffffffffff1614611d30576040517f08c379a0000000000000000000000000000000000000000000000000000000008152600401611d2790615e7a565b60405180910390fd5b600073ffffffffffffffffffffffffffffffffffffffff1660008054906101000a900473ffffffffffffffffffffffffffffffffffffffff1673ffffffffffffffffffffffffffffffffffffffff167f8be0079c531659141344cd1fd0a4f28419497f9722a3daafe3b4186f6b6457e060405160405180910390a360008060006101000a81548173ffffffffffffffffffffffffffffffffffffffff021916908373ffffffffffffffffffffffffffffffffffffffff160217905550565b600460009054906101000a900473ffffffffffffffffffffffffffffffffffffffff1673ffffffffffffffffffffffffffffffffffffffff163373ffffffffffffffffffffffffffffffffffffffff1614611e7e576040517f08c379a0000000000000000000000000000000000000000000000000000000008152600401611e7590615e9a565b60405180910390fd5b611ecb3382600260009054906101000a900473ffffffffffffffffffffffffffffffffffffffff1673ffffffffffffffffffffffffffffffffffffffff1661376d9092919063ffffffff16565b3373ffffffffffffffffffffffffffffffffffffffff167f050d1c64cc22ce461b9bc14f6b73852566da02b03c155242bc63169d1fec42aa82604051611f119190615f3a565b60405180910390a250565b60018160038110611f2957fe5b60209182820401919006915054906101000a900460ff1681565b611f4b614272565b611f53614295565b82600060048110611f6057fe5b602002015160ff1681600060048110611f7557fe5b602002019067ffffffffffffffff16908167ffffffffffffffff168152505082600160048110611fa157fe5b602002015160ff1681600160048110611fb657fe5b602002019067ffffffffffffffff16908167ffffffffffffffff168152505082600260048110611fe257fe5b602002015160ff1681600260048110611ff757fe5b602002019067ffffffffffffffff16908167ffffffffffffffff16815250508260036004811061202357fe5b602002015160ff168160036004811061203857fe5b602002019067ffffffffffffffff16908167ffffffffffffffff168152505061205f614272565b8160036004811061206c57fe5b6020020151610300610100808560026004811061208557fe5b6020020151020263020000006101008061010080896001600481106120a657fe5b602002015102020202650100000000006101008061010080610100808d6000600481106120cf57fe5b6020020151020202020202010101010101816000600b81106120ed57fe5b602002019067ffffffffffffffff16908167ffffffffffffffff16815250508160026004811061211957fe5b6020020151610200610100808560016004811061213257fe5b60200201510202630100000061010080610100808960006004811061215357fe5b60200201510202020201010101816001600b811061216d57fe5b602002019067ffffffffffffffff16908167ffffffffffffffff16815250508160036004811061219957fe5b602002015161030061010080856001600481106121b257fe5b6020020151020263010000006101008061010080896000600481106121d357fe5b60200201510202020201010101816002600b81106121ed57fe5b602002019067ffffffffffffffff16908167ffffffffffffffff16815250508160036004811061221957fe5b6020020151610300610100808560026004811061223257fe5b60200201510202630200000061010080610100808960006004811061225357fe5b60200201510202020201010101816003600b811061226d57fe5b602002019067ffffffffffffffff16908167ffffffffffffffff16815250508160036004811061229957fe5b602002015161030061010080856002600481106122b257fe5b6020020151020263020000006101008061010080896001600481106122d357fe5b602002015102020202650100000000000101010101816004600b81106122f557fe5b602002019067ffffffffffffffff16908167ffffffffffffffff16815250508160016004811061232157fe5b6020020151610100806101008560006004811061233a57fe5b602002015102020101816005600b811061235057fe5b602002019067ffffffffffffffff16908167ffffffffffffffff16815250508160026004811061237c57fe5b6020020151610200610100808560006004811061239557fe5b602002015102020101816006600b81106123ab57fe5b602002019067ffffffffffffffff16908167ffffffffffffffff1681525050816003600481106123d757fe5b602002015161030061010080856000600481106123f057fe5b602002015102020101816007600b811061240657fe5b602002019067ffffffffffffffff16908167ffffffffffffffff16815250508160026004811061243257fe5b6020020151610200610100808560016004811061244b57fe5b602002015102026301000000010101816008600b811061246757fe5b602002019067ffffffffffffffff16908167ffffffffffffffff16815250508160036004811061249357fe5b602002015161030061010080856001600481106124ac57fe5b602002015102026301000000010101816009600b81106124c857fe5b602002019067ffffffffffffffff16908167ffffffffffffffff1681525050816003600481106124f457fe5b6020020151610300610100808560026004811061250d57fe5b60200201510202630200000001010181600a600b811061252957fe5b602002019067ffffffffffffffff16908167ffffffffffffffff16815250508092505050919050565b60008060009054906101000a900473ffffffffffffffffffffffffffffffffffffffff16905090565b600460009054906101000a900473ffffffffffffffffffffffffffffffffffffffff1673ffffffffffffffffffffffffffffffffffffffff163373ffffffffffffffffffffffffffffffffffffffff161461260b576040517f08c379a000000000000000000000000000000000000000000000000000000000815260040161260290615e9a565b60405180910390fd5b6126136133fb565b15612653576040517f08c379a000000000000000000000000000000000000000000000000000000000815260040161264a90615cba565b60405180910390fd5b601060009054906101000a900460ff166126a2576040517f08c379a000000000000000000000000000000000000000000000000000000000815260040161269990615dba565b60405180910390fd5b6000806000600460149054906101000a900460ff16905060006001430340905060005b600a8110156126e7576126d9600b5461195b565b5080806001019150506126c5565b5060005a905081600c5482886040516020016127069493929190615c1d565b6040516020818303038152906040528051906020012094508460001c9350600183850601935083600f60006004811061273b57fe5b602091828204019190066101000a81548160ff021916908360ff16021790555081600d5482886040516020016127749493929190615c1d565b6040516020818303038152906040528051906020012094508460001c9350600183850601935083600f6001600481106127a957fe5b602091828204019190066101000a81548160ff021916908360ff16021790555081600e5482886040516020016127e29493929190615c1d565b6040516020818303038152906040528051906020012094508460001c9350600183850601935083600f60026004811061281757fe5b602091828204019190066101000a81548160ff021916908360ff16021790555081818760405160200161284c93929190615be6565b6040516020818303038152906040528051906020012094508460001c9350600183850601935083600f60036004811061288157fe5b602091828204019190066101000a81548160ff021916908360ff160217905550600f60066000600b5481526020019081526020016000209060046128c69291906142b7565b506128cf6137f3565b60086000600b5481526020019081526020016000209060046128f2929190614302565b506000601060006101000a81548160ff021916908315150217905550600b547fa13e935b188993737b3009d62bd916dcbe9e82d8236d75981eeadf26a1460d3d600f6040516129419190615bb0565b60405180910390a2505050505050565b600360009054906101000a900473ffffffffffffffffffffffffffffffffffffffff1673ffffffffffffffffffffffffffffffffffffffff16636352211e826040518263ffffffff1660e01b81526004016129ac9190615f3a565b60206040518083038186803b1580156129c457600080fd5b505afa1580156129d8573d6000803e3d6000fd5b505050506040513d601f19601f820116820180604052508101906129fc91906146c1565b73ffffffffffffffffffffffffffffffffffffffff163373ffffffffffffffffffffffffffffffffffffffff1614612a69576040517f08c379a0000000000000000000000000000000000000000000000000000000008152600401612a6090615d9a565b60405180910390fd5b600360009054906101000a900473ffffffffffffffffffffffffffffffffffffffff1673ffffffffffffffffffffffffffffffffffffffff166336dbd2f9826040518263ffffffff1660e01b8152600401612ac49190615f3a565b60206040518083038186803b158015612adc57600080fd5b505afa158015612af0573d6000803e3d6000fd5b505050506040513d601f19601f82011682018060405250810190612b1491906147b9565b15612b54576040517f08c379a0000000000000000000000000000000000000000000000000000000008152600401612b4b90615dda565b60405180910390fd5b6000612b5f82612d03565b9050600360009054906101000a900473ffffffffffffffffffffffffffffffffffffffff1673ffffffffffffffffffffffffffffffffffffffff1663ae169a50836040518263ffffffff1660e01b8152600401612bbc9190615f3a565b600060405180830381600087803b158015612bd657600080fd5b505af1158015612bea573d6000803e3d6000fd5b505050506000811115612c4557612c443382600260009054906101000a900473ffffffffffffffffffffffffffffffffffffffff1673ffffffffffffffffffffffffffffffffffffffff1661376d9092919063ffffffff16565b5b3373ffffffffffffffffffffffffffffffffffffffff167f34fcbac0073d7c3d388e51312faf357774904998eeb8fca628b9e6f65ee1cbf78383604051612c8d929190615f55565b60405180910390a25050565b60086020528160005260406000208181548110612cb257fe5b90600052602060002001600091509150505481565b600c5481565b6000600860008481526020019081526020016000208260050381548110612cf057fe5b9060005260206000200154905092915050565b600080600360009054906101000a900473ffffffffffffffffffffffffffffffffffffffff1673ffffffffffffffffffffffffffffffffffffffff16631bf1e00f846040518263ffffffff1660e01b8152600401612d619190615f3a565b60206040518083038186803b158015612d7957600080fd5b505afa158015612d8d573d6000803e3d6000fd5b505050506040513d601f19601f82011682018060405250810190612db19190614894565b9050612dbb61434f565b600360009054906101000a900473ffffffffffffffffffffffffffffffffffffffff1673ffffffffffffffffffffffffffffffffffffffff16635f8e26a7856040518263ffffffff1660e01b8152600401612e169190615f3a565b60806040518083038186803b158015612e2e57600080fd5b505afa158015612e42573d6000803e3d6000fd5b505050506040513d601f19601f82011682018060405250810190612e669190614790565b9050612e7061434f565b60066000848152602001908152602001600020600480602002604051908101604052809291908260048015612ee0576020028201916000905b82829054906101000a900460ff1660ff1681526020019060010190602082600001049283019260010382029150808411612ea95790505b50505050509050600081600060048110612ef657fe5b602002015160ff161415612f3f576040517f08c379a0000000000000000000000000000000000000000000000000000000008152600401612f3690615cda565b60405180910390fd5b6000805b6004811015612f8e57838160048110612f5857fe5b602002015160ff16838260048110612f6c57fe5b602002015160ff161415612f81576001820191505b8080600101915050612f43565b50600060018211156130ed576000600360009054906101000a900473ffffffffffffffffffffffffffffffffffffffff1673ffffffffffffffffffffffffffffffffffffffff1663f7a0c0ca896040518263ffffffff1660e01b8152600401612ff79190615f3a565b60206040518083038186803b15801561300f57600080fd5b505afa158015613023573d6000803e3d6000fd5b505050506040513d601f19601f820116820180604052508101906130479190614894565b905060006130a160646130936001876004036003811061306357fe5b602091828204019190069054906101000a900460ff1660ff166130858b61195b565b613d0890919063ffffffff16565b613d1590919063ffffffff16565b90506130e8816130da6130b48a88612ccd565b6130cc64e8d4a5100087613d0890919063ffffffff16565b613d1590919063ffffffff16565b613d0890919063ffffffff16565b925050505b61310564e8d4a5100082613d1590919063ffffffff16565b95505050505050919050565b600460009054906101000a900473ffffffffffffffffffffffffffffffffffffffff1673ffffffffffffffffffffffffffffffffffffffff163373ffffffffffffffffffffffffffffffffffffffff16146131a1576040517f08c379a000000000000000000000000000000000000000000000000000000000815260040161319890615e9a565b60405180910390fd5b6131a96133fb565b6131e8576040517f08c379a00000000000000000000000000000000000000000000000000000000081526004016131df90615eda565b60405180910390fd5b42600e819055506000600c819055506000600d819055506000600f60006004811061320f57fe5b602091828204019190066101000a81548160ff021916908360ff1602179055506000600f60016004811061323f57fe5b602091828204019190066101000a81548160ff021916908360ff1602179055506000600f60026004811061326f57fe5b602091828204019190066101000a81548160ff021916908360ff1602179055506000600f60036004811061329f57fe5b602091828204019190066101000a81548160ff021916908360ff1602179055506000601060006101000a81548160ff0219169083151502179055506001600b5401600b8190555060006132f86001600b54036004612ccd565b14156133ca576000613359606461334b600160006003811061331657fe5b602091828204019190069054906101000a900460ff1660ff1661333d6001600b540361195b565b613d0890919063ffffffff16565b613d1590919063ffffffff16565b90506133c88160116004806020026040519081016040528092919082600480156133be576020028201916000905b82829054906101000a900460ff1660ff16815260200190600101906020826000010492830192600103820291508084116133875790505b5050505050613d29565b505b600b547f01c3cbb0d62726ab09d163873ebf9aed99dd8dc08e57bc938f458132fd178cf660405160405180910390a2565b600080600f60006004811061340c57fe5b602091828204019190069054906101000a900460ff1660ff161415905090565b60055481565b600360009054906101000a900473ffffffffffffffffffffffffffffffffffffffff1681565b3373ffffffffffffffffffffffffffffffffffffffff1660008054906101000a900473ffffffffffffffffffffffffffffffffffffffff1673ffffffffffffffffffffffffffffffffffffffff16146134e6576040517f08c379a00000000000000000000000000000000000000000000000000000000081526004016134dd90615e7a565b60405180910390fd5b600073ffffffffffffffffffffffffffffffffffffffff168173ffffffffffffffffffffffffffffffffffffffff161415613556576040517f08c379a000000000000000000000000000000000000000000000000000000000815260040161354d90615d3a565b60405180910390fd5b8073ffffffffffffffffffffffffffffffffffffffff1660008054906101000a900473ffffffffffffffffffffffffffffffffffffffff1673ffffffffffffffffffffffffffffffffffffffff167f8be0079c531659141344cd1fd0a4f28419497f9722a3daafe3b4186f6b6457e060405160405180910390a3806000806101000a81548173ffffffffffffffffffffffffffffffffffffffff021916908373ffffffffffffffffffffffffffffffffffffffff16021790555050565b600460009054906101000a900473ffffffffffffffffffffffffffffffffffffffff1681565b806000806101000a81548173ffffffffffffffffffffffffffffffffffffffff021916908373ffffffffffffffffffffffffffffffffffffffff1602179055508073ffffffffffffffffffffffffffffffffffffffff16600073ffffffffffffffffffffffffffffffffffffffff167f8be0079c531659141344cd1fd0a4f28419497f9722a3daafe3b4186f6b6457e060405160405180910390a350565b6000818301905092915050565b613767846323b872dd60e01b85858560405160240161370593929190615acd565b604051602081830303815290604052907bffffffffffffffffffffffffffffffffffffffffffffffffffffffff19166020820180517bffffffffffffffffffffffffffffffffffffffffffffffffffffffff8381831617835250505050613f5d565b50505050565b6137ee8363a9059cbb60e01b848460405160240161378c929190615b49565b604051602081830303815290604052907bffffffffffffffffffffffffffffffffffffffffffffffffffffffff19166020820180517bffffffffffffffffffffffffffffffffffffffffffffffffffffffff8381831617835250505050613f5d565b505050565b6137fb614371565b613803614272565b61386f600f600480602002604051908101604052809291908260048015613865576020028201916000905b82829054906101000a900460ff1660ff168152602001906001019060208260000104928301926001038202915080841161382e5790505b5050505050611f43565b9050600060096000600b5481526020019081526020016000206000836000600b811061389757fe5b602002015167ffffffffffffffff1667ffffffffffffffff168152602001908152602001600020549050600060096000600b5481526020019081526020016000206000846001600b81106138e757fe5b602002015167ffffffffffffffff1667ffffffffffffffff16815260200190815260200160002054905061396f60096000600b5481526020019081526020016000206000856002600b811061393857fe5b602002015167ffffffffffffffff1667ffffffffffffffff16815260200190815260200160002054826136d790919063ffffffff16565b90506139cf60096000600b5481526020019081526020016000206000856003600b811061399857fe5b602002015167ffffffffffffffff1667ffffffffffffffff16815260200190815260200160002054826136d790919063ffffffff16565b9050613a2f60096000600b5481526020019081526020016000206000856004600b81106139f857fe5b602002015167ffffffffffffffff1667ffffffffffffffff16815260200190815260200160002054826136d790919063ffffffff16565b90506000613a59613a4a600485613d0890919063ffffffff16565b8361402490919063ffffffff16565b9050600060096000600b5481526020019081526020016000206000866005600b8110613a8157fe5b602002015167ffffffffffffffff1667ffffffffffffffff168152602001908152602001600020549050613b0960096000600b5481526020019081526020016000206000876006600b8110613ad257fe5b602002015167ffffffffffffffff1667ffffffffffffffff16815260200190815260200160002054826136d790919063ffffffff16565b9050613b6960096000600b5481526020019081526020016000206000876007600b8110613b3257fe5b602002015167ffffffffffffffff1667ffffffffffffffff16815260200190815260200160002054826136d790919063ffffffff16565b9050613bc960096000600b5481526020019081526020016000206000876008600b8110613b9257fe5b602002015167ffffffffffffffff1667ffffffffffffffff16815260200190815260200160002054826136d790919063ffffffff16565b9050613c2960096000600b5481526020019081526020016000206000876009600b8110613bf257fe5b602002015167ffffffffffffffff1667ffffffffffffffff16815260200190815260200160002054826136d790919063ffffffff16565b9050613c8960096000600b548152602001908152602001600020600087600a600b8110613c5257fe5b602002015167ffffffffffffffff1667ffffffffffffffff16815260200190815260200160002054826136d790919063ffffffff16565b90506000613cd8613ca4600386613d0890919063ffffffff16565b613cca613cbb600689613d0890919063ffffffff16565b856136d790919063ffffffff16565b61402490919063ffffffff16565b90506040518060800160405280600d54815260200186815260200184815260200182815250965050505050505090565b6000818302905092915050565b6000818381613d2057fe5b04905092915050565b613d316133fb565b15613d71576040517f08c379a0000000000000000000000000000000000000000000000000000000008152600401613d6890615e5a565b60405180910390fd5b60005b6004811015613df257600460149054906101000a900460ff1660ff16828260048110613d9c57fe5b602002015160ff161115613de5576040517f08c379a0000000000000000000000000000000000000000000000000000000008152600401613ddc90615d5a565b60405180910390fd5b8080600101915050613d74565b506000600360009054906101000a900473ffffffffffffffffffffffffffffffffffffffff1673ffffffffffffffffffffffffffffffffffffffff166337391c00308486600b546040518563ffffffff1660e01b8152600401613e589493929190615b04565b602060405180830381600087803b158015613e7257600080fd5b505af1158015613e86573d6000803e3d6000fd5b505050506040513d601f19601f82011682018060405250810190613eaa9190614894565b905060076000600b548152602001908152602001600020819080600181540180825580915050600190039060005260206000200160009091909190915055613efd83600d546136d790919063ffffffff16565b600d8190555042600e819055503073ffffffffffffffffffffffffffffffffffffffff167fe3d4187f6ca4248660cc0ac8b8056515bac4a8132be2eca31d6d0cc170722a7e82604051613f509190615f3a565b60405180910390a2505050565b6060613fbf826040518060400160405280602081526020017f5361666545524332303a206c6f772d6c6576656c2063616c6c206661696c65648152508573ffffffffffffffffffffffffffffffffffffffff166140319092919063ffffffff16565b905060008151111561401f5780806020019051810190613fdf91906147b9565b61401e576040517f08c379a000000000000000000000000000000000000000000000000000000000815260040161401590615efa565b60405180910390fd5b5b505050565b6000818303905092915050565b60606140408484600085614049565b90509392505050565b60608247101561408e576040517f08c379a000000000000000000000000000000000000000000000000000000000815260040161408590615d7a565b60405180910390fd5b6140978561415e565b6140d6576040517f08c379a00000000000000000000000000000000000000000000000000000000081526004016140cd90615eba565b60405180910390fd5b600060608673ffffffffffffffffffffffffffffffffffffffff1685876040516141009190615a56565b60006040518083038185875af1925050503d806000811461413d576040519150601f19603f3d011682016040523d82523d6000602084013e614142565b606091505b5091509150614152828286614171565b92505050949350505050565b600080823b905060008111915050919050565b60608315614181578290506141d1565b6000835111156141945782518084602001fd5b816040517f08c379a00000000000000000000000000000000000000000000000000000000081526004016141c89190615c98565b60405180910390fd5b9392505050565b826003601f016020900481019282156142615791602002820160005b8382111561423257835183826101000a81548160ff021916908360ff16021790555092602001926001016020816000010492830192600103026141f4565b801561425f5782816101000a81549060ff0219169055600101602081600001049283019260010302614232565b505b50905061426e9190614393565b5090565b604051806101600160405280600b90602082028036833780820191505090505090565b6040518060800160405280600490602082028036833780820191505090505090565b826004601f016020900481019282156142f15791601f016020900482015b828111156142f05782548255916001019190600101906142d5565b5b5090506142fe9190614393565b5090565b82805482825590600052602060002090810192821561433e579160200282015b8281111561433d578251825591602001919060010190614322565b5b50905061434b91906143bb565b5090565b6040518060800160405280600490602082028036833780820191505090505090565b6040518060800160405280600490602082028036833780820191505090505090565b5b808211156143b757600081816101000a81549060ff021916905550600101614394565b5090565b5b808211156143d45760008160009055506001016143bc565b5090565b6000813590506143e781616758565b92915050565b6000815190506143fc81616758565b92915050565b600082601f83011261441357600080fd5b813561442661442182615fc6565b615f99565b9150818183526020840193506020810190508385608084028201111561444b57600080fd5b60005b8381101561447b57816144618882614508565b84526020840193506080830192505060018101905061444e565b5050505092915050565b600082601f83011261449657600080fd5b81356144a96144a482615fee565b615f99565b915081818352602084019350602081019050838560208402820111156144ce57600080fd5b60005b838110156144fe57816144e4888261462f565b8452602084019350602083019250506001810190506144d1565b5050505092915050565b600082601f83011261451957600080fd5b600461452c61452782616016565b615f99565b9150818385602084028201111561454257600080fd5b60005b838110156145725781614558888261466e565b845260208401935060208301925050600181019050614545565b5050505092915050565b600082601f83011261458d57600080fd5b60046145a061459b82616016565b615f99565b915081838560208402820111156145b657600080fd5b60005b838110156145e657816145cc8882614683565b8452602084019350602083019250506001810190506145b9565b5050505092915050565b6000815190506145ff8161676f565b92915050565b60008135905061461481616786565b92915050565b6000813590506146298161679d565b92915050565b60008135905061463e816167b4565b92915050565b600081519050614653816167b4565b92915050565b600081359050614668816167cb565b92915050565b60008135905061467d816167e2565b92915050565b600081519050614692816167e2565b92915050565b6000602082840312156146aa57600080fd5b60006146b8848285016143d8565b91505092915050565b6000602082840312156146d357600080fd5b60006146e1848285016143ed565b91505092915050565b600080604083850312156146fd57600080fd5b600061470b858286016143d8565b925050602061471c8582860161462f565b9150509250929050565b60006020828403121561473857600080fd5b600082013567ffffffffffffffff81111561475257600080fd5b61475e84828501614485565b91505092915050565b60006080828403121561477957600080fd5b600061478784828501614508565b91505092915050565b6000608082840312156147a257600080fd5b60006147b08482850161457c565b91505092915050565b6000602082840312156147cb57600080fd5b60006147d9848285016145f0565b91505092915050565b60008060008060008060c087890312156147fb57600080fd5b600061480989828a01614605565b965050602061481a89828a0161461a565b955050604061482b89828a0161462f565b945050606061483c89828a0161466e565b935050608061484d89828a016143d8565b92505060a061485e89828a016143d8565b9150509295509295509295565b60006020828403121561487d57600080fd5b600061488b8482850161462f565b91505092915050565b6000602082840312156148a657600080fd5b60006148b484828501614644565b91505092915050565b600080604083850312156148d057600080fd5b60006148de8582860161462f565b925050602083013567ffffffffffffffff8111156148fb57600080fd5b61490785828601614402565b9150509250929050565b60008060a0838503121561492457600080fd5b60006149328582860161462f565b925050602061494385828601614508565b9150509250929050565b6000806040838503121561496057600080fd5b600061496e8582860161462f565b925050602061497f8582860161462f565b9150509250929050565b6000806040838503121561499c57600080fd5b60006149aa8582860161462f565b92505060206149bb85828601614659565b9150509250929050565b6000602082840312156149d757600080fd5b60006149e58482850161466e565b91505092915050565b600080600060608486031215614a0357600080fd5b6000614a118682870161466e565b9350506020614a228682870161466e565b9250506040614a338682870161466e565b9150509250925092565b6000614a498383615a0b565b60208301905092915050565b6000614a618383615a29565b60208301905092915050565b6000614a798383615a38565b60208301905092915050565b614a8e816161b6565b82525050565b614a9d8161611f565b82525050565b6000614aae82616066565b614ab881856160cf565b9350614ac383616038565b8060005b83811015614af4578151614adb8882614a3d565b9750614ae6836160a8565b925050600181019050614ac7565b5085935050505092915050565b614b0a81616071565b614b1481846160e0565b9250614b1f82616048565b8060005b83811015614b50578151614b378782614a55565b9650614b42836160b5565b925050600181019050614b23565b505050505050565b614b618161607c565b614b6b81846160eb565b9250614b7682616052565b8060005b83811015614ba7578151614b8e8782614a6d565b9650614b99836160c2565b925050600181019050614b7a565b505050505050565b614bb881616087565b614bc281846160eb565b925082614bce8361605c565b60008015614efa575b83600160200382011015614ef9578154614bf987614bf483616267565b615a38565b602087019650614c1187614c0c83616385565b615a38565b602087019650614c2987614c24836164a3565b615a38565b602087019650614c4187614c3c836164f1565b615a38565b602087019650614c5987614c548361650b565b615a38565b602087019650614c7187614c6c83616525565b615a38565b602087019650614c8987614c848361653f565b615a38565b602087019650614ca187614c9c83616559565b615a38565b602087019650614cb987614cb483616573565b615a38565b602087019650614cd187614ccc8361658d565b615a38565b602087019650614ce987614ce483616281565b615a38565b602087019650614d0187614cfc8361629b565b615a38565b602087019650614d1987614d14836162b5565b615a38565b602087019650614d3187614d2c836162cf565b615a38565b602087019650614d4987614d44836162e9565b615a38565b602087019650614d6187614d5c83616303565b615a38565b602087019650614d7987614d748361631d565b615a38565b602087019650614d9187614d8c83616337565b615a38565b602087019650614da987614da483616351565b615a38565b602087019650614dc187614dbc8361636b565b615a38565b602087019650614dd987614dd48361639f565b615a38565b602087019650614df187614dec836163b9565b615a38565b602087019650614e0987614e04836163d3565b615a38565b602087019650614e2187614e1c836163ed565b615a38565b602087019650614e3987614e3483616407565b615a38565b602087019650614e5187614e4c83616421565b615a38565b602087019650614e6987614e648361643b565b615a38565b602087019650614e8187614e7c83616455565b615a38565b602087019650614e9987614e948361646f565b615a38565b602087019650614eb187614eac83616489565b615a38565b602087019650614ec987614ec4836164bd565b615a38565b602087019650614ee187614edc836164d7565b615a38565b60208701965060018301925050602081019050614bd7565b5b6001156153c5578154600115614f2957614f1c87614f1783616267565b615a38565b6020870196506001820191505b600115614f4f57614f4287614f3d83616385565b615a38565b6020870196506001820191505b600115614f7557614f6887614f63836164a3565b615a38565b6020870196506001820191505b600115614f9b57614f8e87614f89836164f1565b615a38565b6020870196506001820191505b600015614fc157614fb487614faf8361650b565b615a38565b6020870196506001820191505b600015614fe757614fda87614fd583616525565b615a38565b6020870196506001820191505b60001561500d5761500087614ffb8361653f565b615a38565b6020870196506001820191505b600015615033576150268761502183616559565b615a38565b6020870196506001820191505b6000156150595761504c8761504783616573565b615a38565b6020870196506001820191505b60001561507f576150728761506d8361658d565b615a38565b6020870196506001820191505b6000156150a5576150988761509383616281565b615a38565b6020870196506001820191505b6000156150cb576150be876150b98361629b565b615a38565b6020870196506001820191505b6000156150f1576150e4876150df836162b5565b615a38565b6020870196506001820191505b6000156151175761510a87615105836162cf565b615a38565b6020870196506001820191505b60001561513d576151308761512b836162e9565b615a38565b6020870196506001820191505b600015615163576151568761515183616303565b615a38565b6020870196506001820191505b6000156151895761517c876151778361631d565b615a38565b6020870196506001820191505b6000156151af576151a28761519d83616337565b615a38565b6020870196506001820191505b6000156151d5576151c8876151c383616351565b615a38565b6020870196506001820191505b6000156151fb576151ee876151e98361636b565b615a38565b6020870196506001820191505b600015615221576152148761520f8361639f565b615a38565b6020870196506001820191505b6000156152475761523a87615235836163b9565b615a38565b6020870196506001820191505b60001561526d576152608761525b836163d3565b615a38565b6020870196506001820191505b6000156152935761528687615281836163ed565b615a38565b6020870196506001820191505b6000156152b9576152ac876152a783616407565b615a38565b6020870196506001820191505b6000156152df576152d2876152cd83616421565b615a38565b6020870196506001820191505b600015615305576152f8876152f38361643b565b615a38565b6020870196506001820191505b60001561532b5761531e8761531983616455565b615a38565b6020870196506001820191505b600015615351576153448761533f8361646f565b615a38565b6020870196506001820191505b6000156153775761536a8761536583616489565b615a38565b6020870196506001820191505b60001561539d576153908761538b836164bd565b615a38565b6020870196506001820191505b6000156153c3576153b6876153b1836164d7565b615a38565b6020870196506001820191505b505b505050505050565b6153d681616131565b82525050565b6153e58161613d565b82525050565b60006153f682616092565b61540081856160f6565b9350615410818560208601616234565b80840191505092915050565b615425816161c8565b82525050565b615434816161ec565b82525050565b60006154458261609d565b61544f8185616101565b935061545f818560208601616234565b615468816165a7565b840191505092915050565b6000615480600683616101565b91507f72657365743f00000000000000000000000000000000000000000000000000006000830152602082019050919050565b60006154c0600a83616101565b91507f6e6f7420647261776564000000000000000000000000000000000000000000006000830152602082019050919050565b6000615500601383616101565b91507f657863656564206e756d6265722073636f7065000000000000000000000000006000830152602082019050919050565b6000615540601983616101565b91507f5f6973737565496e646578203c3d206973737565496e646578000000000000006000830152602082019050919050565b6000615580602683616101565b91507f4f776e61626c653a206e6577206f776e657220697320746865207a65726f206160008301527f64647265737300000000000000000000000000000000000000000000000000006020830152604082019050919050565b60006155e6601283616101565b91507f65786365656420746865206d6178696d756d00000000000000000000000000006000830152602082019050919050565b6000615626602683616101565b91507f416464726573733a20696e73756666696369656e742062616c616e636520666f60008301527f722063616c6c00000000000000000000000000000000000000000000000000006020830152604082019050919050565b600061568c600e83616101565b91507f6e6f742066726f6d206f776e65720000000000000000000000000000000000006000830152602082019050919050565b60006156cc601983616101565b91507f656e7465722064726177696e67207068617365206669727374000000000000006000830152602082019050919050565b600061570c600783616101565b91507f636c61696d6564000000000000000000000000000000000000000000000000006000830152602082019050919050565b600061574c601883616101565b91507f64726177696e672c2063616e206e6f7420627579206e6f7700000000000000006000830152602082019050919050565b600061578c602e83616101565b91507f496e697469616c697a61626c653a20636f6e747261637420697320616c72656160008301527f647920696e697469616c697a65640000000000000000000000000000000000006020830152604082019050919050565b60006157f2601983616101565b91507f7072696365206d7573742061626f7665206d696e5072696365000000000000006000830152602082019050919050565b6000615832601783616101565b91507f6472617765642c2063616e206e6f7420627579206e6f770000000000000000006000830152602082019050919050565b6000615872602083616101565b91507f4f776e61626c653a2063616c6c6572206973206e6f7420746865206f776e65726000830152602082019050919050565b60006158b2600b83616101565b91507f61646d696e3a207775743f0000000000000000000000000000000000000000006000830152602082019050919050565b60006158f2601d83616101565b91507f416464726573733a2063616c6c20746f206e6f6e2d636f6e74726163740000006000830152602082019050919050565b6000615932600783616101565b91507f6472617765643f000000000000000000000000000000000000000000000000006000830152602082019050919050565b6000615972602a83616101565b91507f5361666545524332303a204552433230206f7065726174696f6e20646964206e60008301527f6f742073756363656564000000000000000000000000000000000000000000006020830152604082019050919050565b60006159d8600683616101565b91507f64726177656400000000000000000000000000000000000000000000000000006000830152602082019050919050565b615a148161618b565b82525050565b615a238161618b565b82525050565b615a3281616195565b82525050565b615a41816161a9565b82525050565b615a50816161a9565b82525050565b6000615a6282846153eb565b915081905092915050565b6000602082019050615a826000830184614a94565b92915050565b600060e082019050615a9d6000830187614a85565b615aaa6020830186614b58565b615ab760a0830185615a1a565b615ac460c0830184615a1a565b95945050505050565b6000606082019050615ae26000830186614a94565b615aef6020830185614a94565b615afc6040830184615a1a565b949350505050565b600060e082019050615b196000830187614a94565b615b266020830186614b58565b615b3360a0830185615a1a565b615b4060c0830184615a1a565b95945050505050565b6000604082019050615b5e6000830185614a94565b615b6b6020830184615a1a565b9392505050565b60006020820190508181036000830152615b8c8184614aa3565b905092915050565b600061016082019050615baa6000830184614b01565b92915050565b6000608082019050615bc56000830184614baf565b92915050565b6000602082019050615be060008301846153cd565b92915050565b6000606082019050615bfb60008301866153dc565b615c086020830185615a1a565b615c156040830184615a1a565b949350505050565b6000608082019050615c3260008301876153dc565b615c3f6020830186615a1a565b615c4c6040830185615a1a565b615c596060830184615a1a565b95945050505050565b6000602082019050615c77600083018461541c565b92915050565b6000602082019050615c92600083018461542b565b92915050565b60006020820190508181036000830152615cb2818461543a565b905092915050565b60006020820190508181036000830152615cd381615473565b9050919050565b60006020820190508181036000830152615cf3816154b3565b9050919050565b60006020820190508181036000830152615d13816154f3565b9050919050565b60006020820190508181036000830152615d3381615533565b9050919050565b60006020820190508181036000830152615d5381615573565b9050919050565b60006020820190508181036000830152615d73816155d9565b9050919050565b60006020820190508181036000830152615d9381615619565b9050919050565b60006020820190508181036000830152615db38161567f565b9050919050565b60006020820190508181036000830152615dd3816156bf565b9050919050565b60006020820190508181036000830152615df3816156ff565b9050919050565b60006020820190508181036000830152615e138161573f565b9050919050565b60006020820190508181036000830152615e338161577f565b9050919050565b60006020820190508181036000830152615e53816157e5565b9050919050565b60006020820190508181036000830152615e7381615825565b9050919050565b60006020820190508181036000830152615e9381615865565b9050919050565b60006020820190508181036000830152615eb3816158a5565b9050919050565b60006020820190508181036000830152615ed3816158e5565b9050919050565b60006020820190508181036000830152615ef381615925565b9050919050565b60006020820190508181036000830152615f1381615965565b9050919050565b60006020820190508181036000830152615f33816159cb565b9050919050565b6000602082019050615f4f6000830184615a1a565b92915050565b6000604082019050615f6a6000830185615a1a565b615f776020830184615a1a565b9392505050565b6000602082019050615f936000830184615a47565b92915050565b6000604051905081810181811067ffffffffffffffff82111715615fbc57600080fd5b8060405250919050565b600067ffffffffffffffff821115615fdd57600080fd5b602082029050602081019050919050565b600067ffffffffffffffff82111561600557600080fd5b602082029050602081019050919050565b600067ffffffffffffffff82111561602d57600080fd5b602082029050919050565b6000819050602082019050919050565b6000819050919050565b6000819050919050565b6000819050919050565b600081519050919050565b6000600b9050919050565b600060049050919050565b600060049050919050565b600081519050919050565b600081519050919050565b6000602082019050919050565b6000602082019050919050565b6000602082019050919050565b600082825260208201905092915050565b600081905092915050565b600081905092915050565b600081905092915050565b600082825260208201905092915050565b600060ff82169050919050565b600061612a8261616b565b9050919050565b60008115159050919050565b6000819050919050565b60006161528261611f565b9050919050565b60006161648261611f565b9050919050565b600073ffffffffffffffffffffffffffffffffffffffff82169050919050565b6000819050919050565b600067ffffffffffffffff82169050919050565b600060ff82169050919050565b60006161c182616210565b9050919050565b60006161d3826161da565b9050919050565b60006161e58261616b565b9050919050565b60006161f7826161fe565b9050919050565b60006162098261616b565b9050919050565b600061621b82616222565b9050919050565b600061622d8261616b565b9050919050565b60005b83811015616252578082015181840152602081019050616237565b83811115616261576000848401525b50505050565b600061627a616275836165b8565b616112565b9050919050565b600061629461628f83616724565b616112565b9050919050565b60006162ae6162a983616731565b616112565b9050919050565b60006162c86162c38361674b565b616112565b9050919050565b60006162e26162dd836165c5565b616112565b9050919050565b60006162fc6162f7836165d2565b616112565b9050919050565b6000616316616311836165df565b616112565b9050919050565b600061633061632b836165ec565b616112565b9050919050565b600061634a616345836165f9565b616112565b9050919050565b600061636461635f83616606565b616112565b9050919050565b600061637e61637983616613565b616112565b9050919050565b60006163986163938361673e565b616112565b9050919050565b60006163b26163ad83616620565b616112565b9050919050565b60006163cc6163c78361662d565b616112565b9050919050565b60006163e66163e183616647565b616112565b9050919050565b60006164006163fb83616654565b616112565b9050919050565b600061641a61641583616661565b616112565b9050919050565b600061643461642f8361666e565b616112565b9050919050565b600061644e6164498361667b565b616112565b9050919050565b600061646861646383616688565b616112565b9050919050565b600061648261647d83616695565b616112565b9050919050565b600061649c616497836166a2565b616112565b9050919050565b60006164b66164b18361663a565b616112565b9050919050565b60006164d06164cb836166af565b616112565b9050919050565b60006164ea6164e5836166bc565b616112565b9050919050565b60006165046164ff836166c9565b616112565b9050919050565b600061651e616519836166d6565b616112565b9050919050565b6000616538616533836166e3565b616112565b9050919050565b600061655261654d836166f0565b616112565b9050919050565b600061656c616567836166fd565b616112565b9050919050565b60006165866165818361670a565b616112565b9050919050565b60006165a061659b83616717565b616112565b9050919050565b6000601f19601f8301169050919050565b60008160001c9050919050565b60008160681c9050919050565b60008160701c9050919050565b60008160781c9050919050565b60008160801c9050919050565b60008160881c9050919050565b60008160901c9050919050565b60008160981c9050919050565b60008160a01c9050919050565b60008160a81c9050919050565b60008160101c9050919050565b60008160b01c9050919050565b60008160b81c9050919050565b60008160c01c9050919050565b60008160c81c9050919050565b60008160d01c9050919050565b60008160d81c9050919050565b60008160e01c9050919050565b60008160e81c9050919050565b60008160f01c9050919050565b60008160f81c9050919050565b60008160181c9050919050565b60008160201c9050919050565b60008160281c9050919050565b60008160301c9050919050565b60008160381c9050919050565b60008160401c9050919050565b60008160481c9050919050565b60008160501c9050919050565b60008160581c9050919050565b60008160081c9050919050565b60008160601c9050919050565b6167618161611f565b811461676c57600080fd5b50565b61677881616131565b811461678357600080fd5b50565b61678f81616147565b811461679a57600080fd5b50565b6167a681616159565b81146167b157600080fd5b50565b6167bd8161618b565b81146167c857600080fd5b50565b6167d481616195565b81146167df57600080fd5b50565b6167eb816161a9565b81146167f657600080fd5b5056fea2646970667358221220dadf6158835d99e5179b0f69d8f5085fa67b9b200c15a0cc1b811f0bc29e8ebb64736f6c634300060c0033",
			"opcodes": "PUSH1 0x80 PUSH1 0x40 MSTORE PUSH1 0x0 PUSH1 0xB SSTORE PUSH1 0x0 PUSH1 0xC SSTORE PUSH1 0x0 PUSH1 0xD SSTORE PUSH1 0x40 MLOAD DUP1 PUSH1 0x80 ADD PUSH1 0x40 MSTORE DUP1 PUSH1 0x0 PUSH1 0xFF AND DUP2 MSTORE PUSH1 0x20 ADD PUSH1 0x0 PUSH1 0xFF AND DUP2 MSTORE PUSH1 0x20 ADD PUSH1 0x0 PUSH1 0xFF AND DUP2 MSTORE PUSH1 0x20 ADD PUSH1 0x0 PUSH1 0xFF AND DUP2 MSTORE POP PUSH1 0x11 SWAP1 PUSH1 0x4 PUSH3 0x56 SWAP3 SWAP2 SWAP1 PUSH3 0x6B JUMP JUMPDEST POP CALLVALUE DUP1 ISZERO PUSH3 0x64 JUMPI PUSH1 0x0 DUP1 REVERT JUMPDEST POP PUSH3 0x136 JUMP JUMPDEST DUP3 PUSH1 0x4 PUSH1 0x1F ADD PUSH1 0x20 SWAP1 DIV DUP2 ADD SWAP3 DUP3 ISZERO PUSH3 0xF9 JUMPI SWAP2 PUSH1 0x20 MUL DUP3 ADD PUSH1 0x0 JUMPDEST DUP4 DUP3 GT ISZERO PUSH3 0xC8 JUMPI DUP4 MLOAD DUP4 DUP3 PUSH2 0x100 EXP DUP2 SLOAD DUP2 PUSH1 0xFF MUL NOT AND SWAP1 DUP4 PUSH1 0xFF AND MUL OR SWAP1 SSTORE POP SWAP3 PUSH1 0x20 ADD SWAP3 PUSH1 0x1 ADD PUSH1 0x20 DUP2 PUSH1 0x0 ADD DIV SWAP3 DUP4 ADD SWAP3 PUSH1 0x1 SUB MUL PUSH3 0x88 JUMP JUMPDEST DUP1 ISZERO PUSH3 0xF7 JUMPI DUP3 DUP2 PUSH2 0x100 EXP DUP2 SLOAD SWAP1 PUSH1 0xFF MUL NOT AND SWAP1 SSTORE PUSH1 0x1 ADD PUSH1 0x20 DUP2 PUSH1 0x0 ADD DIV SWAP3 DUP4 ADD SWAP3 PUSH1 0x1 SUB MUL PUSH3 0xC8 JUMP JUMPDEST POP JUMPDEST POP SWAP1 POP PUSH3 0x108 SWAP2 SWAP1 PUSH3 0x10C JUMP JUMPDEST POP SWAP1 JUMP JUMPDEST JUMPDEST DUP1 DUP3 GT ISZERO PUSH3 0x132 JUMPI PUSH1 0x0 DUP2 DUP2 PUSH2 0x100 EXP DUP2 SLOAD SWAP1 PUSH1 0xFF MUL NOT AND SWAP1 SSTORE POP PUSH1 0x1 ADD PUSH3 0x10D JUMP JUMPDEST POP SWAP1 JUMP JUMPDEST PUSH2 0x682F DUP1 PUSH3 0x146 PUSH1 0x0 CODECOPY PUSH1 0x0 RETURN INVALID PUSH1 0x80 PUSH1 0x40 MSTORE CALLVALUE DUP1 ISZERO PUSH2 0x10 JUMPI PUSH1 0x0 DUP1 REVERT JUMPDEST POP PUSH1 0x4 CALLDATASIZE LT PUSH2 0x232 JUMPI PUSH1 0x0 CALLDATALOAD PUSH1 0xE0 SHR DUP1 PUSH4 0x6A28F828 GT PUSH2 0x130 JUMPI DUP1 PUSH4 0xC39F49C0 GT PUSH2 0xB8 JUMPI DUP1 PUSH4 0xE1345416 GT PUSH2 0x7C JUMPI DUP1 PUSH4 0xE1345416 EQ PUSH2 0x689 JUMPI DUP1 PUSH4 0xE45BE8EB EQ PUSH2 0x6A7 JUMPI DUP1 PUSH4 0xE8ADFBC7 EQ PUSH2 0x6C5 JUMPI DUP1 PUSH4 0xF2FDE38B EQ PUSH2 0x6E3 JUMPI DUP1 PUSH4 0xFC6F9468 EQ PUSH2 0x6FF JUMPI PUSH2 0x232 JUMP JUMPDEST DUP1 PUSH4 0xC39F49C0 EQ PUSH2 0x5D1 JUMPI DUP1 PUSH4 0xCFAD5277 EQ PUSH2 0x601 JUMPI DUP1 PUSH4 0xD1F7DBCF EQ PUSH2 0x61F JUMPI DUP1 PUSH4 0xD411B0FA EQ PUSH2 0x64F JUMPI DUP1 PUSH4 0xD826F88F EQ PUSH2 0x67F JUMPI PUSH2 0x232 JUMP JUMPDEST DUP1 PUSH4 0x850BAD94 GT PUSH2 0xFF JUMPI DUP1 PUSH4 0x850BAD94 EQ PUSH2 0x51B JUMPI DUP1 PUSH4 0x85DCDF1B EQ PUSH2 0x54B JUMPI DUP1 PUSH4 0x8DA5CB5B EQ PUSH2 0x57B JUMPI DUP1 PUSH4 0xA42206C9 EQ PUSH2 0x599 JUMPI DUP1 PUSH4 0xAE169A50 EQ PUSH2 0x5B5 JUMPI PUSH2 0x232 JUMP JUMPDEST DUP1 PUSH4 0x6A28F828 EQ PUSH2 0x4BB JUMPI DUP1 PUSH4 0x704B6C02 EQ PUSH2 0x4D9 JUMPI DUP1 PUSH4 0x715018A6 EQ PUSH2 0x4F5 JUMPI DUP1 PUSH4 0x7C5B4A37 EQ PUSH2 0x4FF JUMPI PUSH2 0x232 JUMP JUMPDEST DUP1 PUSH4 0x324A5562 GT PUSH2 0x1BE JUMPI DUP1 PUSH4 0x552164EE GT PUSH2 0x182 JUMPI DUP1 PUSH4 0x552164EE EQ PUSH2 0x3F3 JUMPI DUP1 PUSH4 0x59BCBD68 EQ PUSH2 0x423 JUMPI DUP1 PUSH4 0x5C17623A EQ PUSH2 0x453 JUMPI DUP1 PUSH4 0x5EA8CD12 EQ PUSH2 0x46F JUMPI DUP1 PUSH4 0x6575243F EQ PUSH2 0x48B JUMPI PUSH2 0x232 JUMP JUMPDEST DUP1 PUSH4 0x324A5562 EQ PUSH2 0x34F JUMPI DUP1 PUSH4 0x3A4F6999 EQ PUSH2 0x36B JUMPI DUP1 PUSH4 0x438209F5 EQ PUSH2 0x389 JUMPI DUP1 PUSH4 0x4E45F095 EQ PUSH2 0x3A7 JUMPI DUP1 PUSH4 0x4ED73D28 EQ PUSH2 0x3D7 JUMPI PUSH2 0x232 JUMP JUMPDEST DUP1 PUSH4 0x1A39D8EF GT PUSH2 0x205 JUMPI DUP1 PUSH4 0x1A39D8EF EQ PUSH2 0x2AB JUMPI DUP1 PUSH4 0x1FF68866 EQ PUSH2 0x2C9 JUMPI DUP1 PUSH4 0x21CE919D EQ PUSH2 0x2D3 JUMPI DUP1 PUSH4 0x2BDFF851 EQ PUSH2 0x303 JUMPI DUP1 PUSH4 0x2F506B20 EQ PUSH2 0x31F JUMPI PUSH2 0x232 JUMP JUMPDEST DUP1 PUSH4 0x4D59DBF EQ PUSH2 0x237 JUMPI DUP1 PUSH4 0x11E42065 EQ PUSH2 0x255 JUMPI DUP1 PUSH4 0x14C20D57 EQ PUSH2 0x271 JUMPI DUP1 PUSH4 0x19D8AC61 EQ PUSH2 0x28D JUMPI JUMPDEST PUSH1 0x0 DUP1 REVERT JUMPDEST PUSH2 0x23F PUSH2 0x71D JUMP JUMPDEST PUSH1 0x40 MLOAD PUSH2 0x24C SWAP2 SWAP1 PUSH2 0x5C62 JUMP JUMPDEST PUSH1 0x40 MLOAD DUP1 SWAP2 SUB SWAP1 RETURN JUMPDEST PUSH2 0x26F PUSH1 0x4 DUP1 CALLDATASIZE SUB DUP2 ADD SWAP1 PUSH2 0x26A SWAP2 SWAP1 PUSH2 0x47E2 JUMP JUMPDEST PUSH2 0x743 JUMP JUMPDEST STOP JUMPDEST PUSH2 0x28B PUSH1 0x4 DUP1 CALLDATASIZE SUB DUP2 ADD SWAP1 PUSH2 0x286 SWAP2 SWAP1 PUSH2 0x4911 JUMP JUMPDEST PUSH2 0x952 JUMP JUMPDEST STOP JUMPDEST PUSH2 0x295 PUSH2 0xE04 JUMP JUMPDEST PUSH1 0x40 MLOAD PUSH2 0x2A2 SWAP2 SWAP1 PUSH2 0x5F3A JUMP JUMPDEST PUSH1 0x40 MLOAD DUP1 SWAP2 SUB SWAP1 RETURN JUMPDEST PUSH2 0x2B3 PUSH2 0xE0A JUMP JUMPDEST PUSH1 0x40 MLOAD PUSH2 0x2C0 SWAP2 SWAP1 PUSH2 0x5F3A JUMP JUMPDEST PUSH1 0x40 MLOAD DUP1 SWAP2 SUB SWAP1 RETURN JUMPDEST PUSH2 0x2D1 PUSH2 0xE10 JUMP JUMPDEST STOP JUMPDEST PUSH2 0x2ED PUSH1 0x4 DUP1 CALLDATASIZE SUB DUP2 ADD SWAP1 PUSH2 0x2E8 SWAP2 SWAP1 PUSH2 0x46EA JUMP JUMPDEST PUSH2 0xF05 JUMP JUMPDEST PUSH1 0x40 MLOAD PUSH2 0x2FA SWAP2 SWAP1 PUSH2 0x5F3A JUMP JUMPDEST PUSH1 0x40 MLOAD DUP1 SWAP2 SUB SWAP1 RETURN JUMPDEST PUSH2 0x31D PUSH1 0x4 DUP1 CALLDATASIZE SUB DUP2 ADD SWAP1 PUSH2 0x318 SWAP2 SWAP1 PUSH2 0x48BD JUMP JUMPDEST PUSH2 0xF33 JUMP JUMPDEST STOP JUMPDEST PUSH2 0x339 PUSH1 0x4 DUP1 CALLDATASIZE SUB DUP2 ADD SWAP1 PUSH2 0x334 SWAP2 SWAP1 PUSH2 0x4989 JUMP JUMPDEST PUSH2 0x1481 JUMP JUMPDEST PUSH1 0x40 MLOAD PUSH2 0x346 SWAP2 SWAP1 PUSH2 0x5F3A JUMP JUMPDEST PUSH1 0x40 MLOAD DUP1 SWAP2 SUB SWAP1 RETURN JUMPDEST PUSH2 0x369 PUSH1 0x4 DUP1 CALLDATASIZE SUB DUP2 ADD SWAP1 PUSH2 0x364 SWAP2 SWAP1 PUSH2 0x49C5 JUMP JUMPDEST PUSH2 0x14A6 JUMP JUMPDEST STOP JUMPDEST PUSH2 0x373 PUSH2 0x1554 JUMP JUMPDEST PUSH1 0x40 MLOAD PUSH2 0x380 SWAP2 SWAP1 PUSH2 0x5F7E JUMP JUMPDEST PUSH1 0x40 MLOAD DUP1 SWAP2 SUB SWAP1 RETURN JUMPDEST PUSH2 0x391 PUSH2 0x1567 JUMP JUMPDEST PUSH1 0x40 MLOAD PUSH2 0x39E SWAP2 SWAP1 PUSH2 0x5BCB JUMP JUMPDEST PUSH1 0x40 MLOAD DUP1 SWAP2 SUB SWAP1 RETURN JUMPDEST PUSH2 0x3C1 PUSH1 0x4 DUP1 CALLDATASIZE SUB DUP2 ADD SWAP1 PUSH2 0x3BC SWAP2 SWAP1 PUSH2 0x486B JUMP JUMPDEST PUSH2 0x157A JUMP JUMPDEST PUSH1 0x40 MLOAD PUSH2 0x3CE SWAP2 SWAP1 PUSH2 0x5F7E JUMP JUMPDEST PUSH1 0x40 MLOAD DUP1 SWAP2 SUB SWAP1 RETURN JUMPDEST PUSH2 0x3F1 PUSH1 0x4 DUP1 CALLDATASIZE SUB DUP2 ADD SWAP1 PUSH2 0x3EC SWAP2 SWAP1 PUSH2 0x4726 JUMP JUMPDEST PUSH2 0x15A1 JUMP JUMPDEST STOP JUMPDEST PUSH2 0x40D PUSH1 0x4 DUP1 CALLDATASIZE SUB DUP2 ADD SWAP1 PUSH2 0x408 SWAP2 SWAP1 PUSH2 0x486B JUMP JUMPDEST PUSH2 0x195B JUMP JUMPDEST PUSH1 0x40 MLOAD PUSH2 0x41A SWAP2 SWAP1 PUSH2 0x5F3A JUMP JUMPDEST PUSH1 0x40 MLOAD DUP1 SWAP2 SUB SWAP1 RETURN JUMPDEST PUSH2 0x43D PUSH1 0x4 DUP1 CALLDATASIZE SUB DUP2 ADD SWAP1 PUSH2 0x438 SWAP2 SWAP1 PUSH2 0x494D JUMP JUMPDEST PUSH2 0x19F9 JUMP JUMPDEST PUSH1 0x40 MLOAD PUSH2 0x44A SWAP2 SWAP1 PUSH2 0x5F7E JUMP JUMPDEST PUSH1 0x40 MLOAD DUP1 SWAP2 SUB SWAP1 RETURN JUMPDEST PUSH2 0x46D PUSH1 0x4 DUP1 CALLDATASIZE SUB DUP2 ADD SWAP1 PUSH2 0x468 SWAP2 SWAP1 PUSH2 0x49EE JUMP JUMPDEST PUSH2 0x1A2F JUMP JUMPDEST STOP JUMPDEST PUSH2 0x489 PUSH1 0x4 DUP1 CALLDATASIZE SUB DUP2 ADD SWAP1 PUSH2 0x484 SWAP2 SWAP1 PUSH2 0x486B JUMP JUMPDEST PUSH2 0x1B02 JUMP JUMPDEST STOP JUMPDEST PUSH2 0x4A5 PUSH1 0x4 DUP1 CALLDATASIZE SUB DUP2 ADD SWAP1 PUSH2 0x4A0 SWAP2 SWAP1 PUSH2 0x494D JUMP JUMPDEST PUSH2 0x1B9C JUMP JUMPDEST PUSH1 0x40 MLOAD PUSH2 0x4B2 SWAP2 SWAP1 PUSH2 0x5F3A JUMP JUMPDEST PUSH1 0x40 MLOAD DUP1 SWAP2 SUB SWAP1 RETURN JUMPDEST PUSH2 0x4C3 PUSH2 0x1BCA JUMP JUMPDEST PUSH1 0x40 MLOAD PUSH2 0x4D0 SWAP2 SWAP1 PUSH2 0x5F3A JUMP JUMPDEST PUSH1 0x40 MLOAD DUP1 SWAP2 SUB SWAP1 RETURN JUMPDEST PUSH2 0x4F3 PUSH1 0x4 DUP1 CALLDATASIZE SUB DUP2 ADD SWAP1 PUSH2 0x4EE SWAP2 SWAP1 PUSH2 0x4698 JUMP JUMPDEST PUSH2 0x1BD0 JUMP JUMPDEST STOP JUMPDEST PUSH2 0x4FD PUSH2 0x1CA2 JUMP JUMPDEST STOP JUMPDEST PUSH2 0x519 PUSH1 0x4 DUP1 CALLDATASIZE SUB DUP2 ADD SWAP1 PUSH2 0x514 SWAP2 SWAP1 PUSH2 0x486B JUMP JUMPDEST PUSH2 0x1DEE JUMP JUMPDEST STOP JUMPDEST PUSH2 0x535 PUSH1 0x4 DUP1 CALLDATASIZE SUB DUP2 ADD SWAP1 PUSH2 0x530 SWAP2 SWAP1 PUSH2 0x486B JUMP JUMPDEST PUSH2 0x1F1C JUMP JUMPDEST PUSH1 0x40 MLOAD PUSH2 0x542 SWAP2 SWAP1 PUSH2 0x5F7E JUMP JUMPDEST PUSH1 0x40 MLOAD DUP1 SWAP2 SUB SWAP1 RETURN JUMPDEST PUSH2 0x565 PUSH1 0x4 DUP1 CALLDATASIZE SUB DUP2 ADD SWAP1 PUSH2 0x560 SWAP2 SWAP1 PUSH2 0x4767 JUMP JUMPDEST PUSH2 0x1F43 JUMP JUMPDEST PUSH1 0x40 MLOAD PUSH2 0x572 SWAP2 SWAP1 PUSH2 0x5B94 JUMP JUMPDEST PUSH1 0x40 MLOAD DUP1 SWAP2 SUB SWAP1 RETURN JUMPDEST PUSH2 0x583 PUSH2 0x2552 JUMP JUMPDEST PUSH1 0x40 MLOAD PUSH2 0x590 SWAP2 SWAP1 PUSH2 0x5A6D JUMP JUMPDEST PUSH1 0x40 MLOAD DUP1 SWAP2 SUB SWAP1 RETURN JUMPDEST PUSH2 0x5B3 PUSH1 0x4 DUP1 CALLDATASIZE SUB DUP2 ADD SWAP1 PUSH2 0x5AE SWAP2 SWAP1 PUSH2 0x486B JUMP JUMPDEST PUSH2 0x257B JUMP JUMPDEST STOP JUMPDEST PUSH2 0x5CF PUSH1 0x4 DUP1 CALLDATASIZE SUB DUP2 ADD SWAP1 PUSH2 0x5CA SWAP2 SWAP1 PUSH2 0x486B JUMP JUMPDEST PUSH2 0x2951 JUMP JUMPDEST STOP JUMPDEST PUSH2 0x5EB PUSH1 0x4 DUP1 CALLDATASIZE SUB DUP2 ADD SWAP1 PUSH2 0x5E6 SWAP2 SWAP1 PUSH2 0x494D JUMP JUMPDEST PUSH2 0x2C99 JUMP JUMPDEST PUSH1 0x40 MLOAD PUSH2 0x5F8 SWAP2 SWAP1 PUSH2 0x5F3A JUMP JUMPDEST PUSH1 0x40 MLOAD DUP1 SWAP2 SUB SWAP1 RETURN JUMPDEST PUSH2 0x609 PUSH2 0x2CC7 JUMP JUMPDEST PUSH1 0x40 MLOAD PUSH2 0x616 SWAP2 SWAP1 PUSH2 0x5F3A JUMP JUMPDEST PUSH1 0x40 MLOAD DUP1 SWAP2 SUB SWAP1 RETURN JUMPDEST PUSH2 0x639 PUSH1 0x4 DUP1 CALLDATASIZE SUB DUP2 ADD SWAP1 PUSH2 0x634 SWAP2 SWAP1 PUSH2 0x494D JUMP JUMPDEST PUSH2 0x2CCD JUMP JUMPDEST PUSH1 0x40 MLOAD PUSH2 0x646 SWAP2 SWAP1 PUSH2 0x5F3A JUMP JUMPDEST PUSH1 0x40 MLOAD DUP1 SWAP2 SUB SWAP1 RETURN JUMPDEST PUSH2 0x669 PUSH1 0x4 DUP1 CALLDATASIZE SUB DUP2 ADD SWAP1 PUSH2 0x664 SWAP2 SWAP1 PUSH2 0x486B JUMP JUMPDEST PUSH2 0x2D03 JUMP JUMPDEST PUSH1 0x40 MLOAD PUSH2 0x676 SWAP2 SWAP1 PUSH2 0x5F3A JUMP JUMPDEST PUSH1 0x40 MLOAD DUP1 SWAP2 SUB SWAP1 RETURN JUMPDEST PUSH2 0x687 PUSH2 0x3111 JUMP JUMPDEST STOP JUMPDEST PUSH2 0x691 PUSH2 0x33FB JUMP JUMPDEST PUSH1 0x40 MLOAD PUSH2 0x69E SWAP2 SWAP1 PUSH2 0x5BCB JUMP JUMPDEST PUSH1 0x40 MLOAD DUP1 SWAP2 SUB SWAP1 RETURN JUMPDEST PUSH2 0x6AF PUSH2 0x342C JUMP JUMPDEST PUSH1 0x40 MLOAD PUSH2 0x6BC SWAP2 SWAP1 PUSH2 0x5F3A JUMP JUMPDEST PUSH1 0x40 MLOAD DUP1 SWAP2 SUB SWAP1 RETURN JUMPDEST PUSH2 0x6CD PUSH2 0x3432 JUMP JUMPDEST PUSH1 0x40 MLOAD PUSH2 0x6DA SWAP2 SWAP1 PUSH2 0x5C7D JUMP JUMPDEST PUSH1 0x40 MLOAD DUP1 SWAP2 SUB SWAP1 RETURN JUMPDEST PUSH2 0x6FD PUSH1 0x4 DUP1 CALLDATASIZE SUB DUP2 ADD SWAP1 PUSH2 0x6F8 SWAP2 SWAP1 PUSH2 0x4698 JUMP JUMPDEST PUSH2 0x3458 JUMP JUMPDEST STOP JUMPDEST PUSH2 0x707 PUSH2 0x3613 JUMP JUMPDEST PUSH1 0x40 MLOAD PUSH2 0x714 SWAP2 SWAP1 PUSH2 0x5A6D JUMP JUMPDEST PUSH1 0x40 MLOAD DUP1 SWAP2 SUB SWAP1 RETURN JUMPDEST PUSH1 0x2 PUSH1 0x0 SWAP1 SLOAD SWAP1 PUSH2 0x100 EXP SWAP1 DIV PUSH20 0xFFFFFFFFFFFFFFFFFFFFFFFFFFFFFFFFFFFFFFFF AND DUP2 JUMP JUMPDEST PUSH1 0x0 PUSH1 0x15 SWAP1 SLOAD SWAP1 PUSH2 0x100 EXP SWAP1 DIV PUSH1 0xFF AND DUP1 PUSH2 0x76B JUMPI POP PUSH1 0x0 PUSH1 0x14 SWAP1 SLOAD SWAP1 PUSH2 0x100 EXP SWAP1 DIV PUSH1 0xFF AND ISZERO JUMPDEST PUSH2 0x7AA JUMPI PUSH1 0x40 MLOAD PUSH32 0x8C379A000000000000000000000000000000000000000000000000000000000 DUP2 MSTORE PUSH1 0x4 ADD PUSH2 0x7A1 SWAP1 PUSH2 0x5E1A JUMP JUMPDEST PUSH1 0x40 MLOAD DUP1 SWAP2 SUB SWAP1 REVERT JUMPDEST PUSH1 0x0 DUP1 PUSH1 0x15 SWAP1 SLOAD SWAP1 PUSH2 0x100 EXP SWAP1 DIV PUSH1 0xFF AND ISZERO SWAP1 POP DUP1 ISZERO PUSH2 0x7FB JUMPI PUSH1 0x1 PUSH1 0x0 PUSH1 0x15 PUSH2 0x100 EXP DUP2 SLOAD DUP2 PUSH1 0xFF MUL NOT AND SWAP1 DUP4 ISZERO ISZERO MUL OR SWAP1 SSTORE POP PUSH1 0x1 PUSH1 0x0 PUSH1 0x14 PUSH2 0x100 EXP DUP2 SLOAD DUP2 PUSH1 0xFF MUL NOT AND SWAP1 DUP4 ISZERO ISZERO MUL OR SWAP1 SSTORE POP JUMPDEST DUP7 PUSH1 0x2 PUSH1 0x0 PUSH2 0x100 EXP DUP2 SLOAD DUP2 PUSH20 0xFFFFFFFFFFFFFFFFFFFFFFFFFFFFFFFFFFFFFFFF MUL NOT AND SWAP1 DUP4 PUSH20 0xFFFFFFFFFFFFFFFFFFFFFFFFFFFFFFFFFFFFFFFF AND MUL OR SWAP1 SSTORE POP DUP6 PUSH1 0x3 PUSH1 0x0 PUSH2 0x100 EXP DUP2 SLOAD DUP2 PUSH20 0xFFFFFFFFFFFFFFFFFFFFFFFFFFFFFFFFFFFFFFFF MUL NOT AND SWAP1 DUP4 PUSH20 0xFFFFFFFFFFFFFFFFFFFFFFFFFFFFFFFFFFFFFFFF AND MUL OR SWAP1 SSTORE POP DUP5 PUSH1 0x5 DUP2 SWAP1 SSTORE POP DUP4 PUSH1 0x4 PUSH1 0x14 PUSH2 0x100 EXP DUP2 SLOAD DUP2 PUSH1 0xFF MUL NOT AND SWAP1 DUP4 PUSH1 0xFF AND MUL OR SWAP1 SSTORE POP DUP2 PUSH1 0x4 PUSH1 0x0 PUSH2 0x100 EXP DUP2 SLOAD DUP2 PUSH20 0xFFFFFFFFFFFFFFFFFFFFFFFFFFFFFFFFFFFFFFFF MUL NOT AND SWAP1 DUP4 PUSH20 0xFFFFFFFFFFFFFFFFFFFFFFFFFFFFFFFFFFFFFFFF AND MUL OR SWAP1 SSTORE POP TIMESTAMP PUSH1 0xE DUP2 SWAP1 SSTORE POP PUSH1 0x40 MLOAD DUP1 PUSH1 0x60 ADD PUSH1 0x40 MSTORE DUP1 PUSH1 0x3C PUSH1 0xFF AND DUP2 MSTORE PUSH1 0x20 ADD PUSH1 0x14 PUSH1 0xFF AND DUP2 MSTORE PUSH1 0x20 ADD PUSH1 0xA PUSH1 0xFF AND DUP2 MSTORE POP PUSH1 0x1 SWAP1 PUSH1 0x3 PUSH2 0x91E SWAP3 SWAP2 SWAP1 PUSH2 0x41D8 JUMP JUMPDEST POP PUSH2 0x928 DUP4 PUSH2 0x3639 JUMP JUMPDEST DUP1 ISZERO PUSH2 0x949 JUMPI PUSH1 0x0 DUP1 PUSH1 0x15 PUSH2 0x100 EXP DUP2 SLOAD DUP2 PUSH1 0xFF MUL NOT AND SWAP1 DUP4 ISZERO ISZERO MUL OR SWAP1 SSTORE POP JUMPDEST POP POP POP POP POP POP POP JUMP JUMPDEST PUSH2 0x95A PUSH2 0x33FB JUMP JUMPDEST ISZERO PUSH2 0x99A JUMPI PUSH1 0x40 MLOAD PUSH32 0x8C379A000000000000000000000000000000000000000000000000000000000 DUP2 MSTORE PUSH1 0x4 ADD PUSH2 0x991 SWAP1 PUSH2 0x5E5A JUMP JUMPDEST PUSH1 0x40 MLOAD DUP1 SWAP2 SUB SWAP1 REVERT JUMPDEST PUSH1 0x10 PUSH1 0x0 SWAP1 SLOAD SWAP1 PUSH2 0x100 EXP SWAP1 DIV PUSH1 0xFF AND ISZERO PUSH2 0x9EA JUMPI PUSH1 0x40 MLOAD PUSH32 0x8C379A000000000000000000000000000000000000000000000000000000000 DUP2 MSTORE PUSH1 0x4 ADD PUSH2 0x9E1 SWAP1 PUSH2 0x5DFA JUMP JUMPDEST PUSH1 0x40 MLOAD DUP1 SWAP2 SUB SWAP1 REVERT JUMPDEST PUSH1 0x5 SLOAD DUP3 LT ISZERO PUSH2 0xA2F JUMPI PUSH1 0x40 MLOAD PUSH32 0x8C379A000000000000000000000000000000000000000000000000000000000 DUP2 MSTORE PUSH1 0x4 ADD PUSH2 0xA26 SWAP1 PUSH2 0x5E3A JUMP JUMPDEST PUSH1 0x40 MLOAD DUP1 SWAP2 SUB SWAP1 REVERT JUMPDEST PUSH1 0x0 JUMPDEST PUSH1 0x4 DUP2 LT ISZERO PUSH2 0xAB0 JUMPI PUSH1 0x4 PUSH1 0x14 SWAP1 SLOAD SWAP1 PUSH2 0x100 EXP SWAP1 DIV PUSH1 0xFF AND PUSH1 0xFF AND DUP3 DUP3 PUSH1 0x4 DUP2 LT PUSH2 0xA5A JUMPI INVALID JUMPDEST PUSH1 0x20 MUL ADD MLOAD PUSH1 0xFF AND GT ISZERO PUSH2 0xAA3 JUMPI PUSH1 0x40 MLOAD PUSH32 0x8C379A000000000000000000000000000000000000000000000000000000000 DUP2 MSTORE PUSH1 0x4 ADD PUSH2 0xA9A SWAP1 PUSH2 0x5CFA JUMP JUMPDEST PUSH1 0x40 MLOAD DUP1 SWAP2 SUB SWAP1 REVERT JUMPDEST DUP1 DUP1 PUSH1 0x1 ADD SWAP2 POP POP PUSH2 0xA32 JUMP JUMPDEST POP PUSH1 0x0 PUSH1 0x3 PUSH1 0x0 SWAP1 SLOAD SWAP1 PUSH2 0x100 EXP SWAP1 DIV PUSH20 0xFFFFFFFFFFFFFFFFFFFFFFFFFFFFFFFFFFFFFFFF AND PUSH20 0xFFFFFFFFFFFFFFFFFFFFFFFFFFFFFFFFFFFFFFFF AND PUSH4 0x37391C00 CALLER DUP5 DUP7 PUSH1 0xB SLOAD PUSH1 0x40 MLOAD DUP6 PUSH4 0xFFFFFFFF AND PUSH1 0xE0 SHL DUP2 MSTORE PUSH1 0x4 ADD PUSH2 0xB16 SWAP5 SWAP4 SWAP3 SWAP2 SWAP1 PUSH2 0x5A88 JUMP JUMPDEST PUSH1 0x20 PUSH1 0x40 MLOAD DUP1 DUP4 SUB DUP2 PUSH1 0x0 DUP8 DUP1 EXTCODESIZE ISZERO DUP1 ISZERO PUSH2 0xB30 JUMPI PUSH1 0x0 DUP1 REVERT JUMPDEST POP GAS CALL ISZERO DUP1 ISZERO PUSH2 0xB44 JUMPI RETURNDATASIZE PUSH1 0x0 DUP1 RETURNDATACOPY RETURNDATASIZE PUSH1 0x0 REVERT JUMPDEST POP POP POP POP PUSH1 0x40 MLOAD RETURNDATASIZE PUSH1 0x1F NOT PUSH1 0x1F DUP3 ADD AND DUP3 ADD DUP1 PUSH1 0x40 MSTORE POP DUP2 ADD SWAP1 PUSH2 0xB68 SWAP2 SWAP1 PUSH2 0x4894 JUMP JUMPDEST SWAP1 POP PUSH1 0x7 PUSH1 0x0 PUSH1 0xB SLOAD DUP2 MSTORE PUSH1 0x20 ADD SWAP1 DUP2 MSTORE PUSH1 0x20 ADD PUSH1 0x0 KECCAK256 DUP2 SWAP1 DUP1 PUSH1 0x1 DUP2 SLOAD ADD DUP1 DUP3 SSTORE DUP1 SWAP2 POP POP PUSH1 0x1 SWAP1 SUB SWAP1 PUSH1 0x0 MSTORE PUSH1 0x20 PUSH1 0x0 KECCAK256 ADD PUSH1 0x0 SWAP1 SWAP2 SWAP1 SWAP2 SWAP1 SWAP2 POP SSTORE PUSH1 0x0 PUSH1 0xA PUSH1 0x0 CALLER PUSH20 0xFFFFFFFFFFFFFFFFFFFFFFFFFFFFFFFFFFFFFFFF AND PUSH20 0xFFFFFFFFFFFFFFFFFFFFFFFFFFFFFFFFFFFFFFFF AND DUP2 MSTORE PUSH1 0x20 ADD SWAP1 DUP2 MSTORE PUSH1 0x20 ADD PUSH1 0x0 KECCAK256 DUP1 SLOAD SWAP1 POP EQ ISZERO PUSH2 0xBFE JUMPI PUSH1 0x1 PUSH1 0xC SLOAD ADD PUSH1 0xC DUP2 SWAP1 SSTORE POP JUMPDEST PUSH1 0xA PUSH1 0x0 CALLER PUSH20 0xFFFFFFFFFFFFFFFFFFFFFFFFFFFFFFFFFFFFFFFF AND PUSH20 0xFFFFFFFFFFFFFFFFFFFFFFFFFFFFFFFFFFFFFFFF AND DUP2 MSTORE PUSH1 0x20 ADD SWAP1 DUP2 MSTORE PUSH1 0x20 ADD PUSH1 0x0 KECCAK256 DUP2 SWAP1 DUP1 PUSH1 0x1 DUP2 SLOAD ADD DUP1 DUP3 SSTORE DUP1 SWAP2 POP POP PUSH1 0x1 SWAP1 SUB SWAP1 PUSH1 0x0 MSTORE PUSH1 0x20 PUSH1 0x0 KECCAK256 ADD PUSH1 0x0 SWAP1 SWAP2 SWAP1 SWAP2 SWAP1 SWAP2 POP SSTORE PUSH2 0xC79 DUP4 PUSH1 0xD SLOAD PUSH2 0x36D7 SWAP1 SWAP2 SWAP1 PUSH4 0xFFFFFFFF AND JUMP JUMPDEST PUSH1 0xD DUP2 SWAP1 SSTORE POP TIMESTAMP PUSH1 0xE DUP2 SWAP1 SSTORE POP PUSH2 0xC8E PUSH2 0x4272 JUMP JUMPDEST PUSH2 0xC97 DUP4 PUSH2 0x1F43 JUMP JUMPDEST SWAP1 POP PUSH1 0x0 JUMPDEST PUSH1 0xB PUSH1 0xFF AND DUP2 LT ISZERO PUSH2 0xD60 JUMPI PUSH2 0xD05 DUP6 PUSH1 0x9 PUSH1 0x0 PUSH1 0xB SLOAD DUP2 MSTORE PUSH1 0x20 ADD SWAP1 DUP2 MSTORE PUSH1 0x20 ADD PUSH1 0x0 KECCAK256 PUSH1 0x0 DUP6 DUP6 PUSH1 0xB DUP2 LT PUSH2 0xCCF JUMPI INVALID JUMPDEST PUSH1 0x20 MUL ADD MLOAD PUSH8 0xFFFFFFFFFFFFFFFF AND PUSH8 0xFFFFFFFFFFFFFFFF AND DUP2 MSTORE PUSH1 0x20 ADD SWAP1 DUP2 MSTORE PUSH1 0x20 ADD PUSH1 0x0 KECCAK256 SLOAD PUSH2 0x36D7 SWAP1 SWAP2 SWAP1 PUSH4 0xFFFFFFFF AND JUMP JUMPDEST PUSH1 0x9 PUSH1 0x0 PUSH1 0xB SLOAD DUP2 MSTORE PUSH1 0x20 ADD SWAP1 DUP2 MSTORE PUSH1 0x20 ADD PUSH1 0x0 KECCAK256 PUSH1 0x0 DUP5 DUP5 PUSH1 0xB DUP2 LT PUSH2 0xD28 JUMPI INVALID JUMPDEST PUSH1 0x20 MUL ADD MLOAD PUSH8 0xFFFFFFFFFFFFFFFF AND PUSH8 0xFFFFFFFFFFFFFFFF AND DUP2 MSTORE PUSH1 0x20 ADD SWAP1 DUP2 MSTORE PUSH1 0x20 ADD PUSH1 0x0 KECCAK256 DUP2 SWAP1 SSTORE POP DUP1 DUP1 PUSH1 0x1 ADD SWAP2 POP POP PUSH2 0xC9C JUMP JUMPDEST POP PUSH2 0xDB0 CALLER ADDRESS DUP7 PUSH1 0x2 PUSH1 0x0 SWAP1 SLOAD SWAP1 PUSH2 0x100 EXP SWAP1 DIV PUSH20 0xFFFFFFFFFFFFFFFFFFFFFFFFFFFFFFFFFFFFFFFF AND PUSH20 0xFFFFFFFFFFFFFFFFFFFFFFFFFFFFFFFFFFFFFFFF AND PUSH2 0x36E4 SWAP1 SWAP4 SWAP3 SWAP2 SWAP1 PUSH4 0xFFFFFFFF AND JUMP JUMPDEST CALLER PUSH20 0xFFFFFFFFFFFFFFFFFFFFFFFFFFFFFFFFFFFFFFFF AND PUSH32 0xE3D4187F6CA4248660CC0AC8B8056515BAC4A8132BE2ECA31D6D0CC170722A7E DUP4 PUSH1 0x40 MLOAD PUSH2 0xDF6 SWAP2 SWAP1 PUSH2 0x5F3A JUMP JUMPDEST PUSH1 0x40 MLOAD DUP1 SWAP2 SUB SWAP1 LOG2 POP POP POP POP JUMP JUMPDEST PUSH1 0xE SLOAD DUP2 JUMP JUMPDEST PUSH1 0xD SLOAD DUP2 JUMP JUMPDEST PUSH1 0x4 PUSH1 0x0 SWAP1 SLOAD SWAP1 PUSH2 0x100 EXP SWAP1 DIV PUSH20 0xFFFFFFFFFFFFFFFFFFFFFFFFFFFFFFFFFFFFFFFF AND PUSH20 0xFFFFFFFFFFFFFFFFFFFFFFFFFFFFFFFFFFFFFFFF AND CALLER PUSH20 0xFFFFFFFFFFFFFFFFFFFFFFFFFFFFFFFFFFFFFFFF AND EQ PUSH2 0xEA0 JUMPI PUSH1 0x40 MLOAD PUSH32 0x8C379A000000000000000000000000000000000000000000000000000000000 DUP2 MSTORE PUSH1 0x4 ADD PUSH2 0xE97 SWAP1 PUSH2 0x5E9A JUMP JUMPDEST PUSH1 0x40 MLOAD DUP1 SWAP2 SUB SWAP1 REVERT JUMPDEST PUSH2 0xEA8 PUSH2 0x33FB JUMP JUMPDEST ISZERO PUSH2 0xEE8 JUMPI PUSH1 0x40 MLOAD PUSH32 0x8C379A000000000000000000000000000000000000000000000000000000000 DUP2 MSTORE PUSH1 0x4 ADD PUSH2 0xEDF SWAP1 PUSH2 0x5F1A JUMP JUMPDEST PUSH1 0x40 MLOAD DUP1 SWAP2 SUB SWAP1 REVERT JUMPDEST PUSH1 0x1 PUSH1 0x10 PUSH1 0x0 PUSH2 0x100 EXP DUP2 SLOAD DUP2 PUSH1 0xFF MUL NOT AND SWAP1 DUP4 ISZERO ISZERO MUL OR SWAP1 SSTORE POP JUMP JUMPDEST PUSH1 0xA PUSH1 0x20 MSTORE DUP2 PUSH1 0x0 MSTORE PUSH1 0x40 PUSH1 0x0 KECCAK256 DUP2 DUP2 SLOAD DUP2 LT PUSH2 0xF1E JUMPI INVALID JUMPDEST SWAP1 PUSH1 0x0 MSTORE PUSH1 0x20 PUSH1 0x0 KECCAK256 ADD PUSH1 0x0 SWAP2 POP SWAP2 POP POP SLOAD DUP2 JUMP JUMPDEST PUSH2 0xF3B PUSH2 0x33FB JUMP JUMPDEST ISZERO PUSH2 0xF7B JUMPI PUSH1 0x40 MLOAD PUSH32 0x8C379A000000000000000000000000000000000000000000000000000000000 DUP2 MSTORE PUSH1 0x4 ADD PUSH2 0xF72 SWAP1 PUSH2 0x5E5A JUMP JUMPDEST PUSH1 0x40 MLOAD DUP1 SWAP2 SUB SWAP1 REVERT JUMPDEST PUSH1 0x10 PUSH1 0x0 SWAP1 SLOAD SWAP1 PUSH2 0x100 EXP SWAP1 DIV PUSH1 0xFF AND ISZERO PUSH2 0xFCB JUMPI PUSH1 0x40 MLOAD PUSH32 0x8C379A000000000000000000000000000000000000000000000000000000000 DUP2 MSTORE PUSH1 0x4 ADD PUSH2 0xFC2 SWAP1 PUSH2 0x5DFA JUMP JUMPDEST PUSH1 0x40 MLOAD DUP1 SWAP2 SUB SWAP1 REVERT JUMPDEST PUSH1 0x5 SLOAD DUP3 LT ISZERO PUSH2 0x1010 JUMPI PUSH1 0x40 MLOAD PUSH32 0x8C379A000000000000000000000000000000000000000000000000000000000 DUP2 MSTORE PUSH1 0x4 ADD PUSH2 0x1007 SWAP1 PUSH2 0x5E3A JUMP JUMPDEST PUSH1 0x40 MLOAD DUP1 SWAP2 SUB SWAP1 REVERT JUMPDEST PUSH1 0x0 DUP1 JUMPDEST DUP3 MLOAD DUP2 LT ISZERO PUSH2 0x13DE JUMPI PUSH1 0x0 JUMPDEST PUSH1 0x4 DUP2 LT ISZERO PUSH2 0x10E3 JUMPI PUSH1 0x4 PUSH1 0x14 SWAP1 SLOAD SWAP1 PUSH2 0x100 EXP SWAP1 DIV PUSH1 0xFF AND PUSH1 0xFF AND DUP5 DUP4 DUP2 MLOAD DUP2 LT PUSH2 0x1048 JUMPI INVALID JUMPDEST PUSH1 0x20 MUL PUSH1 0x20 ADD ADD MLOAD DUP3 PUSH1 0x4 DUP2 LT PUSH2 0x105B JUMPI INVALID JUMPDEST PUSH1 0x20 MUL ADD MLOAD PUSH1 0xFF AND GT ISZERO DUP1 ISZERO PUSH2 0x1097 JUMPI POP PUSH1 0x0 DUP5 DUP4 DUP2 MLOAD DUP2 LT PUSH2 0x107A JUMPI INVALID JUMPDEST PUSH1 0x20 MUL PUSH1 0x20 ADD ADD MLOAD DUP3 PUSH1 0x4 DUP2 LT PUSH2 0x108D JUMPI INVALID JUMPDEST PUSH1 0x20 MUL ADD MLOAD PUSH1 0xFF AND GT JUMPDEST PUSH2 0x10D6 JUMPI PUSH1 0x40 MLOAD PUSH32 0x8C379A000000000000000000000000000000000000000000000000000000000 DUP2 MSTORE PUSH1 0x4 ADD PUSH2 0x10CD SWAP1 PUSH2 0x5CFA JUMP JUMPDEST PUSH1 0x40 MLOAD DUP1 SWAP2 SUB SWAP1 REVERT JUMPDEST DUP1 DUP1 PUSH1 0x1 ADD SWAP2 POP POP PUSH2 0x1020 JUMP JUMPDEST POP PUSH1 0x0 PUSH1 0x3 PUSH1 0x0 SWAP1 SLOAD SWAP1 PUSH2 0x100 EXP SWAP1 DIV PUSH20 0xFFFFFFFFFFFFFFFFFFFFFFFFFFFFFFFFFFFFFFFF AND PUSH20 0xFFFFFFFFFFFFFFFFFFFFFFFFFFFFFFFFFFFFFFFF AND PUSH4 0x37391C00 CALLER DUP7 DUP6 DUP2 MLOAD DUP2 LT PUSH2 0x1131 JUMPI INVALID JUMPDEST PUSH1 0x20 MUL PUSH1 0x20 ADD ADD MLOAD DUP9 PUSH1 0xB SLOAD PUSH1 0x40 MLOAD DUP6 PUSH4 0xFFFFFFFF AND PUSH1 0xE0 SHL DUP2 MSTORE PUSH1 0x4 ADD PUSH2 0x115C SWAP5 SWAP4 SWAP3 SWAP2 SWAP1 PUSH2 0x5A88 JUMP JUMPDEST PUSH1 0x20 PUSH1 0x40 MLOAD DUP1 DUP4 SUB DUP2 PUSH1 0x0 DUP8 DUP1 EXTCODESIZE ISZERO DUP1 ISZERO PUSH2 0x1176 JUMPI PUSH1 0x0 DUP1 REVERT JUMPDEST POP GAS CALL ISZERO DUP1 ISZERO PUSH2 0x118A JUMPI RETURNDATASIZE PUSH1 0x0 DUP1 RETURNDATACOPY RETURNDATASIZE PUSH1 0x0 REVERT JUMPDEST POP POP POP POP PUSH1 0x40 MLOAD RETURNDATASIZE PUSH1 0x1F NOT PUSH1 0x1F DUP3 ADD AND DUP3 ADD DUP1 PUSH1 0x40 MSTORE POP DUP2 ADD SWAP1 PUSH2 0x11AE SWAP2 SWAP1 PUSH2 0x4894 JUMP JUMPDEST SWAP1 POP PUSH1 0x7 PUSH1 0x0 PUSH1 0xB SLOAD DUP2 MSTORE PUSH1 0x20 ADD SWAP1 DUP2 MSTORE PUSH1 0x20 ADD PUSH1 0x0 KECCAK256 DUP2 SWAP1 DUP1 PUSH1 0x1 DUP2 SLOAD ADD DUP1 DUP3 SSTORE DUP1 SWAP2 POP POP PUSH1 0x1 SWAP1 SUB SWAP1 PUSH1 0x0 MSTORE PUSH1 0x20 PUSH1 0x0 KECCAK256 ADD PUSH1 0x0 SWAP1 SWAP2 SWAP1 SWAP2 SWAP1 SWAP2 POP SSTORE PUSH1 0x0 PUSH1 0xA PUSH1 0x0 CALLER PUSH20 0xFFFFFFFFFFFFFFFFFFFFFFFFFFFFFFFFFFFFFFFF AND PUSH20 0xFFFFFFFFFFFFFFFFFFFFFFFFFFFFFFFFFFFFFFFF AND DUP2 MSTORE PUSH1 0x20 ADD SWAP1 DUP2 MSTORE PUSH1 0x20 ADD PUSH1 0x0 KECCAK256 DUP1 SLOAD SWAP1 POP EQ ISZERO PUSH2 0x1244 JUMPI PUSH1 0x1 PUSH1 0xC SLOAD ADD PUSH1 0xC DUP2 SWAP1 SSTORE POP JUMPDEST PUSH1 0xA PUSH1 0x0 CALLER PUSH20 0xFFFFFFFFFFFFFFFFFFFFFFFFFFFFFFFFFFFFFFFF AND PUSH20 0xFFFFFFFFFFFFFFFFFFFFFFFFFFFFFFFFFFFFFFFF AND DUP2 MSTORE PUSH1 0x20 ADD SWAP1 DUP2 MSTORE PUSH1 0x20 ADD PUSH1 0x0 KECCAK256 DUP2 SWAP1 DUP1 PUSH1 0x1 DUP2 SLOAD ADD DUP1 DUP3 SSTORE DUP1 SWAP2 POP POP PUSH1 0x1 SWAP1 SUB SWAP1 PUSH1 0x0 MSTORE PUSH1 0x20 PUSH1 0x0 KECCAK256 ADD PUSH1 0x0 SWAP1 SWAP2 SWAP1 SWAP2 SWAP1 SWAP2 POP SSTORE PUSH2 0x12BF DUP6 PUSH1 0xD SLOAD PUSH2 0x36D7 SWAP1 SWAP2 SWAP1 PUSH4 0xFFFFFFFF AND JUMP JUMPDEST PUSH1 0xD DUP2 SWAP1 SSTORE POP TIMESTAMP PUSH1 0xE DUP2 SWAP1 SSTORE POP PUSH2 0x12DF DUP6 DUP5 PUSH2 0x36D7 SWAP1 SWAP2 SWAP1 PUSH4 0xFFFFFFFF AND JUMP JUMPDEST SWAP3 POP PUSH2 0x12E9 PUSH2 0x4272 JUMP JUMPDEST PUSH2 0x1305 DUP6 DUP5 DUP2 MLOAD DUP2 LT PUSH2 0x12F8 JUMPI INVALID JUMPDEST PUSH1 0x20 MUL PUSH1 0x20 ADD ADD MLOAD PUSH2 0x1F43 JUMP JUMPDEST SWAP1 POP PUSH1 0x0 JUMPDEST PUSH1 0xB PUSH1 0xFF AND DUP2 LT ISZERO PUSH2 0x13CE JUMPI PUSH2 0x1373 DUP8 PUSH1 0x9 PUSH1 0x0 PUSH1 0xB SLOAD DUP2 MSTORE PUSH1 0x20 ADD SWAP1 DUP2 MSTORE PUSH1 0x20 ADD PUSH1 0x0 KECCAK256 PUSH1 0x0 DUP6 DUP6 PUSH1 0xB DUP2 LT PUSH2 0x133D JUMPI INVALID JUMPDEST PUSH1 0x20 MUL ADD MLOAD PUSH8 0xFFFFFFFFFFFFFFFF AND PUSH8 0xFFFFFFFFFFFFFFFF AND DUP2 MSTORE PUSH1 0x20 ADD SWAP1 DUP2 MSTORE PUSH1 0x20 ADD PUSH1 0x0 KECCAK256 SLOAD PUSH2 0x36D7 SWAP1 SWAP2 SWAP1 PUSH4 0xFFFFFFFF AND JUMP JUMPDEST PUSH1 0x9 PUSH1 0x0 PUSH1 0xB SLOAD DUP2 MSTORE PUSH1 0x20 ADD SWAP1 DUP2 MSTORE PUSH1 0x20 ADD PUSH1 0x0 KECCAK256 PUSH1 0x0 DUP5 DUP5 PUSH1 0xB DUP2 LT PUSH2 0x1396 JUMPI INVALID JUMPDEST PUSH1 0x20 MUL ADD MLOAD PUSH8 0xFFFFFFFFFFFFFFFF AND PUSH8 0xFFFFFFFFFFFFFFFF AND DUP2 MSTORE PUSH1 0x20 ADD SWAP1 DUP2 MSTORE PUSH1 0x20 ADD PUSH1 0x0 KECCAK256 DUP2 SWAP1 SSTORE POP DUP1 DUP1 PUSH1 0x1 ADD SWAP2 POP POP PUSH2 0x130A JUMP JUMPDEST POP POP POP DUP1 DUP1 PUSH1 0x1 ADD SWAP2 POP POP PUSH2 0x1014 JUMP JUMPDEST POP PUSH2 0x142E CALLER ADDRESS DUP4 PUSH1 0x2 PUSH1 0x0 SWAP1 SLOAD SWAP1 PUSH2 0x100 EXP SWAP1 DIV PUSH20 0xFFFFFFFFFFFFFFFFFFFFFFFFFFFFFFFFFFFFFFFF AND PUSH20 0xFFFFFFFFFFFFFFFFFFFFFFFFFFFFFFFFFFFFFFFF AND PUSH2 0x36E4 SWAP1 SWAP4 SWAP3 SWAP2 SWAP1 PUSH4 0xFFFFFFFF AND JUMP JUMPDEST CALLER PUSH20 0xFFFFFFFFFFFFFFFFFFFFFFFFFFFFFFFFFFFFFFFF AND PUSH32 0x96C35AD1CC1743F26CB87980C38042DE8082358EC6D171A7986D6E11DDDFE857 DUP3 PUSH1 0x40 MLOAD PUSH2 0x1474 SWAP2 SWAP1 PUSH2 0x5F3A JUMP JUMPDEST PUSH1 0x40 MLOAD DUP1 SWAP2 SUB SWAP1 LOG2 POP POP POP JUMP JUMPDEST PUSH1 0x9 PUSH1 0x20 MSTORE DUP2 PUSH1 0x0 MSTORE PUSH1 0x40 PUSH1 0x0 KECCAK256 PUSH1 0x20 MSTORE DUP1 PUSH1 0x0 MSTORE PUSH1 0x40 PUSH1 0x0 KECCAK256 PUSH1 0x0 SWAP2 POP SWAP2 POP POP SLOAD DUP2 JUMP JUMPDEST PUSH1 0x4 PUSH1 0x0 SWAP1 SLOAD SWAP1 PUSH2 0x100 EXP SWAP1 DIV PUSH20 0xFFFFFFFFFFFFFFFFFFFFFFFFFFFFFFFFFFFFFFFF AND PUSH20 0xFFFFFFFFFFFFFFFFFFFFFFFFFFFFFFFFFFFFFFFF AND CALLER PUSH20 0xFFFFFFFFFFFFFFFFFFFFFFFFFFFFFFFFFFFFFFFF AND EQ PUSH2 0x1536 JUMPI PUSH1 0x40 MLOAD PUSH32 0x8C379A000000000000000000000000000000000000000000000000000000000 DUP2 MSTORE PUSH1 0x4 ADD PUSH2 0x152D SWAP1 PUSH2 0x5E9A JUMP JUMPDEST PUSH1 0x40 MLOAD DUP1 SWAP2 SUB SWAP1 REVERT JUMPDEST DUP1 PUSH1 0x4 PUSH1 0x14 PUSH2 0x100 EXP DUP2 SLOAD DUP2 PUSH1 0xFF MUL NOT AND SWAP1 DUP4 PUSH1 0xFF AND MUL OR SWAP1 SSTORE POP POP JUMP JUMPDEST PUSH1 0x4 PUSH1 0x14 SWAP1 SLOAD SWAP1 PUSH2 0x100 EXP SWAP1 DIV PUSH1 0xFF AND DUP2 JUMP JUMPDEST PUSH1 0x10 PUSH1 0x0 SWAP1 SLOAD SWAP1 PUSH2 0x100 EXP SWAP1 DIV PUSH1 0xFF AND DUP2 JUMP JUMPDEST PUSH1 0xF DUP2 PUSH1 0x4 DUP2 LT PUSH2 0x1587 JUMPI INVALID JUMPDEST PUSH1 0x20 SWAP2 DUP3 DUP3 DIV ADD SWAP2 SWAP1 MOD SWAP2 POP SLOAD SWAP1 PUSH2 0x100 EXP SWAP1 DIV PUSH1 0xFF AND DUP2 JUMP JUMPDEST PUSH1 0x0 DUP1 JUMPDEST DUP3 MLOAD DUP2 LT ISZERO PUSH2 0x1824 JUMPI PUSH1 0x3 PUSH1 0x0 SWAP1 SLOAD SWAP1 PUSH2 0x100 EXP SWAP1 DIV PUSH20 0xFFFFFFFFFFFFFFFFFFFFFFFFFFFFFFFFFFFFFFFF AND PUSH20 0xFFFFFFFFFFFFFFFFFFFFFFFFFFFFFFFFFFFFFFFF AND PUSH4 0x6352211E DUP5 DUP4 DUP2 MLOAD DUP2 LT PUSH2 0x15F8 JUMPI INVALID JUMPDEST PUSH1 0x20 MUL PUSH1 0x20 ADD ADD MLOAD PUSH1 0x40 MLOAD DUP3 PUSH4 0xFFFFFFFF AND PUSH1 0xE0 SHL DUP2 MSTORE PUSH1 0x4 ADD PUSH2 0x161C SWAP2 SWAP1 PUSH2 0x5F3A JUMP JUMPDEST PUSH1 0x20 PUSH1 0x40 MLOAD DUP1 DUP4 SUB DUP2 DUP7 DUP1 EXTCODESIZE ISZERO DUP1 ISZERO PUSH2 0x1634 JUMPI PUSH1 0x0 DUP1 REVERT JUMPDEST POP GAS STATICCALL ISZERO DUP1 ISZERO PUSH2 0x1648 JUMPI RETURNDATASIZE PUSH1 0x0 DUP1 RETURNDATACOPY RETURNDATASIZE PUSH1 0x0 REVERT JUMPDEST POP POP POP POP PUSH1 0x40 MLOAD RETURNDATASIZE PUSH1 0x1F NOT PUSH1 0x1F DUP3 ADD AND DUP3 ADD DUP1 PUSH1 0x40 MSTORE POP DUP2 ADD SWAP1 PUSH2 0x166C SWAP2 SWAP1 PUSH2 0x46C1 JUMP JUMPDEST PUSH20 0xFFFFFFFFFFFFFFFFFFFFFFFFFFFFFFFFFFFFFFFF AND CALLER PUSH20 0xFFFFFFFFFFFFFFFFFFFFFFFFFFFFFFFFFFFFFFFF AND EQ PUSH2 0x16D9 JUMPI PUSH1 0x40 MLOAD PUSH32 0x8C379A000000000000000000000000000000000000000000000000000000000 DUP2 MSTORE PUSH1 0x4 ADD PUSH2 0x16D0 SWAP1 PUSH2 0x5D9A JUMP JUMPDEST PUSH1 0x40 MLOAD DUP1 SWAP2 SUB SWAP1 REVERT JUMPDEST PUSH1 0x3 PUSH1 0x0 SWAP1 SLOAD SWAP1 PUSH2 0x100 EXP SWAP1 DIV PUSH20 0xFFFFFFFFFFFFFFFFFFFFFFFFFFFFFFFFFFFFFFFF AND PUSH20 0xFFFFFFFFFFFFFFFFFFFFFFFFFFFFFFFFFFFFFFFF AND PUSH4 0x36DBD2F9 DUP5 DUP4 DUP2 MLOAD DUP2 LT PUSH2 0x1723 JUMPI INVALID JUMPDEST PUSH1 0x20 MUL PUSH1 0x20 ADD ADD MLOAD PUSH1 0x40 MLOAD DUP3 PUSH4 0xFFFFFFFF AND PUSH1 0xE0 SHL DUP2 MSTORE PUSH1 0x4 ADD PUSH2 0x1747 SWAP2 SWAP1 PUSH2 0x5F3A JUMP JUMPDEST PUSH1 0x20 PUSH1 0x40 MLOAD DUP1 DUP4 SUB DUP2 DUP7 DUP1 EXTCODESIZE ISZERO DUP1 ISZERO PUSH2 0x175F JUMPI PUSH1 0x0 DUP1 REVERT JUMPDEST POP GAS STATICCALL ISZERO DUP1 ISZERO PUSH2 0x1773 JUMPI RETURNDATASIZE PUSH1 0x0 DUP1 RETURNDATACOPY RETURNDATASIZE PUSH1 0x0 REVERT JUMPDEST POP POP POP POP PUSH1 0x40 MLOAD RETURNDATASIZE PUSH1 0x1F NOT PUSH1 0x1F DUP3 ADD AND DUP3 ADD DUP1 PUSH1 0x40 MSTORE POP DUP2 ADD SWAP1 PUSH2 0x1797 SWAP2 SWAP1 PUSH2 0x47B9 JUMP JUMPDEST ISZERO PUSH2 0x17D7 JUMPI PUSH1 0x40 MLOAD PUSH32 0x8C379A000000000000000000000000000000000000000000000000000000000 DUP2 MSTORE PUSH1 0x4 ADD PUSH2 0x17CE SWAP1 PUSH2 0x5DDA JUMP JUMPDEST PUSH1 0x40 MLOAD DUP1 SWAP2 SUB SWAP1 REVERT JUMPDEST PUSH1 0x0 PUSH2 0x17F5 DUP5 DUP4 DUP2 MLOAD DUP2 LT PUSH2 0x17E8 JUMPI INVALID JUMPDEST PUSH1 0x20 MUL PUSH1 0x20 ADD ADD MLOAD PUSH2 0x2D03 JUMP JUMPDEST SWAP1 POP PUSH1 0x0 DUP2 GT ISZERO PUSH2 0x1816 JUMPI PUSH2 0x1813 DUP4 DUP3 PUSH2 0x36D7 SWAP1 SWAP2 SWAP1 PUSH4 0xFFFFFFFF AND JUMP JUMPDEST SWAP3 POP JUMPDEST POP DUP1 DUP1 PUSH1 0x1 ADD SWAP2 POP POP PUSH2 0x15A5 JUMP JUMPDEST POP PUSH1 0x3 PUSH1 0x0 SWAP1 SLOAD SWAP1 PUSH2 0x100 EXP SWAP1 DIV PUSH20 0xFFFFFFFFFFFFFFFFFFFFFFFFFFFFFFFFFFFFFFFF AND PUSH20 0xFFFFFFFFFFFFFFFFFFFFFFFFFFFFFFFFFFFFFFFF AND PUSH4 0x74310355 DUP4 PUSH1 0x40 MLOAD DUP3 PUSH4 0xFFFFFFFF AND PUSH1 0xE0 SHL DUP2 MSTORE PUSH1 0x4 ADD PUSH2 0x1880 SWAP2 SWAP1 PUSH2 0x5B72 JUMP JUMPDEST PUSH1 0x0 PUSH1 0x40 MLOAD DUP1 DUP4 SUB DUP2 PUSH1 0x0 DUP8 DUP1 EXTCODESIZE ISZERO DUP1 ISZERO PUSH2 0x189A JUMPI PUSH1 0x0 DUP1 REVERT JUMPDEST POP GAS CALL ISZERO DUP1 ISZERO PUSH2 0x18AE JUMPI RETURNDATASIZE PUSH1 0x0 DUP1 RETURNDATACOPY RETURNDATASIZE PUSH1 0x0 REVERT JUMPDEST POP POP POP POP PUSH1 0x0 DUP2 GT ISZERO PUSH2 0x1909 JUMPI PUSH2 0x1908 CALLER DUP3 PUSH1 0x2 PUSH1 0x0 SWAP1 SLOAD SWAP1 PUSH2 0x100 EXP SWAP1 DIV PUSH20 0xFFFFFFFFFFFFFFFFFFFFFFFFFFFFFFFFFFFFFFFF AND PUSH20 0xFFFFFFFFFFFFFFFFFFFFFFFFFFFFFFFFFFFFFFFF AND PUSH2 0x376D SWAP1 SWAP3 SWAP2 SWAP1 PUSH4 0xFFFFFFFF AND JUMP JUMPDEST JUMPDEST CALLER PUSH20 0xFFFFFFFFFFFFFFFFFFFFFFFFFFFFFFFFFFFFFFFF AND PUSH32 0x6606374655494F5C0E2D6F392656E9777AFD9AC5F61527D1BCAD50B7E918A03E DUP3 PUSH1 0x40 MLOAD PUSH2 0x194F SWAP2 SWAP1 PUSH2 0x5F3A JUMP JUMPDEST PUSH1 0x40 MLOAD DUP1 SWAP2 SUB SWAP1 LOG2 POP POP JUMP JUMPDEST PUSH1 0x0 PUSH1 0xB SLOAD DUP3 GT ISZERO PUSH2 0x19A2 JUMPI PUSH1 0x40 MLOAD PUSH32 0x8C379A000000000000000000000000000000000000000000000000000000000 DUP2 MSTORE PUSH1 0x4 ADD PUSH2 0x1999 SWAP1 PUSH2 0x5D1A JUMP JUMPDEST PUSH1 0x40 MLOAD DUP1 SWAP2 SUB SWAP1 REVERT JUMPDEST PUSH2 0x19AA PUSH2 0x33FB JUMP JUMPDEST ISZERO DUP1 ISZERO PUSH2 0x19B8 JUMPI POP PUSH1 0xB SLOAD DUP3 EQ JUMPDEST ISZERO PUSH2 0x19C7 JUMPI PUSH1 0xD SLOAD SWAP1 POP PUSH2 0x19F4 JUMP JUMPDEST PUSH1 0x8 PUSH1 0x0 DUP4 DUP2 MSTORE PUSH1 0x20 ADD SWAP1 DUP2 MSTORE PUSH1 0x20 ADD PUSH1 0x0 KECCAK256 PUSH1 0x0 DUP2 SLOAD DUP2 LT PUSH2 0x19E6 JUMPI INVALID JUMPDEST SWAP1 PUSH1 0x0 MSTORE PUSH1 0x20 PUSH1 0x0 KECCAK256 ADD SLOAD SWAP1 POP JUMPDEST SWAP2 SWAP1 POP JUMP JUMPDEST PUSH1 0x6 PUSH1 0x20 MSTORE DUP2 PUSH1 0x0 MSTORE PUSH1 0x40 PUSH1 0x0 KECCAK256 DUP2 PUSH1 0x4 DUP2 LT PUSH2 0x1A12 JUMPI INVALID JUMPDEST PUSH1 0x20 SWAP2 DUP3 DUP3 DIV ADD SWAP2 SWAP1 MOD SWAP2 POP SWAP2 POP SWAP1 SLOAD SWAP1 PUSH2 0x100 EXP SWAP1 DIV PUSH1 0xFF AND DUP2 JUMP JUMPDEST PUSH1 0x4 PUSH1 0x0 SWAP1 SLOAD SWAP1 PUSH2 0x100 EXP SWAP1 DIV PUSH20 0xFFFFFFFFFFFFFFFFFFFFFFFFFFFFFFFFFFFFFFFF AND PUSH20 0xFFFFFFFFFFFFFFFFFFFFFFFFFFFFFFFFFFFFFFFF AND CALLER PUSH20 0xFFFFFFFFFFFFFFFFFFFFFFFFFFFFFFFFFFFFFFFF AND EQ PUSH2 0x1ABF JUMPI PUSH1 0x40 MLOAD PUSH32 0x8C379A000000000000000000000000000000000000000000000000000000000 DUP2 MSTORE PUSH1 0x4 ADD PUSH2 0x1AB6 SWAP1 PUSH2 0x5E9A JUMP JUMPDEST PUSH1 0x40 MLOAD DUP1 SWAP2 SUB SWAP1 REVERT JUMPDEST PUSH1 0x40 MLOAD DUP1 PUSH1 0x60 ADD PUSH1 0x40 MSTORE DUP1 DUP5 PUSH1 0xFF AND PUSH1 0xFF AND DUP2 MSTORE PUSH1 0x20 ADD DUP4 PUSH1 0xFF AND PUSH1 0xFF AND DUP2 MSTORE PUSH1 0x20 ADD DUP3 PUSH1 0xFF AND PUSH1 0xFF AND DUP2 MSTORE POP PUSH1 0x1 SWAP1 PUSH1 0x3 PUSH2 0x1AFC SWAP3 SWAP2 SWAP1 PUSH2 0x41D8 JUMP JUMPDEST POP POP POP POP JUMP JUMPDEST PUSH1 0x4 PUSH1 0x0 SWAP1 SLOAD SWAP1 PUSH2 0x100 EXP SWAP1 DIV PUSH20 0xFFFFFFFFFFFFFFFFFFFFFFFFFFFFFFFFFFFFFFFF AND PUSH20 0xFFFFFFFFFFFFFFFFFFFFFFFFFFFFFFFFFFFFFFFF AND CALLER PUSH20 0xFFFFFFFFFFFFFFFFFFFFFFFFFFFFFFFFFFFFFFFF AND EQ PUSH2 0x1B92 JUMPI PUSH1 0x40 MLOAD PUSH32 0x8C379A000000000000000000000000000000000000000000000000000000000 DUP2 MSTORE PUSH1 0x4 ADD PUSH2 0x1B89 SWAP1 PUSH2 0x5E9A JUMP JUMPDEST PUSH1 0x40 MLOAD DUP1 SWAP2 SUB SWAP1 REVERT JUMPDEST DUP1 PUSH1 0x5 DUP2 SWAP1 SSTORE POP POP JUMP JUMPDEST PUSH1 0x7 PUSH1 0x20 MSTORE DUP2 PUSH1 0x0 MSTORE PUSH1 0x40 PUSH1 0x0 KECCAK256 DUP2 DUP2 SLOAD DUP2 LT PUSH2 0x1BB5 JUMPI INVALID JUMPDEST SWAP1 PUSH1 0x0 MSTORE PUSH1 0x20 PUSH1 0x0 KECCAK256 ADD PUSH1 0x0 SWAP2 POP SWAP2 POP POP SLOAD DUP2 JUMP JUMPDEST PUSH1 0xB SLOAD DUP2 JUMP JUMPDEST CALLER PUSH20 0xFFFFFFFFFFFFFFFFFFFFFFFFFFFFFFFFFFFFFFFF AND PUSH1 0x0 DUP1 SLOAD SWAP1 PUSH2 0x100 EXP SWAP1 DIV PUSH20 0xFFFFFFFFFFFFFFFFFFFFFFFFFFFFFFFFFFFFFFFF AND PUSH20 0xFFFFFFFFFFFFFFFFFFFFFFFFFFFFFFFFFFFFFFFF AND EQ PUSH2 0x1C5E JUMPI PUSH1 0x40 MLOAD PUSH32 0x8C379A000000000000000000000000000000000000000000000000000000000 DUP2 MSTORE PUSH1 0x4 ADD PUSH2 0x1C55 SWAP1 PUSH2 0x5E7A JUMP JUMPDEST PUSH1 0x40 MLOAD DUP1 SWAP2 SUB SWAP1 REVERT JUMPDEST DUP1 PUSH1 0x4 PUSH1 0x0 PUSH2 0x100 EXP DUP2 SLOAD DUP2 PUSH20 0xFFFFFFFFFFFFFFFFFFFFFFFFFFFFFFFFFFFFFFFF MUL NOT AND SWAP1 DUP4 PUSH20 0xFFFFFFFFFFFFFFFFFFFFFFFFFFFFFFFFFFFFFFFF AND MUL OR SWAP1 SSTORE POP POP JUMP JUMPDEST CALLER PUSH20 0xFFFFFFFFFFFFFFFFFFFFFFFFFFFFFFFFFFFFFFFF AND PUSH1 0x0 DUP1 SLOAD SWAP1 PUSH2 0x100 EXP SWAP1 DIV PUSH20 0xFFFFFFFFFFFFFFFFFFFFFFFFFFFFFFFFFFFFFFFF AND PUSH20 0xFFFFFFFFFFFFFFFFFFFFFFFFFFFFFFFFFFFFFFFF AND EQ PUSH2 0x1D30 JUMPI PUSH1 0x40 MLOAD PUSH32 0x8C379A000000000000000000000000000000000000000000000000000000000 DUP2 MSTORE PUSH1 0x4 ADD PUSH2 0x1D27 SWAP1 PUSH2 0x5E7A JUMP JUMPDEST PUSH1 0x40 MLOAD DUP1 SWAP2 SUB SWAP1 REVERT JUMPDEST PUSH1 0x0 PUSH20 0xFFFFFFFFFFFFFFFFFFFFFFFFFFFFFFFFFFFFFFFF AND PUSH1 0x0 DUP1 SLOAD SWAP1 PUSH2 0x100 EXP SWAP1 DIV PUSH20 0xFFFFFFFFFFFFFFFFFFFFFFFFFFFFFFFFFFFFFFFF AND PUSH20 0xFFFFFFFFFFFFFFFFFFFFFFFFFFFFFFFFFFFFFFFF AND PUSH32 0x8BE0079C531659141344CD1FD0A4F28419497F9722A3DAAFE3B4186F6B6457E0 PUSH1 0x40 MLOAD PUSH1 0x40 MLOAD DUP1 SWAP2 SUB SWAP1 LOG3 PUSH1 0x0 DUP1 PUSH1 0x0 PUSH2 0x100 EXP DUP2 SLOAD DUP2 PUSH20 0xFFFFFFFFFFFFFFFFFFFFFFFFFFFFFFFFFFFFFFFF MUL NOT AND SWAP1 DUP4 PUSH20 0xFFFFFFFFFFFFFFFFFFFFFFFFFFFFFFFFFFFFFFFF AND MUL OR SWAP1 SSTORE POP JUMP JUMPDEST PUSH1 0x4 PUSH1 0x0 SWAP1 SLOAD SWAP1 PUSH2 0x100 EXP SWAP1 DIV PUSH20 0xFFFFFFFFFFFFFFFFFFFFFFFFFFFFFFFFFFFFFFFF AND PUSH20 0xFFFFFFFFFFFFFFFFFFFFFFFFFFFFFFFFFFFFFFFF AND CALLER PUSH20 0xFFFFFFFFFFFFFFFFFFFFFFFFFFFFFFFFFFFFFFFF AND EQ PUSH2 0x1E7E JUMPI PUSH1 0x40 MLOAD PUSH32 0x8C379A000000000000000000000000000000000000000000000000000000000 DUP2 MSTORE PUSH1 0x4 ADD PUSH2 0x1E75 SWAP1 PUSH2 0x5E9A JUMP JUMPDEST PUSH1 0x40 MLOAD DUP1 SWAP2 SUB SWAP1 REVERT JUMPDEST PUSH2 0x1ECB CALLER DUP3 PUSH1 0x2 PUSH1 0x0 SWAP1 SLOAD SWAP1 PUSH2 0x100 EXP SWAP1 DIV PUSH20 0xFFFFFFFFFFFFFFFFFFFFFFFFFFFFFFFFFFFFFFFF AND PUSH20 0xFFFFFFFFFFFFFFFFFFFFFFFFFFFFFFFFFFFFFFFF AND PUSH2 0x376D SWAP1 SWAP3 SWAP2 SWAP1 PUSH4 0xFFFFFFFF AND JUMP JUMPDEST CALLER PUSH20 0xFFFFFFFFFFFFFFFFFFFFFFFFFFFFFFFFFFFFFFFF AND PUSH32 0x50D1C64CC22CE461B9BC14F6B73852566DA02B03C155242BC63169D1FEC42AA DUP3 PUSH1 0x40 MLOAD PUSH2 0x1F11 SWAP2 SWAP1 PUSH2 0x5F3A JUMP JUMPDEST PUSH1 0x40 MLOAD DUP1 SWAP2 SUB SWAP1 LOG2 POP JUMP JUMPDEST PUSH1 0x1 DUP2 PUSH1 0x3 DUP2 LT PUSH2 0x1F29 JUMPI INVALID JUMPDEST PUSH1 0x20 SWAP2 DUP3 DUP3 DIV ADD SWAP2 SWAP1 MOD SWAP2 POP SLOAD SWAP1 PUSH2 0x100 EXP SWAP1 DIV PUSH1 0xFF AND DUP2 JUMP JUMPDEST PUSH2 0x1F4B PUSH2 0x4272 JUMP JUMPDEST PUSH2 0x1F53 PUSH2 0x4295 JUMP JUMPDEST DUP3 PUSH1 0x0 PUSH1 0x4 DUP2 LT PUSH2 0x1F60 JUMPI INVALID JUMPDEST PUSH1 0x20 MUL ADD MLOAD PUSH1 0xFF AND DUP2 PUSH1 0x0 PUSH1 0x4 DUP2 LT PUSH2 0x1F75 JUMPI INVALID JUMPDEST PUSH1 0x20 MUL ADD SWAP1 PUSH8 0xFFFFFFFFFFFFFFFF AND SWAP1 DUP2 PUSH8 0xFFFFFFFFFFFFFFFF AND DUP2 MSTORE POP POP DUP3 PUSH1 0x1 PUSH1 0x4 DUP2 LT PUSH2 0x1FA1 JUMPI INVALID JUMPDEST PUSH1 0x20 MUL ADD MLOAD PUSH1 0xFF AND DUP2 PUSH1 0x1 PUSH1 0x4 DUP2 LT PUSH2 0x1FB6 JUMPI INVALID JUMPDEST PUSH1 0x20 MUL ADD SWAP1 PUSH8 0xFFFFFFFFFFFFFFFF AND SWAP1 DUP2 PUSH8 0xFFFFFFFFFFFFFFFF AND DUP2 MSTORE POP POP DUP3 PUSH1 0x2 PUSH1 0x4 DUP2 LT PUSH2 0x1FE2 JUMPI INVALID JUMPDEST PUSH1 0x20 MUL ADD MLOAD PUSH1 0xFF AND DUP2 PUSH1 0x2 PUSH1 0x4 DUP2 LT PUSH2 0x1FF7 JUMPI INVALID JUMPDEST PUSH1 0x20 MUL ADD SWAP1 PUSH8 0xFFFFFFFFFFFFFFFF AND SWAP1 DUP2 PUSH8 0xFFFFFFFFFFFFFFFF AND DUP2 MSTORE POP POP DUP3 PUSH1 0x3 PUSH1 0x4 DUP2 LT PUSH2 0x2023 JUMPI INVALID JUMPDEST PUSH1 0x20 MUL ADD MLOAD PUSH1 0xFF AND DUP2 PUSH1 0x3 PUSH1 0x4 DUP2 LT PUSH2 0x2038 JUMPI INVALID JUMPDEST PUSH1 0x20 MUL ADD SWAP1 PUSH8 0xFFFFFFFFFFFFFFFF AND SWAP1 DUP2 PUSH8 0xFFFFFFFFFFFFFFFF AND DUP2 MSTORE POP POP PUSH2 0x205F PUSH2 0x4272 JUMP JUMPDEST DUP2 PUSH1 0x3 PUSH1 0x4 DUP2 LT PUSH2 0x206C JUMPI INVALID JUMPDEST PUSH1 0x20 MUL ADD MLOAD PUSH2 0x300 PUSH2 0x100 DUP1 DUP6 PUSH1 0x2 PUSH1 0x4 DUP2 LT PUSH2 0x2085 JUMPI INVALID JUMPDEST PUSH1 0x20 MUL ADD MLOAD MUL MUL PUSH4 0x2000000 PUSH2 0x100 DUP1 PUSH2 0x100 DUP1 DUP10 PUSH1 0x1 PUSH1 0x4 DUP2 LT PUSH2 0x20A6 JUMPI INVALID JUMPDEST PUSH1 0x20 MUL ADD MLOAD MUL MUL MUL MUL PUSH6 0x10000000000 PUSH2 0x100 DUP1 PUSH2 0x100 DUP1 PUSH2 0x100 DUP1 DUP14 PUSH1 0x0 PUSH1 0x4 DUP2 LT PUSH2 0x20CF JUMPI INVALID JUMPDEST PUSH1 0x20 MUL ADD MLOAD MUL MUL MUL MUL MUL MUL ADD ADD ADD ADD ADD ADD DUP2 PUSH1 0x0 PUSH1 0xB DUP2 LT PUSH2 0x20ED JUMPI INVALID JUMPDEST PUSH1 0x20 MUL ADD SWAP1 PUSH8 0xFFFFFFFFFFFFFFFF AND SWAP1 DUP2 PUSH8 0xFFFFFFFFFFFFFFFF AND DUP2 MSTORE POP POP DUP2 PUSH1 0x2 PUSH1 0x4 DUP2 LT PUSH2 0x2119 JUMPI INVALID JUMPDEST PUSH1 0x20 MUL ADD MLOAD PUSH2 0x200 PUSH2 0x100 DUP1 DUP6 PUSH1 0x1 PUSH1 0x4 DUP2 LT PUSH2 0x2132 JUMPI INVALID JUMPDEST PUSH1 0x20 MUL ADD MLOAD MUL MUL PUSH4 0x1000000 PUSH2 0x100 DUP1 PUSH2 0x100 DUP1 DUP10 PUSH1 0x0 PUSH1 0x4 DUP2 LT PUSH2 0x2153 JUMPI INVALID JUMPDEST PUSH1 0x20 MUL ADD MLOAD MUL MUL MUL MUL ADD ADD ADD ADD DUP2 PUSH1 0x1 PUSH1 0xB DUP2 LT PUSH2 0x216D JUMPI INVALID JUMPDEST PUSH1 0x20 MUL ADD SWAP1 PUSH8 0xFFFFFFFFFFFFFFFF AND SWAP1 DUP2 PUSH8 0xFFFFFFFFFFFFFFFF AND DUP2 MSTORE POP POP DUP2 PUSH1 0x3 PUSH1 0x4 DUP2 LT PUSH2 0x2199 JUMPI INVALID JUMPDEST PUSH1 0x20 MUL ADD MLOAD PUSH2 0x300 PUSH2 0x100 DUP1 DUP6 PUSH1 0x1 PUSH1 0x4 DUP2 LT PUSH2 0x21B2 JUMPI INVALID JUMPDEST PUSH1 0x20 MUL ADD MLOAD MUL MUL PUSH4 0x1000000 PUSH2 0x100 DUP1 PUSH2 0x100 DUP1 DUP10 PUSH1 0x0 PUSH1 0x4 DUP2 LT PUSH2 0x21D3 JUMPI INVALID JUMPDEST PUSH1 0x20 MUL ADD MLOAD MUL MUL MUL MUL ADD ADD ADD ADD DUP2 PUSH1 0x2 PUSH1 0xB DUP2 LT PUSH2 0x21ED JUMPI INVALID JUMPDEST PUSH1 0x20 MUL ADD SWAP1 PUSH8 0xFFFFFFFFFFFFFFFF AND SWAP1 DUP2 PUSH8 0xFFFFFFFFFFFFFFFF AND DUP2 MSTORE POP POP DUP2 PUSH1 0x3 PUSH1 0x4 DUP2 LT PUSH2 0x2219 JUMPI INVALID JUMPDEST PUSH1 0x20 MUL ADD MLOAD PUSH2 0x300 PUSH2 0x100 DUP1 DUP6 PUSH1 0x2 PUSH1 0x4 DUP2 LT PUSH2 0x2232 JUMPI INVALID JUMPDEST PUSH1 0x20 MUL ADD MLOAD MUL MUL PUSH4 0x2000000 PUSH2 0x100 DUP1 PUSH2 0x100 DUP1 DUP10 PUSH1 0x0 PUSH1 0x4 DUP2 LT PUSH2 0x2253 JUMPI INVALID JUMPDEST PUSH1 0x20 MUL ADD MLOAD MUL MUL MUL MUL ADD ADD ADD ADD DUP2 PUSH1 0x3 PUSH1 0xB DUP2 LT PUSH2 0x226D JUMPI INVALID JUMPDEST PUSH1 0x20 MUL ADD SWAP1 PUSH8 0xFFFFFFFFFFFFFFFF AND SWAP1 DUP2 PUSH8 0xFFFFFFFFFFFFFFFF AND DUP2 MSTORE POP POP DUP2 PUSH1 0x3 PUSH1 0x4 DUP2 LT PUSH2 0x2299 JUMPI INVALID JUMPDEST PUSH1 0x20 MUL ADD MLOAD PUSH2 0x300 PUSH2 0x100 DUP1 DUP6 PUSH1 0x2 PUSH1 0x4 DUP2 LT PUSH2 0x22B2 JUMPI INVALID JUMPDEST PUSH1 0x20 MUL ADD MLOAD MUL MUL PUSH4 0x2000000 PUSH2 0x100 DUP1 PUSH2 0x100 DUP1 DUP10 PUSH1 0x1 PUSH1 0x4 DUP2 LT PUSH2 0x22D3 JUMPI INVALID JUMPDEST PUSH1 0x20 MUL ADD MLOAD MUL MUL MUL MUL PUSH6 0x10000000000 ADD ADD ADD ADD ADD DUP2 PUSH1 0x4 PUSH1 0xB DUP2 LT PUSH2 0x22F5 JUMPI INVALID JUMPDEST PUSH1 0x20 MUL ADD SWAP1 PUSH8 0xFFFFFFFFFFFFFFFF AND SWAP1 DUP2 PUSH8 0xFFFFFFFFFFFFFFFF AND DUP2 MSTORE POP POP DUP2 PUSH1 0x1 PUSH1 0x4 DUP2 LT PUSH2 0x2321 JUMPI INVALID JUMPDEST PUSH1 0x20 MUL ADD MLOAD PUSH2 0x100 DUP1 PUSH2 0x100 DUP6 PUSH1 0x0 PUSH1 0x4 DUP2 LT PUSH2 0x233A JUMPI INVALID JUMPDEST PUSH1 0x20 MUL ADD MLOAD MUL MUL ADD ADD DUP2 PUSH1 0x5 PUSH1 0xB DUP2 LT PUSH2 0x2350 JUMPI INVALID JUMPDEST PUSH1 0x20 MUL ADD SWAP1 PUSH8 0xFFFFFFFFFFFFFFFF AND SWAP1 DUP2 PUSH8 0xFFFFFFFFFFFFFFFF AND DUP2 MSTORE POP POP DUP2 PUSH1 0x2 PUSH1 0x4 DUP2 LT PUSH2 0x237C JUMPI INVALID JUMPDEST PUSH1 0x20 MUL ADD MLOAD PUSH2 0x200 PUSH2 0x100 DUP1 DUP6 PUSH1 0x0 PUSH1 0x4 DUP2 LT PUSH2 0x2395 JUMPI INVALID JUMPDEST PUSH1 0x20 MUL ADD MLOAD MUL MUL ADD ADD DUP2 PUSH1 0x6 PUSH1 0xB DUP2 LT PUSH2 0x23AB JUMPI INVALID JUMPDEST PUSH1 0x20 MUL ADD SWAP1 PUSH8 0xFFFFFFFFFFFFFFFF AND SWAP1 DUP2 PUSH8 0xFFFFFFFFFFFFFFFF AND DUP2 MSTORE POP POP DUP2 PUSH1 0x3 PUSH1 0x4 DUP2 LT PUSH2 0x23D7 JUMPI INVALID JUMPDEST PUSH1 0x20 MUL ADD MLOAD PUSH2 0x300 PUSH2 0x100 DUP1 DUP6 PUSH1 0x0 PUSH1 0x4 DUP2 LT PUSH2 0x23F0 JUMPI INVALID JUMPDEST PUSH1 0x20 MUL ADD MLOAD MUL MUL ADD ADD DUP2 PUSH1 0x7 PUSH1 0xB DUP2 LT PUSH2 0x2406 JUMPI INVALID JUMPDEST PUSH1 0x20 MUL ADD SWAP1 PUSH8 0xFFFFFFFFFFFFFFFF AND SWAP1 DUP2 PUSH8 0xFFFFFFFFFFFFFFFF AND DUP2 MSTORE POP POP DUP2 PUSH1 0x2 PUSH1 0x4 DUP2 LT PUSH2 0x2432 JUMPI INVALID JUMPDEST PUSH1 0x20 MUL ADD MLOAD PUSH2 0x200 PUSH2 0x100 DUP1 DUP6 PUSH1 0x1 PUSH1 0x4 DUP2 LT PUSH2 0x244B JUMPI INVALID JUMPDEST PUSH1 0x20 MUL ADD MLOAD MUL MUL PUSH4 0x1000000 ADD ADD ADD DUP2 PUSH1 0x8 PUSH1 0xB DUP2 LT PUSH2 0x2467 JUMPI INVALID JUMPDEST PUSH1 0x20 MUL ADD SWAP1 PUSH8 0xFFFFFFFFFFFFFFFF AND SWAP1 DUP2 PUSH8 0xFFFFFFFFFFFFFFFF AND DUP2 MSTORE POP POP DUP2 PUSH1 0x3 PUSH1 0x4 DUP2 LT PUSH2 0x2493 JUMPI INVALID JUMPDEST PUSH1 0x20 MUL ADD MLOAD PUSH2 0x300 PUSH2 0x100 DUP1 DUP6 PUSH1 0x1 PUSH1 0x4 DUP2 LT PUSH2 0x24AC JUMPI INVALID JUMPDEST PUSH1 0x20 MUL ADD MLOAD MUL MUL PUSH4 0x1000000 ADD ADD ADD DUP2 PUSH1 0x9 PUSH1 0xB DUP2 LT PUSH2 0x24C8 JUMPI INVALID JUMPDEST PUSH1 0x20 MUL ADD SWAP1 PUSH8 0xFFFFFFFFFFFFFFFF AND SWAP1 DUP2 PUSH8 0xFFFFFFFFFFFFFFFF AND DUP2 MSTORE POP POP DUP2 PUSH1 0x3 PUSH1 0x4 DUP2 LT PUSH2 0x24F4 JUMPI INVALID JUMPDEST PUSH1 0x20 MUL ADD MLOAD PUSH2 0x300 PUSH2 0x100 DUP1 DUP6 PUSH1 0x2 PUSH1 0x4 DUP2 LT PUSH2 0x250D JUMPI INVALID JUMPDEST PUSH1 0x20 MUL ADD MLOAD MUL MUL PUSH4 0x2000000 ADD ADD ADD DUP2 PUSH1 0xA PUSH1 0xB DUP2 LT PUSH2 0x2529 JUMPI INVALID JUMPDEST PUSH1 0x20 MUL ADD SWAP1 PUSH8 0xFFFFFFFFFFFFFFFF AND SWAP1 DUP2 PUSH8 0xFFFFFFFFFFFFFFFF AND DUP2 MSTORE POP POP DUP1 SWAP3 POP POP POP SWAP2 SWAP1 POP JUMP JUMPDEST PUSH1 0x0 DUP1 PUSH1 0x0 SWAP1 SLOAD SWAP1 PUSH2 0x100 EXP SWAP1 DIV PUSH20 0xFFFFFFFFFFFFFFFFFFFFFFFFFFFFFFFFFFFFFFFF AND SWAP1 POP SWAP1 JUMP JUMPDEST PUSH1 0x4 PUSH1 0x0 SWAP1 SLOAD SWAP1 PUSH2 0x100 EXP SWAP1 DIV PUSH20 0xFFFFFFFFFFFFFFFFFFFFFFFFFFFFFFFFFFFFFFFF AND PUSH20 0xFFFFFFFFFFFFFFFFFFFFFFFFFFFFFFFFFFFFFFFF AND CALLER PUSH20 0xFFFFFFFFFFFFFFFFFFFFFFFFFFFFFFFFFFFFFFFF AND EQ PUSH2 0x260B JUMPI PUSH1 0x40 MLOAD PUSH32 0x8C379A000000000000000000000000000000000000000000000000000000000 DUP2 MSTORE PUSH1 0x4 ADD PUSH2 0x2602 SWAP1 PUSH2 0x5E9A JUMP JUMPDEST PUSH1 0x40 MLOAD DUP1 SWAP2 SUB SWAP1 REVERT JUMPDEST PUSH2 0x2613 PUSH2 0x33FB JUMP JUMPDEST ISZERO PUSH2 0x2653 JUMPI PUSH1 0x40 MLOAD PUSH32 0x8C379A000000000000000000000000000000000000000000000000000000000 DUP2 MSTORE PUSH1 0x4 ADD PUSH2 0x264A SWAP1 PUSH2 0x5CBA JUMP JUMPDEST PUSH1 0x40 MLOAD DUP1 SWAP2 SUB SWAP1 REVERT JUMPDEST PUSH1 0x10 PUSH1 0x0 SWAP1 SLOAD SWAP1 PUSH2 0x100 EXP SWAP1 DIV PUSH1 0xFF AND PUSH2 0x26A2 JUMPI PUSH1 0x40 MLOAD PUSH32 0x8C379A000000000000000000000000000000000000000000000000000000000 DUP2 MSTORE PUSH1 0x4 ADD PUSH2 0x2699 SWAP1 PUSH2 0x5DBA JUMP JUMPDEST PUSH1 0x40 MLOAD DUP1 SWAP2 SUB SWAP1 REVERT JUMPDEST PUSH1 0x0 DUP1 PUSH1 0x0 PUSH1 0x4 PUSH1 0x14 SWAP1 SLOAD SWAP1 PUSH2 0x100 EXP SWAP1 DIV PUSH1 0xFF AND SWAP1 POP PUSH1 0x0 PUSH1 0x1 NUMBER SUB BLOCKHASH SWAP1 POP PUSH1 0x0 JUMPDEST PUSH1 0xA DUP2 LT ISZERO PUSH2 0x26E7 JUMPI PUSH2 0x26D9 PUSH1 0xB SLOAD PUSH2 0x195B JUMP JUMPDEST POP DUP1 DUP1 PUSH1 0x1 ADD SWAP2 POP POP PUSH2 0x26C5 JUMP JUMPDEST POP PUSH1 0x0 GAS SWAP1 POP DUP2 PUSH1 0xC SLOAD DUP3 DUP9 PUSH1 0x40 MLOAD PUSH1 0x20 ADD PUSH2 0x2706 SWAP5 SWAP4 SWAP3 SWAP2 SWAP1 PUSH2 0x5C1D JUMP JUMPDEST PUSH1 0x40 MLOAD PUSH1 0x20 DUP2 DUP4 SUB SUB DUP2 MSTORE SWAP1 PUSH1 0x40 MSTORE DUP1 MLOAD SWAP1 PUSH1 0x20 ADD KECCAK256 SWAP5 POP DUP5 PUSH1 0x0 SHR SWAP4 POP PUSH1 0x1 DUP4 DUP6 MOD ADD SWAP4 POP DUP4 PUSH1 0xF PUSH1 0x0 PUSH1 0x4 DUP2 LT PUSH2 0x273B JUMPI INVALID JUMPDEST PUSH1 0x20 SWAP2 DUP3 DUP3 DIV ADD SWAP2 SWAP1 MOD PUSH2 0x100 EXP DUP2 SLOAD DUP2 PUSH1 0xFF MUL NOT AND SWAP1 DUP4 PUSH1 0xFF AND MUL OR SWAP1 SSTORE POP DUP2 PUSH1 0xD SLOAD DUP3 DUP9 PUSH1 0x40 MLOAD PUSH1 0x20 ADD PUSH2 0x2774 SWAP5 SWAP4 SWAP3 SWAP2 SWAP1 PUSH2 0x5C1D JUMP JUMPDEST PUSH1 0x40 MLOAD PUSH1 0x20 DUP2 DUP4 SUB SUB DUP2 MSTORE SWAP1 PUSH1 0x40 MSTORE DUP1 MLOAD SWAP1 PUSH1 0x20 ADD KECCAK256 SWAP5 POP DUP5 PUSH1 0x0 SHR SWAP4 POP PUSH1 0x1 DUP4 DUP6 MOD ADD SWAP4 POP DUP4 PUSH1 0xF PUSH1 0x1 PUSH1 0x4 DUP2 LT PUSH2 0x27A9 JUMPI INVALID JUMPDEST PUSH1 0x20 SWAP2 DUP3 DUP3 DIV ADD SWAP2 SWAP1 MOD PUSH2 0x100 EXP DUP2 SLOAD DUP2 PUSH1 0xFF MUL NOT AND SWAP1 DUP4 PUSH1 0xFF AND MUL OR SWAP1 SSTORE POP DUP2 PUSH1 0xE SLOAD DUP3 DUP9 PUSH1 0x40 MLOAD PUSH1 0x20 ADD PUSH2 0x27E2 SWAP5 SWAP4 SWAP3 SWAP2 SWAP1 PUSH2 0x5C1D JUMP JUMPDEST PUSH1 0x40 MLOAD PUSH1 0x20 DUP2 DUP4 SUB SUB DUP2 MSTORE SWAP1 PUSH1 0x40 MSTORE DUP1 MLOAD SWAP1 PUSH1 0x20 ADD KECCAK256 SWAP5 POP DUP5 PUSH1 0x0 SHR SWAP4 POP PUSH1 0x1 DUP4 DUP6 MOD ADD SWAP4 POP DUP4 PUSH1 0xF PUSH1 0x2 PUSH1 0x4 DUP2 LT PUSH2 0x2817 JUMPI INVALID JUMPDEST PUSH1 0x20 SWAP2 DUP3 DUP3 DIV ADD SWAP2 SWAP1 MOD PUSH2 0x100 EXP DUP2 SLOAD DUP2 PUSH1 0xFF MUL NOT AND SWAP1 DUP4 PUSH1 0xFF AND MUL OR SWAP1 SSTORE POP DUP2 DUP2 DUP8 PUSH1 0x40 MLOAD PUSH1 0x20 ADD PUSH2 0x284C SWAP4 SWAP3 SWAP2 SWAP1 PUSH2 0x5BE6 JUMP JUMPDEST PUSH1 0x40 MLOAD PUSH1 0x20 DUP2 DUP4 SUB SUB DUP2 MSTORE SWAP1 PUSH1 0x40 MSTORE DUP1 MLOAD SWAP1 PUSH1 0x20 ADD KECCAK256 SWAP5 POP DUP5 PUSH1 0x0 SHR SWAP4 POP PUSH1 0x1 DUP4 DUP6 MOD ADD SWAP4 POP DUP4 PUSH1 0xF PUSH1 0x3 PUSH1 0x4 DUP2 LT PUSH2 0x2881 JUMPI INVALID JUMPDEST PUSH1 0x20 SWAP2 DUP3 DUP3 DIV ADD SWAP2 SWAP1 MOD PUSH2 0x100 EXP DUP2 SLOAD DUP2 PUSH1 0xFF MUL NOT AND SWAP1 DUP4 PUSH1 0xFF AND MUL OR SWAP1 SSTORE POP PUSH1 0xF PUSH1 0x6 PUSH1 0x0 PUSH1 0xB SLOAD DUP2 MSTORE PUSH1 0x20 ADD SWAP1 DUP2 MSTORE PUSH1 0x20 ADD PUSH1 0x0 KECCAK256 SWAP1 PUSH1 0x4 PUSH2 0x28C6 SWAP3 SWAP2 SWAP1 PUSH2 0x42B7 JUMP JUMPDEST POP PUSH2 0x28CF PUSH2 0x37F3 JUMP JUMPDEST PUSH1 0x8 PUSH1 0x0 PUSH1 0xB SLOAD DUP2 MSTORE PUSH1 0x20 ADD SWAP1 DUP2 MSTORE PUSH1 0x20 ADD PUSH1 0x0 KECCAK256 SWAP1 PUSH1 0x4 PUSH2 0x28F2 SWAP3 SWAP2 SWAP1 PUSH2 0x4302 JUMP JUMPDEST POP PUSH1 0x0 PUSH1 0x10 PUSH1 0x0 PUSH2 0x100 EXP DUP2 SLOAD DUP2 PUSH1 0xFF MUL NOT AND SWAP1 DUP4 ISZERO ISZERO MUL OR SWAP1 SSTORE POP PUSH1 0xB SLOAD PUSH32 0xA13E935B188993737B3009D62BD916DCBE9E82D8236D75981EEADF26A1460D3D PUSH1 0xF PUSH1 0x40 MLOAD PUSH2 0x2941 SWAP2 SWAP1 PUSH2 0x5BB0 JUMP JUMPDEST PUSH1 0x40 MLOAD DUP1 SWAP2 SUB SWAP1 LOG2 POP POP POP POP POP POP JUMP JUMPDEST PUSH1 0x3 PUSH1 0x0 SWAP1 SLOAD SWAP1 PUSH2 0x100 EXP SWAP1 DIV PUSH20 0xFFFFFFFFFFFFFFFFFFFFFFFFFFFFFFFFFFFFFFFF AND PUSH20 0xFFFFFFFFFFFFFFFFFFFFFFFFFFFFFFFFFFFFFFFF AND PUSH4 0x6352211E DUP3 PUSH1 0x40 MLOAD DUP3 PUSH4 0xFFFFFFFF AND PUSH1 0xE0 SHL DUP2 MSTORE PUSH1 0x4 ADD PUSH2 0x29AC SWAP2 SWAP1 PUSH2 0x5F3A JUMP JUMPDEST PUSH1 0x20 PUSH1 0x40 MLOAD DUP1 DUP4 SUB DUP2 DUP7 DUP1 EXTCODESIZE ISZERO DUP1 ISZERO PUSH2 0x29C4 JUMPI PUSH1 0x0 DUP1 REVERT JUMPDEST POP GAS STATICCALL ISZERO DUP1 ISZERO PUSH2 0x29D8 JUMPI RETURNDATASIZE PUSH1 0x0 DUP1 RETURNDATACOPY RETURNDATASIZE PUSH1 0x0 REVERT JUMPDEST POP POP POP POP PUSH1 0x40 MLOAD RETURNDATASIZE PUSH1 0x1F NOT PUSH1 0x1F DUP3 ADD AND DUP3 ADD DUP1 PUSH1 0x40 MSTORE POP DUP2 ADD SWAP1 PUSH2 0x29FC SWAP2 SWAP1 PUSH2 0x46C1 JUMP JUMPDEST PUSH20 0xFFFFFFFFFFFFFFFFFFFFFFFFFFFFFFFFFFFFFFFF AND CALLER PUSH20 0xFFFFFFFFFFFFFFFFFFFFFFFFFFFFFFFFFFFFFFFF AND EQ PUSH2 0x2A69 JUMPI PUSH1 0x40 MLOAD PUSH32 0x8C379A000000000000000000000000000000000000000000000000000000000 DUP2 MSTORE PUSH1 0x4 ADD PUSH2 0x2A60 SWAP1 PUSH2 0x5D9A JUMP JUMPDEST PUSH1 0x40 MLOAD DUP1 SWAP2 SUB SWAP1 REVERT JUMPDEST PUSH1 0x3 PUSH1 0x0 SWAP1 SLOAD SWAP1 PUSH2 0x100 EXP SWAP1 DIV PUSH20 0xFFFFFFFFFFFFFFFFFFFFFFFFFFFFFFFFFFFFFFFF AND PUSH20 0xFFFFFFFFFFFFFFFFFFFFFFFFFFFFFFFFFFFFFFFF AND PUSH4 0x36DBD2F9 DUP3 PUSH1 0x40 MLOAD DUP3 PUSH4 0xFFFFFFFF AND PUSH1 0xE0 SHL DUP2 MSTORE PUSH1 0x4 ADD PUSH2 0x2AC4 SWAP2 SWAP1 PUSH2 0x5F3A JUMP JUMPDEST PUSH1 0x20 PUSH1 0x40 MLOAD DUP1 DUP4 SUB DUP2 DUP7 DUP1 EXTCODESIZE ISZERO DUP1 ISZERO PUSH2 0x2ADC JUMPI PUSH1 0x0 DUP1 REVERT JUMPDEST POP GAS STATICCALL ISZERO DUP1 ISZERO PUSH2 0x2AF0 JUMPI RETURNDATASIZE PUSH1 0x0 DUP1 RETURNDATACOPY RETURNDATASIZE PUSH1 0x0 REVERT JUMPDEST POP POP POP POP PUSH1 0x40 MLOAD RETURNDATASIZE PUSH1 0x1F NOT PUSH1 0x1F DUP3 ADD AND DUP3 ADD DUP1 PUSH1 0x40 MSTORE POP DUP2 ADD SWAP1 PUSH2 0x2B14 SWAP2 SWAP1 PUSH2 0x47B9 JUMP JUMPDEST ISZERO PUSH2 0x2B54 JUMPI PUSH1 0x40 MLOAD PUSH32 0x8C379A000000000000000000000000000000000000000000000000000000000 DUP2 MSTORE PUSH1 0x4 ADD PUSH2 0x2B4B SWAP1 PUSH2 0x5DDA JUMP JUMPDEST PUSH1 0x40 MLOAD DUP1 SWAP2 SUB SWAP1 REVERT JUMPDEST PUSH1 0x0 PUSH2 0x2B5F DUP3 PUSH2 0x2D03 JUMP JUMPDEST SWAP1 POP PUSH1 0x3 PUSH1 0x0 SWAP1 SLOAD SWAP1 PUSH2 0x100 EXP SWAP1 DIV PUSH20 0xFFFFFFFFFFFFFFFFFFFFFFFFFFFFFFFFFFFFFFFF AND PUSH20 0xFFFFFFFFFFFFFFFFFFFFFFFFFFFFFFFFFFFFFFFF AND PUSH4 0xAE169A50 DUP4 PUSH1 0x40 MLOAD DUP3 PUSH4 0xFFFFFFFF AND PUSH1 0xE0 SHL DUP2 MSTORE PUSH1 0x4 ADD PUSH2 0x2BBC SWAP2 SWAP1 PUSH2 0x5F3A JUMP JUMPDEST PUSH1 0x0 PUSH1 0x40 MLOAD DUP1 DUP4 SUB DUP2 PUSH1 0x0 DUP8 DUP1 EXTCODESIZE ISZERO DUP1 ISZERO PUSH2 0x2BD6 JUMPI PUSH1 0x0 DUP1 REVERT JUMPDEST POP GAS CALL ISZERO DUP1 ISZERO PUSH2 0x2BEA JUMPI RETURNDATASIZE PUSH1 0x0 DUP1 RETURNDATACOPY RETURNDATASIZE PUSH1 0x0 REVERT JUMPDEST POP POP POP POP PUSH1 0x0 DUP2 GT ISZERO PUSH2 0x2C45 JUMPI PUSH2 0x2C44 CALLER DUP3 PUSH1 0x2 PUSH1 0x0 SWAP1 SLOAD SWAP1 PUSH2 0x100 EXP SWAP1 DIV PUSH20 0xFFFFFFFFFFFFFFFFFFFFFFFFFFFFFFFFFFFFFFFF AND PUSH20 0xFFFFFFFFFFFFFFFFFFFFFFFFFFFFFFFFFFFFFFFF AND PUSH2 0x376D SWAP1 SWAP3 SWAP2 SWAP1 PUSH4 0xFFFFFFFF AND JUMP JUMPDEST JUMPDEST CALLER PUSH20 0xFFFFFFFFFFFFFFFFFFFFFFFFFFFFFFFFFFFFFFFF AND PUSH32 0x34FCBAC0073D7C3D388E51312FAF357774904998EEB8FCA628B9E6F65EE1CBF7 DUP4 DUP4 PUSH1 0x40 MLOAD PUSH2 0x2C8D SWAP3 SWAP2 SWAP1 PUSH2 0x5F55 JUMP JUMPDEST PUSH1 0x40 MLOAD DUP1 SWAP2 SUB SWAP1 LOG2 POP POP JUMP JUMPDEST PUSH1 0x8 PUSH1 0x20 MSTORE DUP2 PUSH1 0x0 MSTORE PUSH1 0x40 PUSH1 0x0 KECCAK256 DUP2 DUP2 SLOAD DUP2 LT PUSH2 0x2CB2 JUMPI INVALID JUMPDEST SWAP1 PUSH1 0x0 MSTORE PUSH1 0x20 PUSH1 0x0 KECCAK256 ADD PUSH1 0x0 SWAP2 POP SWAP2 POP POP SLOAD DUP2 JUMP JUMPDEST PUSH1 0xC SLOAD DUP2 JUMP JUMPDEST PUSH1 0x0 PUSH1 0x8 PUSH1 0x0 DUP5 DUP2 MSTORE PUSH1 0x20 ADD SWAP1 DUP2 MSTORE PUSH1 0x20 ADD PUSH1 0x0 KECCAK256 DUP3 PUSH1 0x5 SUB DUP2 SLOAD DUP2 LT PUSH2 0x2CF0 JUMPI INVALID JUMPDEST SWAP1 PUSH1 0x0 MSTORE PUSH1 0x20 PUSH1 0x0 KECCAK256 ADD SLOAD SWAP1 POP SWAP3 SWAP2 POP POP JUMP JUMPDEST PUSH1 0x0 DUP1 PUSH1 0x3 PUSH1 0x0 SWAP1 SLOAD SWAP1 PUSH2 0x100 EXP SWAP1 DIV PUSH20 0xFFFFFFFFFFFFFFFFFFFFFFFFFFFFFFFFFFFFFFFF AND PUSH20 0xFFFFFFFFFFFFFFFFFFFFFFFFFFFFFFFFFFFFFFFF AND PUSH4 0x1BF1E00F DUP5 PUSH1 0x40 MLOAD DUP3 PUSH4 0xFFFFFFFF AND PUSH1 0xE0 SHL DUP2 MSTORE PUSH1 0x4 ADD PUSH2 0x2D61 SWAP2 SWAP1 PUSH2 0x5F3A JUMP JUMPDEST PUSH1 0x20 PUSH1 0x40 MLOAD DUP1 DUP4 SUB DUP2 DUP7 DUP1 EXTCODESIZE ISZERO DUP1 ISZERO PUSH2 0x2D79 JUMPI PUSH1 0x0 DUP1 REVERT JUMPDEST POP GAS STATICCALL ISZERO DUP1 ISZERO PUSH2 0x2D8D JUMPI RETURNDATASIZE PUSH1 0x0 DUP1 RETURNDATACOPY RETURNDATASIZE PUSH1 0x0 REVERT JUMPDEST POP POP POP POP PUSH1 0x40 MLOAD RETURNDATASIZE PUSH1 0x1F NOT PUSH1 0x1F DUP3 ADD AND DUP3 ADD DUP1 PUSH1 0x40 MSTORE POP DUP2 ADD SWAP1 PUSH2 0x2DB1 SWAP2 SWAP1 PUSH2 0x4894 JUMP JUMPDEST SWAP1 POP PUSH2 0x2DBB PUSH2 0x434F JUMP JUMPDEST PUSH1 0x3 PUSH1 0x0 SWAP1 SLOAD SWAP1 PUSH2 0x100 EXP SWAP1 DIV PUSH20 0xFFFFFFFFFFFFFFFFFFFFFFFFFFFFFFFFFFFFFFFF AND PUSH20 0xFFFFFFFFFFFFFFFFFFFFFFFFFFFFFFFFFFFFFFFF AND PUSH4 0x5F8E26A7 DUP6 PUSH1 0x40 MLOAD DUP3 PUSH4 0xFFFFFFFF AND PUSH1 0xE0 SHL DUP2 MSTORE PUSH1 0x4 ADD PUSH2 0x2E16 SWAP2 SWAP1 PUSH2 0x5F3A JUMP JUMPDEST PUSH1 0x80 PUSH1 0x40 MLOAD DUP1 DUP4 SUB DUP2 DUP7 DUP1 EXTCODESIZE ISZERO DUP1 ISZERO PUSH2 0x2E2E JUMPI PUSH1 0x0 DUP1 REVERT JUMPDEST POP GAS STATICCALL ISZERO DUP1 ISZERO PUSH2 0x2E42 JUMPI RETURNDATASIZE PUSH1 0x0 DUP1 RETURNDATACOPY RETURNDATASIZE PUSH1 0x0 REVERT JUMPDEST POP POP POP POP PUSH1 0x40 MLOAD RETURNDATASIZE PUSH1 0x1F NOT PUSH1 0x1F DUP3 ADD AND DUP3 ADD DUP1 PUSH1 0x40 MSTORE POP DUP2 ADD SWAP1 PUSH2 0x2E66 SWAP2 SWAP1 PUSH2 0x4790 JUMP JUMPDEST SWAP1 POP PUSH2 0x2E70 PUSH2 0x434F JUMP JUMPDEST PUSH1 0x6 PUSH1 0x0 DUP5 DUP2 MSTORE PUSH1 0x20 ADD SWAP1 DUP2 MSTORE PUSH1 0x20 ADD PUSH1 0x0 KECCAK256 PUSH1 0x4 DUP1 PUSH1 0x20 MUL PUSH1 0x40 MLOAD SWAP1 DUP2 ADD PUSH1 0x40 MSTORE DUP1 SWAP3 SWAP2 SWAP1 DUP3 PUSH1 0x4 DUP1 ISZERO PUSH2 0x2EE0 JUMPI PUSH1 0x20 MUL DUP3 ADD SWAP2 PUSH1 0x0 SWAP1 JUMPDEST DUP3 DUP3 SWAP1 SLOAD SWAP1 PUSH2 0x100 EXP SWAP1 DIV PUSH1 0xFF AND PUSH1 0xFF AND DUP2 MSTORE PUSH1 0x20 ADD SWAP1 PUSH1 0x1 ADD SWAP1 PUSH1 0x20 DUP3 PUSH1 0x0 ADD DIV SWAP3 DUP4 ADD SWAP3 PUSH1 0x1 SUB DUP3 MUL SWAP2 POP DUP1 DUP5 GT PUSH2 0x2EA9 JUMPI SWAP1 POP JUMPDEST POP POP POP POP POP SWAP1 POP PUSH1 0x0 DUP2 PUSH1 0x0 PUSH1 0x4 DUP2 LT PUSH2 0x2EF6 JUMPI INVALID JUMPDEST PUSH1 0x20 MUL ADD MLOAD PUSH1 0xFF AND EQ ISZERO PUSH2 0x2F3F JUMPI PUSH1 0x40 MLOAD PUSH32 0x8C379A000000000000000000000000000000000000000000000000000000000 DUP2 MSTORE PUSH1 0x4 ADD PUSH2 0x2F36 SWAP1 PUSH2 0x5CDA JUMP JUMPDEST PUSH1 0x40 MLOAD DUP1 SWAP2 SUB SWAP1 REVERT JUMPDEST PUSH1 0x0 DUP1 JUMPDEST PUSH1 0x4 DUP2 LT ISZERO PUSH2 0x2F8E JUMPI DUP4 DUP2 PUSH1 0x4 DUP2 LT PUSH2 0x2F58 JUMPI INVALID JUMPDEST PUSH1 0x20 MUL ADD MLOAD PUSH1 0xFF AND DUP4 DUP3 PUSH1 0x4 DUP2 LT PUSH2 0x2F6C JUMPI INVALID JUMPDEST PUSH1 0x20 MUL ADD MLOAD PUSH1 0xFF AND EQ ISZERO PUSH2 0x2F81 JUMPI PUSH1 0x1 DUP3 ADD SWAP2 POP JUMPDEST DUP1 DUP1 PUSH1 0x1 ADD SWAP2 POP POP PUSH2 0x2F43 JUMP JUMPDEST POP PUSH1 0x0 PUSH1 0x1 DUP3 GT ISZERO PUSH2 0x30ED JUMPI PUSH1 0x0 PUSH1 0x3 PUSH1 0x0 SWAP1 SLOAD SWAP1 PUSH2 0x100 EXP SWAP1 DIV PUSH20 0xFFFFFFFFFFFFFFFFFFFFFFFFFFFFFFFFFFFFFFFF AND PUSH20 0xFFFFFFFFFFFFFFFFFFFFFFFFFFFFFFFFFFFFFFFF AND PUSH4 0xF7A0C0CA DUP10 PUSH1 0x40 MLOAD DUP3 PUSH4 0xFFFFFFFF AND PUSH1 0xE0 SHL DUP2 MSTORE PUSH1 0x4 ADD PUSH2 0x2FF7 SWAP2 SWAP1 PUSH2 0x5F3A JUMP JUMPDEST PUSH1 0x20 PUSH1 0x40 MLOAD DUP1 DUP4 SUB DUP2 DUP7 DUP1 EXTCODESIZE ISZERO DUP1 ISZERO PUSH2 0x300F JUMPI PUSH1 0x0 DUP1 REVERT JUMPDEST POP GAS STATICCALL ISZERO DUP1 ISZERO PUSH2 0x3023 JUMPI RETURNDATASIZE PUSH1 0x0 DUP1 RETURNDATACOPY RETURNDATASIZE PUSH1 0x0 REVERT JUMPDEST POP POP POP POP PUSH1 0x40 MLOAD RETURNDATASIZE PUSH1 0x1F NOT PUSH1 0x1F DUP3 ADD AND DUP3 ADD DUP1 PUSH1 0x40 MSTORE POP DUP2 ADD SWAP1 PUSH2 0x3047 SWAP2 SWAP1 PUSH2 0x4894 JUMP JUMPDEST SWAP1 POP PUSH1 0x0 PUSH2 0x30A1 PUSH1 0x64 PUSH2 0x3093 PUSH1 0x1 DUP8 PUSH1 0x4 SUB PUSH1 0x3 DUP2 LT PUSH2 0x3063 JUMPI INVALID JUMPDEST PUSH1 0x20 SWAP2 DUP3 DUP3 DIV ADD SWAP2 SWAP1 MOD SWAP1 SLOAD SWAP1 PUSH2 0x100 EXP SWAP1 DIV PUSH1 0xFF AND PUSH1 0xFF AND PUSH2 0x3085 DUP12 PUSH2 0x195B JUMP JUMPDEST PUSH2 0x3D08 SWAP1 SWAP2 SWAP1 PUSH4 0xFFFFFFFF AND JUMP JUMPDEST PUSH2 0x3D15 SWAP1 SWAP2 SWAP1 PUSH4 0xFFFFFFFF AND JUMP JUMPDEST SWAP1 POP PUSH2 0x30E8 DUP2 PUSH2 0x30DA PUSH2 0x30B4 DUP11 DUP9 PUSH2 0x2CCD JUMP JUMPDEST PUSH2 0x30CC PUSH5 0xE8D4A51000 DUP8 PUSH2 0x3D08 SWAP1 SWAP2 SWAP1 PUSH4 0xFFFFFFFF AND JUMP JUMPDEST PUSH2 0x3D15 SWAP1 SWAP2 SWAP1 PUSH4 0xFFFFFFFF AND JUMP JUMPDEST PUSH2 0x3D08 SWAP1 SWAP2 SWAP1 PUSH4 0xFFFFFFFF AND JUMP JUMPDEST SWAP3 POP POP POP JUMPDEST PUSH2 0x3105 PUSH5 0xE8D4A51000 DUP3 PUSH2 0x3D15 SWAP1 SWAP2 SWAP1 PUSH4 0xFFFFFFFF AND JUMP JUMPDEST SWAP6 POP POP POP POP POP POP SWAP2 SWAP1 POP JUMP JUMPDEST PUSH1 0x4 PUSH1 0x0 SWAP1 SLOAD SWAP1 PUSH2 0x100 EXP SWAP1 DIV PUSH20 0xFFFFFFFFFFFFFFFFFFFFFFFFFFFFFFFFFFFFFFFF AND PUSH20 0xFFFFFFFFFFFFFFFFFFFFFFFFFFFFFFFFFFFFFFFF AND CALLER PUSH20 0xFFFFFFFFFFFFFFFFFFFFFFFFFFFFFFFFFFFFFFFF AND EQ PUSH2 0x31A1 JUMPI PUSH1 0x40 MLOAD PUSH32 0x8C379A000000000000000000000000000000000000000000000000000000000 DUP2 MSTORE PUSH1 0x4 ADD PUSH2 0x3198 SWAP1 PUSH2 0x5E9A JUMP JUMPDEST PUSH1 0x40 MLOAD DUP1 SWAP2 SUB SWAP1 REVERT JUMPDEST PUSH2 0x31A9 PUSH2 0x33FB JUMP JUMPDEST PUSH2 0x31E8 JUMPI PUSH1 0x40 MLOAD PUSH32 0x8C379A000000000000000000000000000000000000000000000000000000000 DUP2 MSTORE PUSH1 0x4 ADD PUSH2 0x31DF SWAP1 PUSH2 0x5EDA JUMP JUMPDEST PUSH1 0x40 MLOAD DUP1 SWAP2 SUB SWAP1 REVERT JUMPDEST TIMESTAMP PUSH1 0xE DUP2 SWAP1 SSTORE POP PUSH1 0x0 PUSH1 0xC DUP2 SWAP1 SSTORE POP PUSH1 0x0 PUSH1 0xD DUP2 SWAP1 SSTORE POP PUSH1 0x0 PUSH1 0xF PUSH1 0x0 PUSH1 0x4 DUP2 LT PUSH2 0x320F JUMPI INVALID JUMPDEST PUSH1 0x20 SWAP2 DUP3 DUP3 DIV ADD SWAP2 SWAP1 MOD PUSH2 0x100 EXP DUP2 SLOAD DUP2 PUSH1 0xFF MUL NOT AND SWAP1 DUP4 PUSH1 0xFF AND MUL OR SWAP1 SSTORE POP PUSH1 0x0 PUSH1 0xF PUSH1 0x1 PUSH1 0x4 DUP2 LT PUSH2 0x323F JUMPI INVALID JUMPDEST PUSH1 0x20 SWAP2 DUP3 DUP3 DIV ADD SWAP2 SWAP1 MOD PUSH2 0x100 EXP DUP2 SLOAD DUP2 PUSH1 0xFF MUL NOT AND SWAP1 DUP4 PUSH1 0xFF AND MUL OR SWAP1 SSTORE POP PUSH1 0x0 PUSH1 0xF PUSH1 0x2 PUSH1 0x4 DUP2 LT PUSH2 0x326F JUMPI INVALID JUMPDEST PUSH1 0x20 SWAP2 DUP3 DUP3 DIV ADD SWAP2 SWAP1 MOD PUSH2 0x100 EXP DUP2 SLOAD DUP2 PUSH1 0xFF MUL NOT AND SWAP1 DUP4 PUSH1 0xFF AND MUL OR SWAP1 SSTORE POP PUSH1 0x0 PUSH1 0xF PUSH1 0x3 PUSH1 0x4 DUP2 LT PUSH2 0x329F JUMPI INVALID JUMPDEST PUSH1 0x20 SWAP2 DUP3 DUP3 DIV ADD SWAP2 SWAP1 MOD PUSH2 0x100 EXP DUP2 SLOAD DUP2 PUSH1 0xFF MUL NOT AND SWAP1 DUP4 PUSH1 0xFF AND MUL OR SWAP1 SSTORE POP PUSH1 0x0 PUSH1 0x10 PUSH1 0x0 PUSH2 0x100 EXP DUP2 SLOAD DUP2 PUSH1 0xFF MUL NOT AND SWAP1 DUP4 ISZERO ISZERO MUL OR SWAP1 SSTORE POP PUSH1 0x1 PUSH1 0xB SLOAD ADD PUSH1 0xB DUP2 SWAP1 SSTORE POP PUSH1 0x0 PUSH2 0x32F8 PUSH1 0x1 PUSH1 0xB SLOAD SUB PUSH1 0x4 PUSH2 0x2CCD JUMP JUMPDEST EQ ISZERO PUSH2 0x33CA JUMPI PUSH1 0x0 PUSH2 0x3359 PUSH1 0x64 PUSH2 0x334B PUSH1 0x1 PUSH1 0x0 PUSH1 0x3 DUP2 LT PUSH2 0x3316 JUMPI INVALID JUMPDEST PUSH1 0x20 SWAP2 DUP3 DUP3 DIV ADD SWAP2 SWAP1 MOD SWAP1 SLOAD SWAP1 PUSH2 0x100 EXP SWAP1 DIV PUSH1 0xFF AND PUSH1 0xFF AND PUSH2 0x333D PUSH1 0x1 PUSH1 0xB SLOAD SUB PUSH2 0x195B JUMP JUMPDEST PUSH2 0x3D08 SWAP1 SWAP2 SWAP1 PUSH4 0xFFFFFFFF AND JUMP JUMPDEST PUSH2 0x3D15 SWAP1 SWAP2 SWAP1 PUSH4 0xFFFFFFFF AND JUMP JUMPDEST SWAP1 POP PUSH2 0x33C8 DUP2 PUSH1 0x11 PUSH1 0x4 DUP1 PUSH1 0x20 MUL PUSH1 0x40 MLOAD SWAP1 DUP2 ADD PUSH1 0x40 MSTORE DUP1 SWAP3 SWAP2 SWAP1 DUP3 PUSH1 0x4 DUP1 ISZERO PUSH2 0x33BE JUMPI PUSH1 0x20 MUL DUP3 ADD SWAP2 PUSH1 0x0 SWAP1 JUMPDEST DUP3 DUP3 SWAP1 SLOAD SWAP1 PUSH2 0x100 EXP SWAP1 DIV PUSH1 0xFF AND PUSH1 0xFF AND DUP2 MSTORE PUSH1 0x20 ADD SWAP1 PUSH1 0x1 ADD SWAP1 PUSH1 0x20 DUP3 PUSH1 0x0 ADD DIV SWAP3 DUP4 ADD SWAP3 PUSH1 0x1 SUB DUP3 MUL SWAP2 POP DUP1 DUP5 GT PUSH2 0x3387 JUMPI SWAP1 POP JUMPDEST POP POP POP POP POP PUSH2 0x3D29 JUMP JUMPDEST POP JUMPDEST PUSH1 0xB SLOAD PUSH32 0x1C3CBB0D62726AB09D163873EBF9AED99DD8DC08E57BC938F458132FD178CF6 PUSH1 0x40 MLOAD PUSH1 0x40 MLOAD DUP1 SWAP2 SUB SWAP1 LOG2 JUMP JUMPDEST PUSH1 0x0 DUP1 PUSH1 0xF PUSH1 0x0 PUSH1 0x4 DUP2 LT PUSH2 0x340C JUMPI INVALID JUMPDEST PUSH1 0x20 SWAP2 DUP3 DUP3 DIV ADD SWAP2 SWAP1 MOD SWAP1 SLOAD SWAP1 PUSH2 0x100 EXP SWAP1 DIV PUSH1 0xFF AND PUSH1 0xFF AND EQ ISZERO SWAP1 POP SWAP1 JUMP JUMPDEST PUSH1 0x5 SLOAD DUP2 JUMP JUMPDEST PUSH1 0x3 PUSH1 0x0 SWAP1 SLOAD SWAP1 PUSH2 0x100 EXP SWAP1 DIV PUSH20 0xFFFFFFFFFFFFFFFFFFFFFFFFFFFFFFFFFFFFFFFF AND DUP2 JUMP JUMPDEST CALLER PUSH20 0xFFFFFFFFFFFFFFFFFFFFFFFFFFFFFFFFFFFFFFFF AND PUSH1 0x0 DUP1 SLOAD SWAP1 PUSH2 0x100 EXP SWAP1 DIV PUSH20 0xFFFFFFFFFFFFFFFFFFFFFFFFFFFFFFFFFFFFFFFF AND PUSH20 0xFFFFFFFFFFFFFFFFFFFFFFFFFFFFFFFFFFFFFFFF AND EQ PUSH2 0x34E6 JUMPI PUSH1 0x40 MLOAD PUSH32 0x8C379A000000000000000000000000000000000000000000000000000000000 DUP2 MSTORE PUSH1 0x4 ADD PUSH2 0x34DD SWAP1 PUSH2 0x5E7A JUMP JUMPDEST PUSH1 0x40 MLOAD DUP1 SWAP2 SUB SWAP1 REVERT JUMPDEST PUSH1 0x0 PUSH20 0xFFFFFFFFFFFFFFFFFFFFFFFFFFFFFFFFFFFFFFFF AND DUP2 PUSH20 0xFFFFFFFFFFFFFFFFFFFFFFFFFFFFFFFFFFFFFFFF AND EQ ISZERO PUSH2 0x3556 JUMPI PUSH1 0x40 MLOAD PUSH32 0x8C379A000000000000000000000000000000000000000000000000000000000 DUP2 MSTORE PUSH1 0x4 ADD PUSH2 0x354D SWAP1 PUSH2 0x5D3A JUMP JUMPDEST PUSH1 0x40 MLOAD DUP1 SWAP2 SUB SWAP1 REVERT JUMPDEST DUP1 PUSH20 0xFFFFFFFFFFFFFFFFFFFFFFFFFFFFFFFFFFFFFFFF AND PUSH1 0x0 DUP1 SLOAD SWAP1 PUSH2 0x100 EXP SWAP1 DIV PUSH20 0xFFFFFFFFFFFFFFFFFFFFFFFFFFFFFFFFFFFFFFFF AND PUSH20 0xFFFFFFFFFFFFFFFFFFFFFFFFFFFFFFFFFFFFFFFF AND PUSH32 0x8BE0079C531659141344CD1FD0A4F28419497F9722A3DAAFE3B4186F6B6457E0 PUSH1 0x40 MLOAD PUSH1 0x40 MLOAD DUP1 SWAP2 SUB SWAP1 LOG3 DUP1 PUSH1 0x0 DUP1 PUSH2 0x100 EXP DUP2 SLOAD DUP2 PUSH20 0xFFFFFFFFFFFFFFFFFFFFFFFFFFFFFFFFFFFFFFFF MUL NOT AND SWAP1 DUP4 PUSH20 0xFFFFFFFFFFFFFFFFFFFFFFFFFFFFFFFFFFFFFFFF AND MUL OR SWAP1 SSTORE POP POP JUMP JUMPDEST PUSH1 0x4 PUSH1 0x0 SWAP1 SLOAD SWAP1 PUSH2 0x100 EXP SWAP1 DIV PUSH20 0xFFFFFFFFFFFFFFFFFFFFFFFFFFFFFFFFFFFFFFFF AND DUP2 JUMP JUMPDEST DUP1 PUSH1 0x0 DUP1 PUSH2 0x100 EXP DUP2 SLOAD DUP2 PUSH20 0xFFFFFFFFFFFFFFFFFFFFFFFFFFFFFFFFFFFFFFFF MUL NOT AND SWAP1 DUP4 PUSH20 0xFFFFFFFFFFFFFFFFFFFFFFFFFFFFFFFFFFFFFFFF AND MUL OR SWAP1 SSTORE POP DUP1 PUSH20 0xFFFFFFFFFFFFFFFFFFFFFFFFFFFFFFFFFFFFFFFF AND PUSH1 0x0 PUSH20 0xFFFFFFFFFFFFFFFFFFFFFFFFFFFFFFFFFFFFFFFF AND PUSH32 0x8BE0079C531659141344CD1FD0A4F28419497F9722A3DAAFE3B4186F6B6457E0 PUSH1 0x40 MLOAD PUSH1 0x40 MLOAD DUP1 SWAP2 SUB SWAP1 LOG3 POP JUMP JUMPDEST PUSH1 0x0 DUP2 DUP4 ADD SWAP1 POP SWAP3 SWAP2 POP POP JUMP JUMPDEST PUSH2 0x3767 DUP5 PUSH4 0x23B872DD PUSH1 0xE0 SHL DUP6 DUP6 DUP6 PUSH1 0x40 MLOAD PUSH1 0x24 ADD PUSH2 0x3705 SWAP4 SWAP3 SWAP2 SWAP1 PUSH2 0x5ACD JUMP JUMPDEST PUSH1 0x40 MLOAD PUSH1 0x20 DUP2 DUP4 SUB SUB DUP2 MSTORE SWAP1 PUSH1 0x40 MSTORE SWAP1 PUSH28 0xFFFFFFFFFFFFFFFFFFFFFFFFFFFFFFFFFFFFFFFFFFFFFFFFFFFFFFFF NOT AND PUSH1 0x20 DUP3 ADD DUP1 MLOAD PUSH28 0xFFFFFFFFFFFFFFFFFFFFFFFFFFFFFFFFFFFFFFFFFFFFFFFFFFFFFFFF DUP4 DUP2 DUP4 AND OR DUP4 MSTORE POP POP POP POP PUSH2 0x3F5D JUMP JUMPDEST POP POP POP POP JUMP JUMPDEST PUSH2 0x37EE DUP4 PUSH4 0xA9059CBB PUSH1 0xE0 SHL DUP5 DUP5 PUSH1 0x40 MLOAD PUSH1 0x24 ADD PUSH2 0x378C SWAP3 SWAP2 SWAP1 PUSH2 0x5B49 JUMP JUMPDEST PUSH1 0x40 MLOAD PUSH1 0x20 DUP2 DUP4 SUB SUB DUP2 MSTORE SWAP1 PUSH1 0x40 MSTORE SWAP1 PUSH28 0xFFFFFFFFFFFFFFFFFFFFFFFFFFFFFFFFFFFFFFFFFFFFFFFFFFFFFFFF NOT AND PUSH1 0x20 DUP3 ADD DUP1 MLOAD PUSH28 0xFFFFFFFFFFFFFFFFFFFFFFFFFFFFFFFFFFFFFFFFFFFFFFFFFFFFFFFF DUP4 DUP2 DUP4 AND OR DUP4 MSTORE POP POP POP POP PUSH2 0x3F5D JUMP JUMPDEST POP POP POP JUMP JUMPDEST PUSH2 0x37FB PUSH2 0x4371 JUMP JUMPDEST PUSH2 0x3803 PUSH2 0x4272 JUMP JUMPDEST PUSH2 0x386F PUSH1 0xF PUSH1 0x4 DUP1 PUSH1 0x20 MUL PUSH1 0x40 MLOAD SWAP1 DUP2 ADD PUSH1 0x40 MSTORE DUP1 SWAP3 SWAP2 SWAP1 DUP3 PUSH1 0x4 DUP1 ISZERO PUSH2 0x3865 JUMPI PUSH1 0x20 MUL DUP3 ADD SWAP2 PUSH1 0x0 SWAP1 JUMPDEST DUP3 DUP3 SWAP1 SLOAD SWAP1 PUSH2 0x100 EXP SWAP1 DIV PUSH1 0xFF AND PUSH1 0xFF AND DUP2 MSTORE PUSH1 0x20 ADD SWAP1 PUSH1 0x1 ADD SWAP1 PUSH1 0x20 DUP3 PUSH1 0x0 ADD DIV SWAP3 DUP4 ADD SWAP3 PUSH1 0x1 SUB DUP3 MUL SWAP2 POP DUP1 DUP5 GT PUSH2 0x382E JUMPI SWAP1 POP JUMPDEST POP POP POP POP POP PUSH2 0x1F43 JUMP JUMPDEST SWAP1 POP PUSH1 0x0 PUSH1 0x9 PUSH1 0x0 PUSH1 0xB SLOAD DUP2 MSTORE PUSH1 0x20 ADD SWAP1 DUP2 MSTORE PUSH1 0x20 ADD PUSH1 0x0 KECCAK256 PUSH1 0x0 DUP4 PUSH1 0x0 PUSH1 0xB DUP2 LT PUSH2 0x3897 JUMPI INVALID JUMPDEST PUSH1 0x20 MUL ADD MLOAD PUSH8 0xFFFFFFFFFFFFFFFF AND PUSH8 0xFFFFFFFFFFFFFFFF AND DUP2 MSTORE PUSH1 0x20 ADD SWAP1 DUP2 MSTORE PUSH1 0x20 ADD PUSH1 0x0 KECCAK256 SLOAD SWAP1 POP PUSH1 0x0 PUSH1 0x9 PUSH1 0x0 PUSH1 0xB SLOAD DUP2 MSTORE PUSH1 0x20 ADD SWAP1 DUP2 MSTORE PUSH1 0x20 ADD PUSH1 0x0 KECCAK256 PUSH1 0x0 DUP5 PUSH1 0x1 PUSH1 0xB DUP2 LT PUSH2 0x38E7 JUMPI INVALID JUMPDEST PUSH1 0x20 MUL ADD MLOAD PUSH8 0xFFFFFFFFFFFFFFFF AND PUSH8 0xFFFFFFFFFFFFFFFF AND DUP2 MSTORE PUSH1 0x20 ADD SWAP1 DUP2 MSTORE PUSH1 0x20 ADD PUSH1 0x0 KECCAK256 SLOAD SWAP1 POP PUSH2 0x396F PUSH1 0x9 PUSH1 0x0 PUSH1 0xB SLOAD DUP2 MSTORE PUSH1 0x20 ADD SWAP1 DUP2 MSTORE PUSH1 0x20 ADD PUSH1 0x0 KECCAK256 PUSH1 0x0 DUP6 PUSH1 0x2 PUSH1 0xB DUP2 LT PUSH2 0x3938 JUMPI INVALID JUMPDEST PUSH1 0x20 MUL ADD MLOAD PUSH8 0xFFFFFFFFFFFFFFFF AND PUSH8 0xFFFFFFFFFFFFFFFF AND DUP2 MSTORE PUSH1 0x20 ADD SWAP1 DUP2 MSTORE PUSH1 0x20 ADD PUSH1 0x0 KECCAK256 SLOAD DUP3 PUSH2 0x36D7 SWAP1 SWAP2 SWAP1 PUSH4 0xFFFFFFFF AND JUMP JUMPDEST SWAP1 POP PUSH2 0x39CF PUSH1 0x9 PUSH1 0x0 PUSH1 0xB SLOAD DUP2 MSTORE PUSH1 0x20 ADD SWAP1 DUP2 MSTORE PUSH1 0x20 ADD PUSH1 0x0 KECCAK256 PUSH1 0x0 DUP6 PUSH1 0x3 PUSH1 0xB DUP2 LT PUSH2 0x3998 JUMPI INVALID JUMPDEST PUSH1 0x20 MUL ADD MLOAD PUSH8 0xFFFFFFFFFFFFFFFF AND PUSH8 0xFFFFFFFFFFFFFFFF AND DUP2 MSTORE PUSH1 0x20 ADD SWAP1 DUP2 MSTORE PUSH1 0x20 ADD PUSH1 0x0 KECCAK256 SLOAD DUP3 PUSH2 0x36D7 SWAP1 SWAP2 SWAP1 PUSH4 0xFFFFFFFF AND JUMP JUMPDEST SWAP1 POP PUSH2 0x3A2F PUSH1 0x9 PUSH1 0x0 PUSH1 0xB SLOAD DUP2 MSTORE PUSH1 0x20 ADD SWAP1 DUP2 MSTORE PUSH1 0x20 ADD PUSH1 0x0 KECCAK256 PUSH1 0x0 DUP6 PUSH1 0x4 PUSH1 0xB DUP2 LT PUSH2 0x39F8 JUMPI INVALID JUMPDEST PUSH1 0x20 MUL ADD MLOAD PUSH8 0xFFFFFFFFFFFFFFFF AND PUSH8 0xFFFFFFFFFFFFFFFF AND DUP2 MSTORE PUSH1 0x20 ADD SWAP1 DUP2 MSTORE PUSH1 0x20 ADD PUSH1 0x0 KECCAK256 SLOAD DUP3 PUSH2 0x36D7 SWAP1 SWAP2 SWAP1 PUSH4 0xFFFFFFFF AND JUMP JUMPDEST SWAP1 POP PUSH1 0x0 PUSH2 0x3A59 PUSH2 0x3A4A PUSH1 0x4 DUP6 PUSH2 0x3D08 SWAP1 SWAP2 SWAP1 PUSH4 0xFFFFFFFF AND JUMP JUMPDEST DUP4 PUSH2 0x4024 SWAP1 SWAP2 SWAP1 PUSH4 0xFFFFFFFF AND JUMP JUMPDEST SWAP1 POP PUSH1 0x0 PUSH1 0x9 PUSH1 0x0 PUSH1 0xB SLOAD DUP2 MSTORE PUSH1 0x20 ADD SWAP1 DUP2 MSTORE PUSH1 0x20 ADD PUSH1 0x0 KECCAK256 PUSH1 0x0 DUP7 PUSH1 0x5 PUSH1 0xB DUP2 LT PUSH2 0x3A81 JUMPI INVALID JUMPDEST PUSH1 0x20 MUL ADD MLOAD PUSH8 0xFFFFFFFFFFFFFFFF AND PUSH8 0xFFFFFFFFFFFFFFFF AND DUP2 MSTORE PUSH1 0x20 ADD SWAP1 DUP2 MSTORE PUSH1 0x20 ADD PUSH1 0x0 KECCAK256 SLOAD SWAP1 POP PUSH2 0x3B09 PUSH1 0x9 PUSH1 0x0 PUSH1 0xB SLOAD DUP2 MSTORE PUSH1 0x20 ADD SWAP1 DUP2 MSTORE PUSH1 0x20 ADD PUSH1 0x0 KECCAK256 PUSH1 0x0 DUP8 PUSH1 0x6 PUSH1 0xB DUP2 LT PUSH2 0x3AD2 JUMPI INVALID JUMPDEST PUSH1 0x20 MUL ADD MLOAD PUSH8 0xFFFFFFFFFFFFFFFF AND PUSH8 0xFFFFFFFFFFFFFFFF AND DUP2 MSTORE PUSH1 0x20 ADD SWAP1 DUP2 MSTORE PUSH1 0x20 ADD PUSH1 0x0 KECCAK256 SLOAD DUP3 PUSH2 0x36D7 SWAP1 SWAP2 SWAP1 PUSH4 0xFFFFFFFF AND JUMP JUMPDEST SWAP1 POP PUSH2 0x3B69 PUSH1 0x9 PUSH1 0x0 PUSH1 0xB SLOAD DUP2 MSTORE PUSH1 0x20 ADD SWAP1 DUP2 MSTORE PUSH1 0x20 ADD PUSH1 0x0 KECCAK256 PUSH1 0x0 DUP8 PUSH1 0x7 PUSH1 0xB DUP2 LT PUSH2 0x3B32 JUMPI INVALID JUMPDEST PUSH1 0x20 MUL ADD MLOAD PUSH8 0xFFFFFFFFFFFFFFFF AND PUSH8 0xFFFFFFFFFFFFFFFF AND DUP2 MSTORE PUSH1 0x20 ADD SWAP1 DUP2 MSTORE PUSH1 0x20 ADD PUSH1 0x0 KECCAK256 SLOAD DUP3 PUSH2 0x36D7 SWAP1 SWAP2 SWAP1 PUSH4 0xFFFFFFFF AND JUMP JUMPDEST SWAP1 POP PUSH2 0x3BC9 PUSH1 0x9 PUSH1 0x0 PUSH1 0xB SLOAD DUP2 MSTORE PUSH1 0x20 ADD SWAP1 DUP2 MSTORE PUSH1 0x20 ADD PUSH1 0x0 KECCAK256 PUSH1 0x0 DUP8 PUSH1 0x8 PUSH1 0xB DUP2 LT PUSH2 0x3B92 JUMPI INVALID JUMPDEST PUSH1 0x20 MUL ADD MLOAD PUSH8 0xFFFFFFFFFFFFFFFF AND PUSH8 0xFFFFFFFFFFFFFFFF AND DUP2 MSTORE PUSH1 0x20 ADD SWAP1 DUP2 MSTORE PUSH1 0x20 ADD PUSH1 0x0 KECCAK256 SLOAD DUP3 PUSH2 0x36D7 SWAP1 SWAP2 SWAP1 PUSH4 0xFFFFFFFF AND JUMP JUMPDEST SWAP1 POP PUSH2 0x3C29 PUSH1 0x9 PUSH1 0x0 PUSH1 0xB SLOAD DUP2 MSTORE PUSH1 0x20 ADD SWAP1 DUP2 MSTORE PUSH1 0x20 ADD PUSH1 0x0 KECCAK256 PUSH1 0x0 DUP8 PUSH1 0x9 PUSH1 0xB DUP2 LT PUSH2 0x3BF2 JUMPI INVALID JUMPDEST PUSH1 0x20 MUL ADD MLOAD PUSH8 0xFFFFFFFFFFFFFFFF AND PUSH8 0xFFFFFFFFFFFFFFFF AND DUP2 MSTORE PUSH1 0x20 ADD SWAP1 DUP2 MSTORE PUSH1 0x20 ADD PUSH1 0x0 KECCAK256 SLOAD DUP3 PUSH2 0x36D7 SWAP1 SWAP2 SWAP1 PUSH4 0xFFFFFFFF AND JUMP JUMPDEST SWAP1 POP PUSH2 0x3C89 PUSH1 0x9 PUSH1 0x0 PUSH1 0xB SLOAD DUP2 MSTORE PUSH1 0x20 ADD SWAP1 DUP2 MSTORE PUSH1 0x20 ADD PUSH1 0x0 KECCAK256 PUSH1 0x0 DUP8 PUSH1 0xA PUSH1 0xB DUP2 LT PUSH2 0x3C52 JUMPI INVALID JUMPDEST PUSH1 0x20 MUL ADD MLOAD PUSH8 0xFFFFFFFFFFFFFFFF AND PUSH8 0xFFFFFFFFFFFFFFFF AND DUP2 MSTORE PUSH1 0x20 ADD SWAP1 DUP2 MSTORE PUSH1 0x20 ADD PUSH1 0x0 KECCAK256 SLOAD DUP3 PUSH2 0x36D7 SWAP1 SWAP2 SWAP1 PUSH4 0xFFFFFFFF AND JUMP JUMPDEST SWAP1 POP PUSH1 0x0 PUSH2 0x3CD8 PUSH2 0x3CA4 PUSH1 0x3 DUP7 PUSH2 0x3D08 SWAP1 SWAP2 SWAP1 PUSH4 0xFFFFFFFF AND JUMP JUMPDEST PUSH2 0x3CCA PUSH2 0x3CBB PUSH1 0x6 DUP10 PUSH2 0x3D08 SWAP1 SWAP2 SWAP1 PUSH4 0xFFFFFFFF AND JUMP JUMPDEST DUP6 PUSH2 0x36D7 SWAP1 SWAP2 SWAP1 PUSH4 0xFFFFFFFF AND JUMP JUMPDEST PUSH2 0x4024 SWAP1 SWAP2 SWAP1 PUSH4 0xFFFFFFFF AND JUMP JUMPDEST SWAP1 POP PUSH1 0x40 MLOAD DUP1 PUSH1 0x80 ADD PUSH1 0x40 MSTORE DUP1 PUSH1 0xD SLOAD DUP2 MSTORE PUSH1 0x20 ADD DUP7 DUP2 MSTORE PUSH1 0x20 ADD DUP5 DUP2 MSTORE PUSH1 0x20 ADD DUP3 DUP2 MSTORE POP SWAP7 POP POP POP POP POP POP POP SWAP1 JUMP JUMPDEST PUSH1 0x0 DUP2 DUP4 MUL SWAP1 POP SWAP3 SWAP2 POP POP JUMP JUMPDEST PUSH1 0x0 DUP2 DUP4 DUP2 PUSH2 0x3D20 JUMPI INVALID JUMPDEST DIV SWAP1 POP SWAP3 SWAP2 POP POP JUMP JUMPDEST PUSH2 0x3D31 PUSH2 0x33FB JUMP JUMPDEST ISZERO PUSH2 0x3D71 JUMPI PUSH1 0x40 MLOAD PUSH32 0x8C379A000000000000000000000000000000000000000000000000000000000 DUP2 MSTORE PUSH1 0x4 ADD PUSH2 0x3D68 SWAP1 PUSH2 0x5E5A JUMP JUMPDEST PUSH1 0x40 MLOAD DUP1 SWAP2 SUB SWAP1 REVERT JUMPDEST PUSH1 0x0 JUMPDEST PUSH1 0x4 DUP2 LT ISZERO PUSH2 0x3DF2 JUMPI PUSH1 0x4 PUSH1 0x14 SWAP1 SLOAD SWAP1 PUSH2 0x100 EXP SWAP1 DIV PUSH1 0xFF AND PUSH1 0xFF AND DUP3 DUP3 PUSH1 0x4 DUP2 LT PUSH2 0x3D9C JUMPI INVALID JUMPDEST PUSH1 0x20 MUL ADD MLOAD PUSH1 0xFF AND GT ISZERO PUSH2 0x3DE5 JUMPI PUSH1 0x40 MLOAD PUSH32 0x8C379A000000000000000000000000000000000000000000000000000000000 DUP2 MSTORE PUSH1 0x4 ADD PUSH2 0x3DDC SWAP1 PUSH2 0x5D5A JUMP JUMPDEST PUSH1 0x40 MLOAD DUP1 SWAP2 SUB SWAP1 REVERT JUMPDEST DUP1 DUP1 PUSH1 0x1 ADD SWAP2 POP POP PUSH2 0x3D74 JUMP JUMPDEST POP PUSH1 0x0 PUSH1 0x3 PUSH1 0x0 SWAP1 SLOAD SWAP1 PUSH2 0x100 EXP SWAP1 DIV PUSH20 0xFFFFFFFFFFFFFFFFFFFFFFFFFFFFFFFFFFFFFFFF AND PUSH20 0xFFFFFFFFFFFFFFFFFFFFFFFFFFFFFFFFFFFFFFFF AND PUSH4 0x37391C00 ADDRESS DUP5 DUP7 PUSH1 0xB SLOAD PUSH1 0x40 MLOAD DUP6 PUSH4 0xFFFFFFFF AND PUSH1 0xE0 SHL DUP2 MSTORE PUSH1 0x4 ADD PUSH2 0x3E58 SWAP5 SWAP4 SWAP3 SWAP2 SWAP1 PUSH2 0x5B04 JUMP JUMPDEST PUSH1 0x20 PUSH1 0x40 MLOAD DUP1 DUP4 SUB DUP2 PUSH1 0x0 DUP8 DUP1 EXTCODESIZE ISZERO DUP1 ISZERO PUSH2 0x3E72 JUMPI PUSH1 0x0 DUP1 REVERT JUMPDEST POP GAS CALL ISZERO DUP1 ISZERO PUSH2 0x3E86 JUMPI RETURNDATASIZE PUSH1 0x0 DUP1 RETURNDATACOPY RETURNDATASIZE PUSH1 0x0 REVERT JUMPDEST POP POP POP POP PUSH1 0x40 MLOAD RETURNDATASIZE PUSH1 0x1F NOT PUSH1 0x1F DUP3 ADD AND DUP3 ADD DUP1 PUSH1 0x40 MSTORE POP DUP2 ADD SWAP1 PUSH2 0x3EAA SWAP2 SWAP1 PUSH2 0x4894 JUMP JUMPDEST SWAP1 POP PUSH1 0x7 PUSH1 0x0 PUSH1 0xB SLOAD DUP2 MSTORE PUSH1 0x20 ADD SWAP1 DUP2 MSTORE PUSH1 0x20 ADD PUSH1 0x0 KECCAK256 DUP2 SWAP1 DUP1 PUSH1 0x1 DUP2 SLOAD ADD DUP1 DUP3 SSTORE DUP1 SWAP2 POP POP PUSH1 0x1 SWAP1 SUB SWAP1 PUSH1 0x0 MSTORE PUSH1 0x20 PUSH1 0x0 KECCAK256 ADD PUSH1 0x0 SWAP1 SWAP2 SWAP1 SWAP2 SWAP1 SWAP2 POP SSTORE PUSH2 0x3EFD DUP4 PUSH1 0xD SLOAD PUSH2 0x36D7 SWAP1 SWAP2 SWAP1 PUSH4 0xFFFFFFFF AND JUMP JUMPDEST PUSH1 0xD DUP2 SWAP1 SSTORE POP TIMESTAMP PUSH1 0xE DUP2 SWAP1 SSTORE POP ADDRESS PUSH20 0xFFFFFFFFFFFFFFFFFFFFFFFFFFFFFFFFFFFFFFFF AND PUSH32 0xE3D4187F6CA4248660CC0AC8B8056515BAC4A8132BE2ECA31D6D0CC170722A7E DUP3 PUSH1 0x40 MLOAD PUSH2 0x3F50 SWAP2 SWAP1 PUSH2 0x5F3A JUMP JUMPDEST PUSH1 0x40 MLOAD DUP1 SWAP2 SUB SWAP1 LOG2 POP POP POP JUMP JUMPDEST PUSH1 0x60 PUSH2 0x3FBF DUP3 PUSH1 0x40 MLOAD DUP1 PUSH1 0x40 ADD PUSH1 0x40 MSTORE DUP1 PUSH1 0x20 DUP2 MSTORE PUSH1 0x20 ADD PUSH32 0x5361666545524332303A206C6F772D6C6576656C2063616C6C206661696C6564 DUP2 MSTORE POP DUP6 PUSH20 0xFFFFFFFFFFFFFFFFFFFFFFFFFFFFFFFFFFFFFFFF AND PUSH2 0x4031 SWAP1 SWAP3 SWAP2 SWAP1 PUSH4 0xFFFFFFFF AND JUMP JUMPDEST SWAP1 POP PUSH1 0x0 DUP2 MLOAD GT ISZERO PUSH2 0x401F JUMPI DUP1 DUP1 PUSH1 0x20 ADD SWAP1 MLOAD DUP2 ADD SWAP1 PUSH2 0x3FDF SWAP2 SWAP1 PUSH2 0x47B9 JUMP JUMPDEST PUSH2 0x401E JUMPI PUSH1 0x40 MLOAD PUSH32 0x8C379A000000000000000000000000000000000000000000000000000000000 DUP2 MSTORE PUSH1 0x4 ADD PUSH2 0x4015 SWAP1 PUSH2 0x5EFA JUMP JUMPDEST PUSH1 0x40 MLOAD DUP1 SWAP2 SUB SWAP1 REVERT JUMPDEST JUMPDEST POP POP POP JUMP JUMPDEST PUSH1 0x0 DUP2 DUP4 SUB SWAP1 POP SWAP3 SWAP2 POP POP JUMP JUMPDEST PUSH1 0x60 PUSH2 0x4040 DUP5 DUP5 PUSH1 0x0 DUP6 PUSH2 0x4049 JUMP JUMPDEST SWAP1 POP SWAP4 SWAP3 POP POP POP JUMP JUMPDEST PUSH1 0x60 DUP3 SELFBALANCE LT ISZERO PUSH2 0x408E JUMPI PUSH1 0x40 MLOAD PUSH32 0x8C379A000000000000000000000000000000000000000000000000000000000 DUP2 MSTORE PUSH1 0x4 ADD PUSH2 0x4085 SWAP1 PUSH2 0x5D7A JUMP JUMPDEST PUSH1 0x40 MLOAD DUP1 SWAP2 SUB SWAP1 REVERT JUMPDEST PUSH2 0x4097 DUP6 PUSH2 0x415E JUMP JUMPDEST PUSH2 0x40D6 JUMPI PUSH1 0x40 MLOAD PUSH32 0x8C379A000000000000000000000000000000000000000000000000000000000 DUP2 MSTORE PUSH1 0x4 ADD PUSH2 0x40CD SWAP1 PUSH2 0x5EBA JUMP JUMPDEST PUSH1 0x40 MLOAD DUP1 SWAP2 SUB SWAP1 REVERT JUMPDEST PUSH1 0x0 PUSH1 0x60 DUP7 PUSH20 0xFFFFFFFFFFFFFFFFFFFFFFFFFFFFFFFFFFFFFFFF AND DUP6 DUP8 PUSH1 0x40 MLOAD PUSH2 0x4100 SWAP2 SWAP1 PUSH2 0x5A56 JUMP JUMPDEST PUSH1 0x0 PUSH1 0x40 MLOAD DUP1 DUP4 SUB DUP2 DUP6 DUP8 GAS CALL SWAP3 POP POP POP RETURNDATASIZE DUP1 PUSH1 0x0 DUP2 EQ PUSH2 0x413D JUMPI PUSH1 0x40 MLOAD SWAP2 POP PUSH1 0x1F NOT PUSH1 0x3F RETURNDATASIZE ADD AND DUP3 ADD PUSH1 0x40 MSTORE RETURNDATASIZE DUP3 MSTORE RETURNDATASIZE PUSH1 0x0 PUSH1 0x20 DUP5 ADD RETURNDATACOPY PUSH2 0x4142 JUMP JUMPDEST PUSH1 0x60 SWAP2 POP JUMPDEST POP SWAP2 POP SWAP2 POP PUSH2 0x4152 DUP3 DUP3 DUP7 PUSH2 0x4171 JUMP JUMPDEST SWAP3 POP POP POP SWAP5 SWAP4 POP POP POP POP JUMP JUMPDEST PUSH1 0x0 DUP1 DUP3 EXTCODESIZE SWAP1 POP PUSH1 0x0 DUP2 GT SWAP2 POP POP SWAP2 SWAP1 POP JUMP JUMPDEST PUSH1 0x60 DUP4 ISZERO PUSH2 0x4181 JUMPI DUP3 SWAP1 POP PUSH2 0x41D1 JUMP JUMPDEST PUSH1 0x0 DUP4 MLOAD GT ISZERO PUSH2 0x4194 JUMPI DUP3 MLOAD DUP1 DUP5 PUSH1 0x20 ADD REVERT JUMPDEST DUP2 PUSH1 0x40 MLOAD PUSH32 0x8C379A000000000000000000000000000000000000000000000000000000000 DUP2 MSTORE PUSH1 0x4 ADD PUSH2 0x41C8 SWAP2 SWAP1 PUSH2 0x5C98 JUMP JUMPDEST PUSH1 0x40 MLOAD DUP1 SWAP2 SUB SWAP1 REVERT JUMPDEST SWAP4 SWAP3 POP POP POP JUMP JUMPDEST DUP3 PUSH1 0x3 PUSH1 0x1F ADD PUSH1 0x20 SWAP1 DIV DUP2 ADD SWAP3 DUP3 ISZERO PUSH2 0x4261 JUMPI SWAP2 PUSH1 0x20 MUL DUP3 ADD PUSH1 0x0 JUMPDEST DUP4 DUP3 GT ISZERO PUSH2 0x4232 JUMPI DUP4 MLOAD DUP4 DUP3 PUSH2 0x100 EXP DUP2 SLOAD DUP2 PUSH1 0xFF MUL NOT AND SWAP1 DUP4 PUSH1 0xFF AND MUL OR SWAP1 SSTORE POP SWAP3 PUSH1 0x20 ADD SWAP3 PUSH1 0x1 ADD PUSH1 0x20 DUP2 PUSH1 0x0 ADD DIV SWAP3 DUP4 ADD SWAP3 PUSH1 0x1 SUB MUL PUSH2 0x41F4 JUMP JUMPDEST DUP1 ISZERO PUSH2 0x425F JUMPI DUP3 DUP2 PUSH2 0x100 EXP DUP2 SLOAD SWAP1 PUSH1 0xFF MUL NOT AND SWAP1 SSTORE PUSH1 0x1 ADD PUSH1 0x20 DUP2 PUSH1 0x0 ADD DIV SWAP3 DUP4 ADD SWAP3 PUSH1 0x1 SUB MUL PUSH2 0x4232 JUMP JUMPDEST POP JUMPDEST POP SWAP1 POP PUSH2 0x426E SWAP2 SWAP1 PUSH2 0x4393 JUMP JUMPDEST POP SWAP1 JUMP JUMPDEST PUSH1 0x40 MLOAD DUP1 PUSH2 0x160 ADD PUSH1 0x40 MSTORE DUP1 PUSH1 0xB SWAP1 PUSH1 0x20 DUP3 MUL DUP1 CALLDATASIZE DUP4 CALLDATACOPY DUP1 DUP3 ADD SWAP2 POP POP SWAP1 POP POP SWAP1 JUMP JUMPDEST PUSH1 0x40 MLOAD DUP1 PUSH1 0x80 ADD PUSH1 0x40 MSTORE DUP1 PUSH1 0x4 SWAP1 PUSH1 0x20 DUP3 MUL DUP1 CALLDATASIZE DUP4 CALLDATACOPY DUP1 DUP3 ADD SWAP2 POP POP SWAP1 POP POP SWAP1 JUMP JUMPDEST DUP3 PUSH1 0x4 PUSH1 0x1F ADD PUSH1 0x20 SWAP1 DIV DUP2 ADD SWAP3 DUP3 ISZERO PUSH2 0x42F1 JUMPI SWAP2 PUSH1 0x1F ADD PUSH1 0x20 SWAP1 DIV DUP3 ADD JUMPDEST DUP3 DUP2 GT ISZERO PUSH2 0x42F0 JUMPI DUP3 SLOAD DUP3 SSTORE SWAP2 PUSH1 0x1 ADD SWAP2 SWAP1 PUSH1 0x1 ADD SWAP1 PUSH2 0x42D5 JUMP JUMPDEST JUMPDEST POP SWAP1 POP PUSH2 0x42FE SWAP2 SWAP1 PUSH2 0x4393 JUMP JUMPDEST POP SWAP1 JUMP JUMPDEST DUP3 DUP1 SLOAD DUP3 DUP3 SSTORE SWAP1 PUSH1 0x0 MSTORE PUSH1 0x20 PUSH1 0x0 KECCAK256 SWAP1 DUP2 ADD SWAP3 DUP3 ISZERO PUSH2 0x433E JUMPI SWAP2 PUSH1 0x20 MUL DUP3 ADD JUMPDEST DUP3 DUP2 GT ISZERO PUSH2 0x433D JUMPI DUP3 MLOAD DUP3 SSTORE SWAP2 PUSH1 0x20 ADD SWAP2 SWAP1 PUSH1 0x1 ADD SWAP1 PUSH2 0x4322 JUMP JUMPDEST JUMPDEST POP SWAP1 POP PUSH2 0x434B SWAP2 SWAP1 PUSH2 0x43BB JUMP JUMPDEST POP SWAP1 JUMP JUMPDEST PUSH1 0x40 MLOAD DUP1 PUSH1 0x80 ADD PUSH1 0x40 MSTORE DUP1 PUSH1 0x4 SWAP1 PUSH1 0x20 DUP3 MUL DUP1 CALLDATASIZE DUP4 CALLDATACOPY DUP1 DUP3 ADD SWAP2 POP POP SWAP1 POP POP SWAP1 JUMP JUMPDEST PUSH1 0x40 MLOAD DUP1 PUSH1 0x80 ADD PUSH1 0x40 MSTORE DUP1 PUSH1 0x4 SWAP1 PUSH1 0x20 DUP3 MUL DUP1 CALLDATASIZE DUP4 CALLDATACOPY DUP1 DUP3 ADD SWAP2 POP POP SWAP1 POP POP SWAP1 JUMP JUMPDEST JUMPDEST DUP1 DUP3 GT ISZERO PUSH2 0x43B7 JUMPI PUSH1 0x0 DUP2 DUP2 PUSH2 0x100 EXP DUP2 SLOAD SWAP1 PUSH1 0xFF MUL NOT AND SWAP1 SSTORE POP PUSH1 0x1 ADD PUSH2 0x4394 JUMP JUMPDEST POP SWAP1 JUMP JUMPDEST JUMPDEST DUP1 DUP3 GT ISZERO PUSH2 0x43D4 JUMPI PUSH1 0x0 DUP2 PUSH1 0x0 SWAP1 SSTORE POP PUSH1 0x1 ADD PUSH2 0x43BC JUMP JUMPDEST POP SWAP1 JUMP JUMPDEST PUSH1 0x0 DUP2 CALLDATALOAD SWAP1 POP PUSH2 0x43E7 DUP2 PUSH2 0x6758 JUMP JUMPDEST SWAP3 SWAP2 POP POP JUMP JUMPDEST PUSH1 0x0 DUP2 MLOAD SWAP1 POP PUSH2 0x43FC DUP2 PUSH2 0x6758 JUMP JUMPDEST SWAP3 SWAP2 POP POP JUMP JUMPDEST PUSH1 0x0 DUP3 PUSH1 0x1F DUP4 ADD SLT PUSH2 0x4413 JUMPI PUSH1 0x0 DUP1 REVERT JUMPDEST DUP2 CALLDATALOAD PUSH2 0x4426 PUSH2 0x4421 DUP3 PUSH2 0x5FC6 JUMP JUMPDEST PUSH2 0x5F99 JUMP JUMPDEST SWAP2 POP DUP2 DUP2 DUP4 MSTORE PUSH1 0x20 DUP5 ADD SWAP4 POP PUSH1 0x20 DUP2 ADD SWAP1 POP DUP4 DUP6 PUSH1 0x80 DUP5 MUL DUP3 ADD GT ISZERO PUSH2 0x444B JUMPI PUSH1 0x0 DUP1 REVERT JUMPDEST PUSH1 0x0 JUMPDEST DUP4 DUP2 LT ISZERO PUSH2 0x447B JUMPI DUP2 PUSH2 0x4461 DUP9 DUP3 PUSH2 0x4508 JUMP JUMPDEST DUP5 MSTORE PUSH1 0x20 DUP5 ADD SWAP4 POP PUSH1 0x80 DUP4 ADD SWAP3 POP POP PUSH1 0x1 DUP2 ADD SWAP1 POP PUSH2 0x444E JUMP JUMPDEST POP POP POP POP SWAP3 SWAP2 POP POP JUMP JUMPDEST PUSH1 0x0 DUP3 PUSH1 0x1F DUP4 ADD SLT PUSH2 0x4496 JUMPI PUSH1 0x0 DUP1 REVERT JUMPDEST DUP2 CALLDATALOAD PUSH2 0x44A9 PUSH2 0x44A4 DUP3 PUSH2 0x5FEE JUMP JUMPDEST PUSH2 0x5F99 JUMP JUMPDEST SWAP2 POP DUP2 DUP2 DUP4 MSTORE PUSH1 0x20 DUP5 ADD SWAP4 POP PUSH1 0x20 DUP2 ADD SWAP1 POP DUP4 DUP6 PUSH1 0x20 DUP5 MUL DUP3 ADD GT ISZERO PUSH2 0x44CE JUMPI PUSH1 0x0 DUP1 REVERT JUMPDEST PUSH1 0x0 JUMPDEST DUP4 DUP2 LT ISZERO PUSH2 0x44FE JUMPI DUP2 PUSH2 0x44E4 DUP9 DUP3 PUSH2 0x462F JUMP JUMPDEST DUP5 MSTORE PUSH1 0x20 DUP5 ADD SWAP4 POP PUSH1 0x20 DUP4 ADD SWAP3 POP POP PUSH1 0x1 DUP2 ADD SWAP1 POP PUSH2 0x44D1 JUMP JUMPDEST POP POP POP POP SWAP3 SWAP2 POP POP JUMP JUMPDEST PUSH1 0x0 DUP3 PUSH1 0x1F DUP4 ADD SLT PUSH2 0x4519 JUMPI PUSH1 0x0 DUP1 REVERT JUMPDEST PUSH1 0x4 PUSH2 0x452C PUSH2 0x4527 DUP3 PUSH2 0x6016 JUMP JUMPDEST PUSH2 0x5F99 JUMP JUMPDEST SWAP2 POP DUP2 DUP4 DUP6 PUSH1 0x20 DUP5 MUL DUP3 ADD GT ISZERO PUSH2 0x4542 JUMPI PUSH1 0x0 DUP1 REVERT JUMPDEST PUSH1 0x0 JUMPDEST DUP4 DUP2 LT ISZERO PUSH2 0x4572 JUMPI DUP2 PUSH2 0x4558 DUP9 DUP3 PUSH2 0x466E JUMP JUMPDEST DUP5 MSTORE PUSH1 0x20 DUP5 ADD SWAP4 POP PUSH1 0x20 DUP4 ADD SWAP3 POP POP PUSH1 0x1 DUP2 ADD SWAP1 POP PUSH2 0x4545 JUMP JUMPDEST POP POP POP POP SWAP3 SWAP2 POP POP JUMP JUMPDEST PUSH1 0x0 DUP3 PUSH1 0x1F DUP4 ADD SLT PUSH2 0x458D JUMPI PUSH1 0x0 DUP1 REVERT JUMPDEST PUSH1 0x4 PUSH2 0x45A0 PUSH2 0x459B DUP3 PUSH2 0x6016 JUMP JUMPDEST PUSH2 0x5F99 JUMP JUMPDEST SWAP2 POP DUP2 DUP4 DUP6 PUSH1 0x20 DUP5 MUL DUP3 ADD GT ISZERO PUSH2 0x45B6 JUMPI PUSH1 0x0 DUP1 REVERT JUMPDEST PUSH1 0x0 JUMPDEST DUP4 DUP2 LT ISZERO PUSH2 0x45E6 JUMPI DUP2 PUSH2 0x45CC DUP9 DUP3 PUSH2 0x4683 JUMP JUMPDEST DUP5 MSTORE PUSH1 0x20 DUP5 ADD SWAP4 POP PUSH1 0x20 DUP4 ADD SWAP3 POP POP PUSH1 0x1 DUP2 ADD SWAP1 POP PUSH2 0x45B9 JUMP JUMPDEST POP POP POP POP SWAP3 SWAP2 POP POP JUMP JUMPDEST PUSH1 0x0 DUP2 MLOAD SWAP1 POP PUSH2 0x45FF DUP2 PUSH2 0x676F JUMP JUMPDEST SWAP3 SWAP2 POP POP JUMP JUMPDEST PUSH1 0x0 DUP2 CALLDATALOAD SWAP1 POP PUSH2 0x4614 DUP2 PUSH2 0x6786 JUMP JUMPDEST SWAP3 SWAP2 POP POP JUMP JUMPDEST PUSH1 0x0 DUP2 CALLDATALOAD SWAP1 POP PUSH2 0x4629 DUP2 PUSH2 0x679D JUMP JUMPDEST SWAP3 SWAP2 POP POP JUMP JUMPDEST PUSH1 0x0 DUP2 CALLDATALOAD SWAP1 POP PUSH2 0x463E DUP2 PUSH2 0x67B4 JUMP JUMPDEST SWAP3 SWAP2 POP POP JUMP JUMPDEST PUSH1 0x0 DUP2 MLOAD SWAP1 POP PUSH2 0x4653 DUP2 PUSH2 0x67B4 JUMP JUMPDEST SWAP3 SWAP2 POP POP JUMP JUMPDEST PUSH1 0x0 DUP2 CALLDATALOAD SWAP1 POP PUSH2 0x4668 DUP2 PUSH2 0x67CB JUMP JUMPDEST SWAP3 SWAP2 POP POP JUMP JUMPDEST PUSH1 0x0 DUP2 CALLDATALOAD SWAP1 POP PUSH2 0x467D DUP2 PUSH2 0x67E2 JUMP JUMPDEST SWAP3 SWAP2 POP POP JUMP JUMPDEST PUSH1 0x0 DUP2 MLOAD SWAP1 POP PUSH2 0x4692 DUP2 PUSH2 0x67E2 JUMP JUMPDEST SWAP3 SWAP2 POP POP JUMP JUMPDEST PUSH1 0x0 PUSH1 0x20 DUP3 DUP5 SUB SLT ISZERO PUSH2 0x46AA JUMPI PUSH1 0x0 DUP1 REVERT JUMPDEST PUSH1 0x0 PUSH2 0x46B8 DUP5 DUP3 DUP6 ADD PUSH2 0x43D8 JUMP JUMPDEST SWAP2 POP POP SWAP3 SWAP2 POP POP JUMP JUMPDEST PUSH1 0x0 PUSH1 0x20 DUP3 DUP5 SUB SLT ISZERO PUSH2 0x46D3 JUMPI PUSH1 0x0 DUP1 REVERT JUMPDEST PUSH1 0x0 PUSH2 0x46E1 DUP5 DUP3 DUP6 ADD PUSH2 0x43ED JUMP JUMPDEST SWAP2 POP POP SWAP3 SWAP2 POP POP JUMP JUMPDEST PUSH1 0x0 DUP1 PUSH1 0x40 DUP4 DUP6 SUB SLT ISZERO PUSH2 0x46FD JUMPI PUSH1 0x0 DUP1 REVERT JUMPDEST PUSH1 0x0 PUSH2 0x470B DUP6 DUP3 DUP7 ADD PUSH2 0x43D8 JUMP JUMPDEST SWAP3 POP POP PUSH1 0x20 PUSH2 0x471C DUP6 DUP3 DUP7 ADD PUSH2 0x462F JUMP JUMPDEST SWAP2 POP POP SWAP3 POP SWAP3 SWAP1 POP JUMP JUMPDEST PUSH1 0x0 PUSH1 0x20 DUP3 DUP5 SUB SLT ISZERO PUSH2 0x4738 JUMPI PUSH1 0x0 DUP1 REVERT JUMPDEST PUSH1 0x0 DUP3 ADD CALLDATALOAD PUSH8 0xFFFFFFFFFFFFFFFF DUP2 GT ISZERO PUSH2 0x4752 JUMPI PUSH1 0x0 DUP1 REVERT JUMPDEST PUSH2 0x475E DUP5 DUP3 DUP6 ADD PUSH2 0x4485 JUMP JUMPDEST SWAP2 POP POP SWAP3 SWAP2 POP POP JUMP JUMPDEST PUSH1 0x0 PUSH1 0x80 DUP3 DUP5 SUB SLT ISZERO PUSH2 0x4779 JUMPI PUSH1 0x0 DUP1 REVERT JUMPDEST PUSH1 0x0 PUSH2 0x4787 DUP5 DUP3 DUP6 ADD PUSH2 0x4508 JUMP JUMPDEST SWAP2 POP POP SWAP3 SWAP2 POP POP JUMP JUMPDEST PUSH1 0x0 PUSH1 0x80 DUP3 DUP5 SUB SLT ISZERO PUSH2 0x47A2 JUMPI PUSH1 0x0 DUP1 REVERT JUMPDEST PUSH1 0x0 PUSH2 0x47B0 DUP5 DUP3 DUP6 ADD PUSH2 0x457C JUMP JUMPDEST SWAP2 POP POP SWAP3 SWAP2 POP POP JUMP JUMPDEST PUSH1 0x0 PUSH1 0x20 DUP3 DUP5 SUB SLT ISZERO PUSH2 0x47CB JUMPI PUSH1 0x0 DUP1 REVERT JUMPDEST PUSH1 0x0 PUSH2 0x47D9 DUP5 DUP3 DUP6 ADD PUSH2 0x45F0 JUMP JUMPDEST SWAP2 POP POP SWAP3 SWAP2 POP POP JUMP JUMPDEST PUSH1 0x0 DUP1 PUSH1 0x0 DUP1 PUSH1 0x0 DUP1 PUSH1 0xC0 DUP8 DUP10 SUB SLT ISZERO PUSH2 0x47FB JUMPI PUSH1 0x0 DUP1 REVERT JUMPDEST PUSH1 0x0 PUSH2 0x4809 DUP10 DUP3 DUP11 ADD PUSH2 0x4605 JUMP JUMPDEST SWAP7 POP POP PUSH1 0x20 PUSH2 0x481A DUP10 DUP3 DUP11 ADD PUSH2 0x461A JUMP JUMPDEST SWAP6 POP POP PUSH1 0x40 PUSH2 0x482B DUP10 DUP3 DUP11 ADD PUSH2 0x462F JUMP JUMPDEST SWAP5 POP POP PUSH1 0x60 PUSH2 0x483C DUP10 DUP3 DUP11 ADD PUSH2 0x466E JUMP JUMPDEST SWAP4 POP POP PUSH1 0x80 PUSH2 0x484D DUP10 DUP3 DUP11 ADD PUSH2 0x43D8 JUMP JUMPDEST SWAP3 POP POP PUSH1 0xA0 PUSH2 0x485E DUP10 DUP3 DUP11 ADD PUSH2 0x43D8 JUMP JUMPDEST SWAP2 POP POP SWAP3 SWAP6 POP SWAP3 SWAP6 POP SWAP3 SWAP6 JUMP JUMPDEST PUSH1 0x0 PUSH1 0x20 DUP3 DUP5 SUB SLT ISZERO PUSH2 0x487D JUMPI PUSH1 0x0 DUP1 REVERT JUMPDEST PUSH1 0x0 PUSH2 0x488B DUP5 DUP3 DUP6 ADD PUSH2 0x462F JUMP JUMPDEST SWAP2 POP POP SWAP3 SWAP2 POP POP JUMP JUMPDEST PUSH1 0x0 PUSH1 0x20 DUP3 DUP5 SUB SLT ISZERO PUSH2 0x48A6 JUMPI PUSH1 0x0 DUP1 REVERT JUMPDEST PUSH1 0x0 PUSH2 0x48B4 DUP5 DUP3 DUP6 ADD PUSH2 0x4644 JUMP JUMPDEST SWAP2 POP POP SWAP3 SWAP2 POP POP JUMP JUMPDEST PUSH1 0x0 DUP1 PUSH1 0x40 DUP4 DUP6 SUB SLT ISZERO PUSH2 0x48D0 JUMPI PUSH1 0x0 DUP1 REVERT JUMPDEST PUSH1 0x0 PUSH2 0x48DE DUP6 DUP3 DUP7 ADD PUSH2 0x462F JUMP JUMPDEST SWAP3 POP POP PUSH1 0x20 DUP4 ADD CALLDATALOAD PUSH8 0xFFFFFFFFFFFFFFFF DUP2 GT ISZERO PUSH2 0x48FB JUMPI PUSH1 0x0 DUP1 REVERT JUMPDEST PUSH2 0x4907 DUP6 DUP3 DUP7 ADD PUSH2 0x4402 JUMP JUMPDEST SWAP2 POP POP SWAP3 POP SWAP3 SWAP1 POP JUMP JUMPDEST PUSH1 0x0 DUP1 PUSH1 0xA0 DUP4 DUP6 SUB SLT ISZERO PUSH2 0x4924 JUMPI PUSH1 0x0 DUP1 REVERT JUMPDEST PUSH1 0x0 PUSH2 0x4932 DUP6 DUP3 DUP7 ADD PUSH2 0x462F JUMP JUMPDEST SWAP3 POP POP PUSH1 0x20 PUSH2 0x4943 DUP6 DUP3 DUP7 ADD PUSH2 0x4508 JUMP JUMPDEST SWAP2 POP POP SWAP3 POP SWAP3 SWAP1 POP JUMP JUMPDEST PUSH1 0x0 DUP1 PUSH1 0x40 DUP4 DUP6 SUB SLT ISZERO PUSH2 0x4960 JUMPI PUSH1 0x0 DUP1 REVERT JUMPDEST PUSH1 0x0 PUSH2 0x496E DUP6 DUP3 DUP7 ADD PUSH2 0x462F JUMP JUMPDEST SWAP3 POP POP PUSH1 0x20 PUSH2 0x497F DUP6 DUP3 DUP7 ADD PUSH2 0x462F JUMP JUMPDEST SWAP2 POP POP SWAP3 POP SWAP3 SWAP1 POP JUMP JUMPDEST PUSH1 0x0 DUP1 PUSH1 0x40 DUP4 DUP6 SUB SLT ISZERO PUSH2 0x499C JUMPI PUSH1 0x0 DUP1 REVERT JUMPDEST PUSH1 0x0 PUSH2 0x49AA DUP6 DUP3 DUP7 ADD PUSH2 0x462F JUMP JUMPDEST SWAP3 POP POP PUSH1 0x20 PUSH2 0x49BB DUP6 DUP3 DUP7 ADD PUSH2 0x4659 JUMP JUMPDEST SWAP2 POP POP SWAP3 POP SWAP3 SWAP1 POP JUMP JUMPDEST PUSH1 0x0 PUSH1 0x20 DUP3 DUP5 SUB SLT ISZERO PUSH2 0x49D7 JUMPI PUSH1 0x0 DUP1 REVERT JUMPDEST PUSH1 0x0 PUSH2 0x49E5 DUP5 DUP3 DUP6 ADD PUSH2 0x466E JUMP JUMPDEST SWAP2 POP POP SWAP3 SWAP2 POP POP JUMP JUMPDEST PUSH1 0x0 DUP1 PUSH1 0x0 PUSH1 0x60 DUP5 DUP7 SUB SLT ISZERO PUSH2 0x4A03 JUMPI PUSH1 0x0 DUP1 REVERT JUMPDEST PUSH1 0x0 PUSH2 0x4A11 DUP7 DUP3 DUP8 ADD PUSH2 0x466E JUMP JUMPDEST SWAP4 POP POP PUSH1 0x20 PUSH2 0x4A22 DUP7 DUP3 DUP8 ADD PUSH2 0x466E JUMP JUMPDEST SWAP3 POP POP PUSH1 0x40 PUSH2 0x4A33 DUP7 DUP3 DUP8 ADD PUSH2 0x466E JUMP JUMPDEST SWAP2 POP POP SWAP3 POP SWAP3 POP SWAP3 JUMP JUMPDEST PUSH1 0x0 PUSH2 0x4A49 DUP4 DUP4 PUSH2 0x5A0B JUMP JUMPDEST PUSH1 0x20 DUP4 ADD SWAP1 POP SWAP3 SWAP2 POP POP JUMP JUMPDEST PUSH1 0x0 PUSH2 0x4A61 DUP4 DUP4 PUSH2 0x5A29 JUMP JUMPDEST PUSH1 0x20 DUP4 ADD SWAP1 POP SWAP3 SWAP2 POP POP JUMP JUMPDEST PUSH1 0x0 PUSH2 0x4A79 DUP4 DUP4 PUSH2 0x5A38 JUMP JUMPDEST PUSH1 0x20 DUP4 ADD SWAP1 POP SWAP3 SWAP2 POP POP JUMP JUMPDEST PUSH2 0x4A8E DUP2 PUSH2 0x61B6 JUMP JUMPDEST DUP3 MSTORE POP POP JUMP JUMPDEST PUSH2 0x4A9D DUP2 PUSH2 0x611F JUMP JUMPDEST DUP3 MSTORE POP POP JUMP JUMPDEST PUSH1 0x0 PUSH2 0x4AAE DUP3 PUSH2 0x6066 JUMP JUMPDEST PUSH2 0x4AB8 DUP2 DUP6 PUSH2 0x60CF JUMP JUMPDEST SWAP4 POP PUSH2 0x4AC3 DUP4 PUSH2 0x6038 JUMP JUMPDEST DUP1 PUSH1 0x0 JUMPDEST DUP4 DUP2 LT ISZERO PUSH2 0x4AF4 JUMPI DUP2 MLOAD PUSH2 0x4ADB DUP9 DUP3 PUSH2 0x4A3D JUMP JUMPDEST SWAP8 POP PUSH2 0x4AE6 DUP4 PUSH2 0x60A8 JUMP JUMPDEST SWAP3 POP POP PUSH1 0x1 DUP2 ADD SWAP1 POP PUSH2 0x4AC7 JUMP JUMPDEST POP DUP6 SWAP4 POP POP POP POP SWAP3 SWAP2 POP POP JUMP JUMPDEST PUSH2 0x4B0A DUP2 PUSH2 0x6071 JUMP JUMPDEST PUSH2 0x4B14 DUP2 DUP5 PUSH2 0x60E0 JUMP JUMPDEST SWAP3 POP PUSH2 0x4B1F DUP3 PUSH2 0x6048 JUMP JUMPDEST DUP1 PUSH1 0x0 JUMPDEST DUP4 DUP2 LT ISZERO PUSH2 0x4B50 JUMPI DUP2 MLOAD PUSH2 0x4B37 DUP8 DUP3 PUSH2 0x4A55 JUMP JUMPDEST SWAP7 POP PUSH2 0x4B42 DUP4 PUSH2 0x60B5 JUMP JUMPDEST SWAP3 POP POP PUSH1 0x1 DUP2 ADD SWAP1 POP PUSH2 0x4B23 JUMP JUMPDEST POP POP POP POP POP POP JUMP JUMPDEST PUSH2 0x4B61 DUP2 PUSH2 0x607C JUMP JUMPDEST PUSH2 0x4B6B DUP2 DUP5 PUSH2 0x60EB JUMP JUMPDEST SWAP3 POP PUSH2 0x4B76 DUP3 PUSH2 0x6052 JUMP JUMPDEST DUP1 PUSH1 0x0 JUMPDEST DUP4 DUP2 LT ISZERO PUSH2 0x4BA7 JUMPI DUP2 MLOAD PUSH2 0x4B8E DUP8 DUP3 PUSH2 0x4A6D JUMP JUMPDEST SWAP7 POP PUSH2 0x4B99 DUP4 PUSH2 0x60C2 JUMP JUMPDEST SWAP3 POP POP PUSH1 0x1 DUP2 ADD SWAP1 POP PUSH2 0x4B7A JUMP JUMPDEST POP POP POP POP POP POP JUMP JUMPDEST PUSH2 0x4BB8 DUP2 PUSH2 0x6087 JUMP JUMPDEST PUSH2 0x4BC2 DUP2 DUP5 PUSH2 0x60EB JUMP JUMPDEST SWAP3 POP DUP3 PUSH2 0x4BCE DUP4 PUSH2 0x605C JUMP JUMPDEST PUSH1 0x0 DUP1 ISZERO PUSH2 0x4EFA JUMPI JUMPDEST DUP4 PUSH1 0x1 PUSH1 0x20 SUB DUP3 ADD LT ISZERO PUSH2 0x4EF9 JUMPI DUP2 SLOAD PUSH2 0x4BF9 DUP8 PUSH2 0x4BF4 DUP4 PUSH2 0x6267 JUMP JUMPDEST PUSH2 0x5A38 JUMP JUMPDEST PUSH1 0x20 DUP8 ADD SWAP7 POP PUSH2 0x4C11 DUP8 PUSH2 0x4C0C DUP4 PUSH2 0x6385 JUMP JUMPDEST PUSH2 0x5A38 JUMP JUMPDEST PUSH1 0x20 DUP8 ADD SWAP7 POP PUSH2 0x4C29 DUP8 PUSH2 0x4C24 DUP4 PUSH2 0x64A3 JUMP JUMPDEST PUSH2 0x5A38 JUMP JUMPDEST PUSH1 0x20 DUP8 ADD SWAP7 POP PUSH2 0x4C41 DUP8 PUSH2 0x4C3C DUP4 PUSH2 0x64F1 JUMP JUMPDEST PUSH2 0x5A38 JUMP JUMPDEST PUSH1 0x20 DUP8 ADD SWAP7 POP PUSH2 0x4C59 DUP8 PUSH2 0x4C54 DUP4 PUSH2 0x650B JUMP JUMPDEST PUSH2 0x5A38 JUMP JUMPDEST PUSH1 0x20 DUP8 ADD SWAP7 POP PUSH2 0x4C71 DUP8 PUSH2 0x4C6C DUP4 PUSH2 0x6525 JUMP JUMPDEST PUSH2 0x5A38 JUMP JUMPDEST PUSH1 0x20 DUP8 ADD SWAP7 POP PUSH2 0x4C89 DUP8 PUSH2 0x4C84 DUP4 PUSH2 0x653F JUMP JUMPDEST PUSH2 0x5A38 JUMP JUMPDEST PUSH1 0x20 DUP8 ADD SWAP7 POP PUSH2 0x4CA1 DUP8 PUSH2 0x4C9C DUP4 PUSH2 0x6559 JUMP JUMPDEST PUSH2 0x5A38 JUMP JUMPDEST PUSH1 0x20 DUP8 ADD SWAP7 POP PUSH2 0x4CB9 DUP8 PUSH2 0x4CB4 DUP4 PUSH2 0x6573 JUMP JUMPDEST PUSH2 0x5A38 JUMP JUMPDEST PUSH1 0x20 DUP8 ADD SWAP7 POP PUSH2 0x4CD1 DUP8 PUSH2 0x4CCC DUP4 PUSH2 0x658D JUMP JUMPDEST PUSH2 0x5A38 JUMP JUMPDEST PUSH1 0x20 DUP8 ADD SWAP7 POP PUSH2 0x4CE9 DUP8 PUSH2 0x4CE4 DUP4 PUSH2 0x6281 JUMP JUMPDEST PUSH2 0x5A38 JUMP JUMPDEST PUSH1 0x20 DUP8 ADD SWAP7 POP PUSH2 0x4D01 DUP8 PUSH2 0x4CFC DUP4 PUSH2 0x629B JUMP JUMPDEST PUSH2 0x5A38 JUMP JUMPDEST PUSH1 0x20 DUP8 ADD SWAP7 POP PUSH2 0x4D19 DUP8 PUSH2 0x4D14 DUP4 PUSH2 0x62B5 JUMP JUMPDEST PUSH2 0x5A38 JUMP JUMPDEST PUSH1 0x20 DUP8 ADD SWAP7 POP PUSH2 0x4D31 DUP8 PUSH2 0x4D2C DUP4 PUSH2 0x62CF JUMP JUMPDEST PUSH2 0x5A38 JUMP JUMPDEST PUSH1 0x20 DUP8 ADD SWAP7 POP PUSH2 0x4D49 DUP8 PUSH2 0x4D44 DUP4 PUSH2 0x62E9 JUMP JUMPDEST PUSH2 0x5A38 JUMP JUMPDEST PUSH1 0x20 DUP8 ADD SWAP7 POP PUSH2 0x4D61 DUP8 PUSH2 0x4D5C DUP4 PUSH2 0x6303 JUMP JUMPDEST PUSH2 0x5A38 JUMP JUMPDEST PUSH1 0x20 DUP8 ADD SWAP7 POP PUSH2 0x4D79 DUP8 PUSH2 0x4D74 DUP4 PUSH2 0x631D JUMP JUMPDEST PUSH2 0x5A38 JUMP JUMPDEST PUSH1 0x20 DUP8 ADD SWAP7 POP PUSH2 0x4D91 DUP8 PUSH2 0x4D8C DUP4 PUSH2 0x6337 JUMP JUMPDEST PUSH2 0x5A38 JUMP JUMPDEST PUSH1 0x20 DUP8 ADD SWAP7 POP PUSH2 0x4DA9 DUP8 PUSH2 0x4DA4 DUP4 PUSH2 0x6351 JUMP JUMPDEST PUSH2 0x5A38 JUMP JUMPDEST PUSH1 0x20 DUP8 ADD SWAP7 POP PUSH2 0x4DC1 DUP8 PUSH2 0x4DBC DUP4 PUSH2 0x636B JUMP JUMPDEST PUSH2 0x5A38 JUMP JUMPDEST PUSH1 0x20 DUP8 ADD SWAP7 POP PUSH2 0x4DD9 DUP8 PUSH2 0x4DD4 DUP4 PUSH2 0x639F JUMP JUMPDEST PUSH2 0x5A38 JUMP JUMPDEST PUSH1 0x20 DUP8 ADD SWAP7 POP PUSH2 0x4DF1 DUP8 PUSH2 0x4DEC DUP4 PUSH2 0x63B9 JUMP JUMPDEST PUSH2 0x5A38 JUMP JUMPDEST PUSH1 0x20 DUP8 ADD SWAP7 POP PUSH2 0x4E09 DUP8 PUSH2 0x4E04 DUP4 PUSH2 0x63D3 JUMP JUMPDEST PUSH2 0x5A38 JUMP JUMPDEST PUSH1 0x20 DUP8 ADD SWAP7 POP PUSH2 0x4E21 DUP8 PUSH2 0x4E1C DUP4 PUSH2 0x63ED JUMP JUMPDEST PUSH2 0x5A38 JUMP JUMPDEST PUSH1 0x20 DUP8 ADD SWAP7 POP PUSH2 0x4E39 DUP8 PUSH2 0x4E34 DUP4 PUSH2 0x6407 JUMP JUMPDEST PUSH2 0x5A38 JUMP JUMPDEST PUSH1 0x20 DUP8 ADD SWAP7 POP PUSH2 0x4E51 DUP8 PUSH2 0x4E4C DUP4 PUSH2 0x6421 JUMP JUMPDEST PUSH2 0x5A38 JUMP JUMPDEST PUSH1 0x20 DUP8 ADD SWAP7 POP PUSH2 0x4E69 DUP8 PUSH2 0x4E64 DUP4 PUSH2 0x643B JUMP JUMPDEST PUSH2 0x5A38 JUMP JUMPDEST PUSH1 0x20 DUP8 ADD SWAP7 POP PUSH2 0x4E81 DUP8 PUSH2 0x4E7C DUP4 PUSH2 0x6455 JUMP JUMPDEST PUSH2 0x5A38 JUMP JUMPDEST PUSH1 0x20 DUP8 ADD SWAP7 POP PUSH2 0x4E99 DUP8 PUSH2 0x4E94 DUP4 PUSH2 0x646F JUMP JUMPDEST PUSH2 0x5A38 JUMP JUMPDEST PUSH1 0x20 DUP8 ADD SWAP7 POP PUSH2 0x4EB1 DUP8 PUSH2 0x4EAC DUP4 PUSH2 0x6489 JUMP JUMPDEST PUSH2 0x5A38 JUMP JUMPDEST PUSH1 0x20 DUP8 ADD SWAP7 POP PUSH2 0x4EC9 DUP8 PUSH2 0x4EC4 DUP4 PUSH2 0x64BD JUMP JUMPDEST PUSH2 0x5A38 JUMP JUMPDEST PUSH1 0x20 DUP8 ADD SWAP7 POP PUSH2 0x4EE1 DUP8 PUSH2 0x4EDC DUP4 PUSH2 0x64D7 JUMP JUMPDEST PUSH2 0x5A38 JUMP JUMPDEST PUSH1 0x20 DUP8 ADD SWAP7 POP PUSH1 0x1 DUP4 ADD SWAP3 POP POP PUSH1 0x20 DUP2 ADD SWAP1 POP PUSH2 0x4BD7 JUMP JUMPDEST JUMPDEST PUSH1 0x1 ISZERO PUSH2 0x53C5 JUMPI DUP2 SLOAD PUSH1 0x1 ISZERO PUSH2 0x4F29 JUMPI PUSH2 0x4F1C DUP8 PUSH2 0x4F17 DUP4 PUSH2 0x6267 JUMP JUMPDEST PUSH2 0x5A38 JUMP JUMPDEST PUSH1 0x20 DUP8 ADD SWAP7 POP PUSH1 0x1 DUP3 ADD SWAP2 POP JUMPDEST PUSH1 0x1 ISZERO PUSH2 0x4F4F JUMPI PUSH2 0x4F42 DUP8 PUSH2 0x4F3D DUP4 PUSH2 0x6385 JUMP JUMPDEST PUSH2 0x5A38 JUMP JUMPDEST PUSH1 0x20 DUP8 ADD SWAP7 POP PUSH1 0x1 DUP3 ADD SWAP2 POP JUMPDEST PUSH1 0x1 ISZERO PUSH2 0x4F75 JUMPI PUSH2 0x4F68 DUP8 PUSH2 0x4F63 DUP4 PUSH2 0x64A3 JUMP JUMPDEST PUSH2 0x5A38 JUMP JUMPDEST PUSH1 0x20 DUP8 ADD SWAP7 POP PUSH1 0x1 DUP3 ADD SWAP2 POP JUMPDEST PUSH1 0x1 ISZERO PUSH2 0x4F9B JUMPI PUSH2 0x4F8E DUP8 PUSH2 0x4F89 DUP4 PUSH2 0x64F1 JUMP JUMPDEST PUSH2 0x5A38 JUMP JUMPDEST PUSH1 0x20 DUP8 ADD SWAP7 POP PUSH1 0x1 DUP3 ADD SWAP2 POP JUMPDEST PUSH1 0x0 ISZERO PUSH2 0x4FC1 JUMPI PUSH2 0x4FB4 DUP8 PUSH2 0x4FAF DUP4 PUSH2 0x650B JUMP JUMPDEST PUSH2 0x5A38 JUMP JUMPDEST PUSH1 0x20 DUP8 ADD SWAP7 POP PUSH1 0x1 DUP3 ADD SWAP2 POP JUMPDEST PUSH1 0x0 ISZERO PUSH2 0x4FE7 JUMPI PUSH2 0x4FDA DUP8 PUSH2 0x4FD5 DUP4 PUSH2 0x6525 JUMP JUMPDEST PUSH2 0x5A38 JUMP JUMPDEST PUSH1 0x20 DUP8 ADD SWAP7 POP PUSH1 0x1 DUP3 ADD SWAP2 POP JUMPDEST PUSH1 0x0 ISZERO PUSH2 0x500D JUMPI PUSH2 0x5000 DUP8 PUSH2 0x4FFB DUP4 PUSH2 0x653F JUMP JUMPDEST PUSH2 0x5A38 JUMP JUMPDEST PUSH1 0x20 DUP8 ADD SWAP7 POP PUSH1 0x1 DUP3 ADD SWAP2 POP JUMPDEST PUSH1 0x0 ISZERO PUSH2 0x5033 JUMPI PUSH2 0x5026 DUP8 PUSH2 0x5021 DUP4 PUSH2 0x6559 JUMP JUMPDEST PUSH2 0x5A38 JUMP JUMPDEST PUSH1 0x20 DUP8 ADD SWAP7 POP PUSH1 0x1 DUP3 ADD SWAP2 POP JUMPDEST PUSH1 0x0 ISZERO PUSH2 0x5059 JUMPI PUSH2 0x504C DUP8 PUSH2 0x5047 DUP4 PUSH2 0x6573 JUMP JUMPDEST PUSH2 0x5A38 JUMP JUMPDEST PUSH1 0x20 DUP8 ADD SWAP7 POP PUSH1 0x1 DUP3 ADD SWAP2 POP JUMPDEST PUSH1 0x0 ISZERO PUSH2 0x507F JUMPI PUSH2 0x5072 DUP8 PUSH2 0x506D DUP4 PUSH2 0x658D JUMP JUMPDEST PUSH2 0x5A38 JUMP JUMPDEST PUSH1 0x20 DUP8 ADD SWAP7 POP PUSH1 0x1 DUP3 ADD SWAP2 POP JUMPDEST PUSH1 0x0 ISZERO PUSH2 0x50A5 JUMPI PUSH2 0x5098 DUP8 PUSH2 0x5093 DUP4 PUSH2 0x6281 JUMP JUMPDEST PUSH2 0x5A38 JUMP JUMPDEST PUSH1 0x20 DUP8 ADD SWAP7 POP PUSH1 0x1 DUP3 ADD SWAP2 POP JUMPDEST PUSH1 0x0 ISZERO PUSH2 0x50CB JUMPI PUSH2 0x50BE DUP8 PUSH2 0x50B9 DUP4 PUSH2 0x629B JUMP JUMPDEST PUSH2 0x5A38 JUMP JUMPDEST PUSH1 0x20 DUP8 ADD SWAP7 POP PUSH1 0x1 DUP3 ADD SWAP2 POP JUMPDEST PUSH1 0x0 ISZERO PUSH2 0x50F1 JUMPI PUSH2 0x50E4 DUP8 PUSH2 0x50DF DUP4 PUSH2 0x62B5 JUMP JUMPDEST PUSH2 0x5A38 JUMP JUMPDEST PUSH1 0x20 DUP8 ADD SWAP7 POP PUSH1 0x1 DUP3 ADD SWAP2 POP JUMPDEST PUSH1 0x0 ISZERO PUSH2 0x5117 JUMPI PUSH2 0x510A DUP8 PUSH2 0x5105 DUP4 PUSH2 0x62CF JUMP JUMPDEST PUSH2 0x5A38 JUMP JUMPDEST PUSH1 0x20 DUP8 ADD SWAP7 POP PUSH1 0x1 DUP3 ADD SWAP2 POP JUMPDEST PUSH1 0x0 ISZERO PUSH2 0x513D JUMPI PUSH2 0x5130 DUP8 PUSH2 0x512B DUP4 PUSH2 0x62E9 JUMP JUMPDEST PUSH2 0x5A38 JUMP JUMPDEST PUSH1 0x20 DUP8 ADD SWAP7 POP PUSH1 0x1 DUP3 ADD SWAP2 POP JUMPDEST PUSH1 0x0 ISZERO PUSH2 0x5163 JUMPI PUSH2 0x5156 DUP8 PUSH2 0x5151 DUP4 PUSH2 0x6303 JUMP JUMPDEST PUSH2 0x5A38 JUMP JUMPDEST PUSH1 0x20 DUP8 ADD SWAP7 POP PUSH1 0x1 DUP3 ADD SWAP2 POP JUMPDEST PUSH1 0x0 ISZERO PUSH2 0x5189 JUMPI PUSH2 0x517C DUP8 PUSH2 0x5177 DUP4 PUSH2 0x631D JUMP JUMPDEST PUSH2 0x5A38 JUMP JUMPDEST PUSH1 0x20 DUP8 ADD SWAP7 POP PUSH1 0x1 DUP3 ADD SWAP2 POP JUMPDEST PUSH1 0x0 ISZERO PUSH2 0x51AF JUMPI PUSH2 0x51A2 DUP8 PUSH2 0x519D DUP4 PUSH2 0x6337 JUMP JUMPDEST PUSH2 0x5A38 JUMP JUMPDEST PUSH1 0x20 DUP8 ADD SWAP7 POP PUSH1 0x1 DUP3 ADD SWAP2 POP JUMPDEST PUSH1 0x0 ISZERO PUSH2 0x51D5 JUMPI PUSH2 0x51C8 DUP8 PUSH2 0x51C3 DUP4 PUSH2 0x6351 JUMP JUMPDEST PUSH2 0x5A38 JUMP JUMPDEST PUSH1 0x20 DUP8 ADD SWAP7 POP PUSH1 0x1 DUP3 ADD SWAP2 POP JUMPDEST PUSH1 0x0 ISZERO PUSH2 0x51FB JUMPI PUSH2 0x51EE DUP8 PUSH2 0x51E9 DUP4 PUSH2 0x636B JUMP JUMPDEST PUSH2 0x5A38 JUMP JUMPDEST PUSH1 0x20 DUP8 ADD SWAP7 POP PUSH1 0x1 DUP3 ADD SWAP2 POP JUMPDEST PUSH1 0x0 ISZERO PUSH2 0x5221 JUMPI PUSH2 0x5214 DUP8 PUSH2 0x520F DUP4 PUSH2 0x639F JUMP JUMPDEST PUSH2 0x5A38 JUMP JUMPDEST PUSH1 0x20 DUP8 ADD SWAP7 POP PUSH1 0x1 DUP3 ADD SWAP2 POP JUMPDEST PUSH1 0x0 ISZERO PUSH2 0x5247 JUMPI PUSH2 0x523A DUP8 PUSH2 0x5235 DUP4 PUSH2 0x63B9 JUMP JUMPDEST PUSH2 0x5A38 JUMP JUMPDEST PUSH1 0x20 DUP8 ADD SWAP7 POP PUSH1 0x1 DUP3 ADD SWAP2 POP JUMPDEST PUSH1 0x0 ISZERO PUSH2 0x526D JUMPI PUSH2 0x5260 DUP8 PUSH2 0x525B DUP4 PUSH2 0x63D3 JUMP JUMPDEST PUSH2 0x5A38 JUMP JUMPDEST PUSH1 0x20 DUP8 ADD SWAP7 POP PUSH1 0x1 DUP3 ADD SWAP2 POP JUMPDEST PUSH1 0x0 ISZERO PUSH2 0x5293 JUMPI PUSH2 0x5286 DUP8 PUSH2 0x5281 DUP4 PUSH2 0x63ED JUMP JUMPDEST PUSH2 0x5A38 JUMP JUMPDEST PUSH1 0x20 DUP8 ADD SWAP7 POP PUSH1 0x1 DUP3 ADD SWAP2 POP JUMPDEST PUSH1 0x0 ISZERO PUSH2 0x52B9 JUMPI PUSH2 0x52AC DUP8 PUSH2 0x52A7 DUP4 PUSH2 0x6407 JUMP JUMPDEST PUSH2 0x5A38 JUMP JUMPDEST PUSH1 0x20 DUP8 ADD SWAP7 POP PUSH1 0x1 DUP3 ADD SWAP2 POP JUMPDEST PUSH1 0x0 ISZERO PUSH2 0x52DF JUMPI PUSH2 0x52D2 DUP8 PUSH2 0x52CD DUP4 PUSH2 0x6421 JUMP JUMPDEST PUSH2 0x5A38 JUMP JUMPDEST PUSH1 0x20 DUP8 ADD SWAP7 POP PUSH1 0x1 DUP3 ADD SWAP2 POP JUMPDEST PUSH1 0x0 ISZERO PUSH2 0x5305 JUMPI PUSH2 0x52F8 DUP8 PUSH2 0x52F3 DUP4 PUSH2 0x643B JUMP JUMPDEST PUSH2 0x5A38 JUMP JUMPDEST PUSH1 0x20 DUP8 ADD SWAP7 POP PUSH1 0x1 DUP3 ADD SWAP2 POP JUMPDEST PUSH1 0x0 ISZERO PUSH2 0x532B JUMPI PUSH2 0x531E DUP8 PUSH2 0x5319 DUP4 PUSH2 0x6455 JUMP JUMPDEST PUSH2 0x5A38 JUMP JUMPDEST PUSH1 0x20 DUP8 ADD SWAP7 POP PUSH1 0x1 DUP3 ADD SWAP2 POP JUMPDEST PUSH1 0x0 ISZERO PUSH2 0x5351 JUMPI PUSH2 0x5344 DUP8 PUSH2 0x533F DUP4 PUSH2 0x646F JUMP JUMPDEST PUSH2 0x5A38 JUMP JUMPDEST PUSH1 0x20 DUP8 ADD SWAP7 POP PUSH1 0x1 DUP3 ADD SWAP2 POP JUMPDEST PUSH1 0x0 ISZERO PUSH2 0x5377 JUMPI PUSH2 0x536A DUP8 PUSH2 0x5365 DUP4 PUSH2 0x6489 JUMP JUMPDEST PUSH2 0x5A38 JUMP JUMPDEST PUSH1 0x20 DUP8 ADD SWAP7 POP PUSH1 0x1 DUP3 ADD SWAP2 POP JUMPDEST PUSH1 0x0 ISZERO PUSH2 0x539D JUMPI PUSH2 0x5390 DUP8 PUSH2 0x538B DUP4 PUSH2 0x64BD JUMP JUMPDEST PUSH2 0x5A38 JUMP JUMPDEST PUSH1 0x20 DUP8 ADD SWAP7 POP PUSH1 0x1 DUP3 ADD SWAP2 POP JUMPDEST PUSH1 0x0 ISZERO PUSH2 0x53C3 JUMPI PUSH2 0x53B6 DUP8 PUSH2 0x53B1 DUP4 PUSH2 0x64D7 JUMP JUMPDEST PUSH2 0x5A38 JUMP JUMPDEST PUSH1 0x20 DUP8 ADD SWAP7 POP PUSH1 0x1 DUP3 ADD SWAP2 POP JUMPDEST POP JUMPDEST POP POP POP POP POP POP JUMP JUMPDEST PUSH2 0x53D6 DUP2 PUSH2 0x6131 JUMP JUMPDEST DUP3 MSTORE POP POP JUMP JUMPDEST PUSH2 0x53E5 DUP2 PUSH2 0x613D JUMP JUMPDEST DUP3 MSTORE POP POP JUMP JUMPDEST PUSH1 0x0 PUSH2 0x53F6 DUP3 PUSH2 0x6092 JUMP JUMPDEST PUSH2 0x5400 DUP2 DUP6 PUSH2 0x60F6 JUMP JUMPDEST SWAP4 POP PUSH2 0x5410 DUP2 DUP6 PUSH1 0x20 DUP7 ADD PUSH2 0x6234 JUMP JUMPDEST DUP1 DUP5 ADD SWAP2 POP POP SWAP3 SWAP2 POP POP JUMP JUMPDEST PUSH2 0x5425 DUP2 PUSH2 0x61C8 JUMP JUMPDEST DUP3 MSTORE POP POP JUMP JUMPDEST PUSH2 0x5434 DUP2 PUSH2 0x61EC JUMP JUMPDEST DUP3 MSTORE POP POP JUMP JUMPDEST PUSH1 0x0 PUSH2 0x5445 DUP3 PUSH2 0x609D JUMP JUMPDEST PUSH2 0x544F DUP2 DUP6 PUSH2 0x6101 JUMP JUMPDEST SWAP4 POP PUSH2 0x545F DUP2 DUP6 PUSH1 0x20 DUP7 ADD PUSH2 0x6234 JUMP JUMPDEST PUSH2 0x5468 DUP2 PUSH2 0x65A7 JUMP JUMPDEST DUP5 ADD SWAP2 POP POP SWAP3 SWAP2 POP POP JUMP JUMPDEST PUSH1 0x0 PUSH2 0x5480 PUSH1 0x6 DUP4 PUSH2 0x6101 JUMP JUMPDEST SWAP2 POP PUSH32 0x72657365743F0000000000000000000000000000000000000000000000000000 PUSH1 0x0 DUP4 ADD MSTORE PUSH1 0x20 DUP3 ADD SWAP1 POP SWAP2 SWAP1 POP JUMP JUMPDEST PUSH1 0x0 PUSH2 0x54C0 PUSH1 0xA DUP4 PUSH2 0x6101 JUMP JUMPDEST SWAP2 POP PUSH32 0x6E6F742064726177656400000000000000000000000000000000000000000000 PUSH1 0x0 DUP4 ADD MSTORE PUSH1 0x20 DUP3 ADD SWAP1 POP SWAP2 SWAP1 POP JUMP JUMPDEST PUSH1 0x0 PUSH2 0x5500 PUSH1 0x13 DUP4 PUSH2 0x6101 JUMP JUMPDEST SWAP2 POP PUSH32 0x657863656564206E756D6265722073636F706500000000000000000000000000 PUSH1 0x0 DUP4 ADD MSTORE PUSH1 0x20 DUP3 ADD SWAP1 POP SWAP2 SWAP1 POP JUMP JUMPDEST PUSH1 0x0 PUSH2 0x5540 PUSH1 0x19 DUP4 PUSH2 0x6101 JUMP JUMPDEST SWAP2 POP PUSH32 0x5F6973737565496E646578203C3D206973737565496E64657800000000000000 PUSH1 0x0 DUP4 ADD MSTORE PUSH1 0x20 DUP3 ADD SWAP1 POP SWAP2 SWAP1 POP JUMP JUMPDEST PUSH1 0x0 PUSH2 0x5580 PUSH1 0x26 DUP4 PUSH2 0x6101 JUMP JUMPDEST SWAP2 POP PUSH32 0x4F776E61626C653A206E6577206F776E657220697320746865207A65726F2061 PUSH1 0x0 DUP4 ADD MSTORE PUSH32 0x6464726573730000000000000000000000000000000000000000000000000000 PUSH1 0x20 DUP4 ADD MSTORE PUSH1 0x40 DUP3 ADD SWAP1 POP SWAP2 SWAP1 POP JUMP JUMPDEST PUSH1 0x0 PUSH2 0x55E6 PUSH1 0x12 DUP4 PUSH2 0x6101 JUMP JUMPDEST SWAP2 POP PUSH32 0x65786365656420746865206D6178696D756D0000000000000000000000000000 PUSH1 0x0 DUP4 ADD MSTORE PUSH1 0x20 DUP3 ADD SWAP1 POP SWAP2 SWAP1 POP JUMP JUMPDEST PUSH1 0x0 PUSH2 0x5626 PUSH1 0x26 DUP4 PUSH2 0x6101 JUMP JUMPDEST SWAP2 POP PUSH32 0x416464726573733A20696E73756666696369656E742062616C616E636520666F PUSH1 0x0 DUP4 ADD MSTORE PUSH32 0x722063616C6C0000000000000000000000000000000000000000000000000000 PUSH1 0x20 DUP4 ADD MSTORE PUSH1 0x40 DUP3 ADD SWAP1 POP SWAP2 SWAP1 POP JUMP JUMPDEST PUSH1 0x0 PUSH2 0x568C PUSH1 0xE DUP4 PUSH2 0x6101 JUMP JUMPDEST SWAP2 POP PUSH32 0x6E6F742066726F6D206F776E6572000000000000000000000000000000000000 PUSH1 0x0 DUP4 ADD MSTORE PUSH1 0x20 DUP3 ADD SWAP1 POP SWAP2 SWAP1 POP JUMP JUMPDEST PUSH1 0x0 PUSH2 0x56CC PUSH1 0x19 DUP4 PUSH2 0x6101 JUMP JUMPDEST SWAP2 POP PUSH32 0x656E7465722064726177696E6720706861736520666972737400000000000000 PUSH1 0x0 DUP4 ADD MSTORE PUSH1 0x20 DUP3 ADD SWAP1 POP SWAP2 SWAP1 POP JUMP JUMPDEST PUSH1 0x0 PUSH2 0x570C PUSH1 0x7 DUP4 PUSH2 0x6101 JUMP JUMPDEST SWAP2 POP PUSH32 0x636C61696D656400000000000000000000000000000000000000000000000000 PUSH1 0x0 DUP4 ADD MSTORE PUSH1 0x20 DUP3 ADD SWAP1 POP SWAP2 SWAP1 POP JUMP JUMPDEST PUSH1 0x0 PUSH2 0x574C PUSH1 0x18 DUP4 PUSH2 0x6101 JUMP JUMPDEST SWAP2 POP PUSH32 0x64726177696E672C2063616E206E6F7420627579206E6F770000000000000000 PUSH1 0x0 DUP4 ADD MSTORE PUSH1 0x20 DUP3 ADD SWAP1 POP SWAP2 SWAP1 POP JUMP JUMPDEST PUSH1 0x0 PUSH2 0x578C PUSH1 0x2E DUP4 PUSH2 0x6101 JUMP JUMPDEST SWAP2 POP PUSH32 0x496E697469616C697A61626C653A20636F6E747261637420697320616C726561 PUSH1 0x0 DUP4 ADD MSTORE PUSH32 0x647920696E697469616C697A6564000000000000000000000000000000000000 PUSH1 0x20 DUP4 ADD MSTORE PUSH1 0x40 DUP3 ADD SWAP1 POP SWAP2 SWAP1 POP JUMP JUMPDEST PUSH1 0x0 PUSH2 0x57F2 PUSH1 0x19 DUP4 PUSH2 0x6101 JUMP JUMPDEST SWAP2 POP PUSH32 0x7072696365206D7573742061626F7665206D696E507269636500000000000000 PUSH1 0x0 DUP4 ADD MSTORE PUSH1 0x20 DUP3 ADD SWAP1 POP SWAP2 SWAP1 POP JUMP JUMPDEST PUSH1 0x0 PUSH2 0x5832 PUSH1 0x17 DUP4 PUSH2 0x6101 JUMP JUMPDEST SWAP2 POP PUSH32 0x6472617765642C2063616E206E6F7420627579206E6F77000000000000000000 PUSH1 0x0 DUP4 ADD MSTORE PUSH1 0x20 DUP3 ADD SWAP1 POP SWAP2 SWAP1 POP JUMP JUMPDEST PUSH1 0x0 PUSH2 0x5872 PUSH1 0x20 DUP4 PUSH2 0x6101 JUMP JUMPDEST SWAP2 POP PUSH32 0x4F776E61626C653A2063616C6C6572206973206E6F7420746865206F776E6572 PUSH1 0x0 DUP4 ADD MSTORE PUSH1 0x20 DUP3 ADD SWAP1 POP SWAP2 SWAP1 POP JUMP JUMPDEST PUSH1 0x0 PUSH2 0x58B2 PUSH1 0xB DUP4 PUSH2 0x6101 JUMP JUMPDEST SWAP2 POP PUSH32 0x61646D696E3A207775743F000000000000000000000000000000000000000000 PUSH1 0x0 DUP4 ADD MSTORE PUSH1 0x20 DUP3 ADD SWAP1 POP SWAP2 SWAP1 POP JUMP JUMPDEST PUSH1 0x0 PUSH2 0x58F2 PUSH1 0x1D DUP4 PUSH2 0x6101 JUMP JUMPDEST SWAP2 POP PUSH32 0x416464726573733A2063616C6C20746F206E6F6E2D636F6E7472616374000000 PUSH1 0x0 DUP4 ADD MSTORE PUSH1 0x20 DUP3 ADD SWAP1 POP SWAP2 SWAP1 POP JUMP JUMPDEST PUSH1 0x0 PUSH2 0x5932 PUSH1 0x7 DUP4 PUSH2 0x6101 JUMP JUMPDEST SWAP2 POP PUSH32 0x6472617765643F00000000000000000000000000000000000000000000000000 PUSH1 0x0 DUP4 ADD MSTORE PUSH1 0x20 DUP3 ADD SWAP1 POP SWAP2 SWAP1 POP JUMP JUMPDEST PUSH1 0x0 PUSH2 0x5972 PUSH1 0x2A DUP4 PUSH2 0x6101 JUMP JUMPDEST SWAP2 POP PUSH32 0x5361666545524332303A204552433230206F7065726174696F6E20646964206E PUSH1 0x0 DUP4 ADD MSTORE PUSH32 0x6F74207375636365656400000000000000000000000000000000000000000000 PUSH1 0x20 DUP4 ADD MSTORE PUSH1 0x40 DUP3 ADD SWAP1 POP SWAP2 SWAP1 POP JUMP JUMPDEST PUSH1 0x0 PUSH2 0x59D8 PUSH1 0x6 DUP4 PUSH2 0x6101 JUMP JUMPDEST SWAP2 POP PUSH32 0x6472617765640000000000000000000000000000000000000000000000000000 PUSH1 0x0 DUP4 ADD MSTORE PUSH1 0x20 DUP3 ADD SWAP1 POP SWAP2 SWAP1 POP JUMP JUMPDEST PUSH2 0x5A14 DUP2 PUSH2 0x618B JUMP JUMPDEST DUP3 MSTORE POP POP JUMP JUMPDEST PUSH2 0x5A23 DUP2 PUSH2 0x618B JUMP JUMPDEST DUP3 MSTORE POP POP JUMP JUMPDEST PUSH2 0x5A32 DUP2 PUSH2 0x6195 JUMP JUMPDEST DUP3 MSTORE POP POP JUMP JUMPDEST PUSH2 0x5A41 DUP2 PUSH2 0x61A9 JUMP JUMPDEST DUP3 MSTORE POP POP JUMP JUMPDEST PUSH2 0x5A50 DUP2 PUSH2 0x61A9 JUMP JUMPDEST DUP3 MSTORE POP POP JUMP JUMPDEST PUSH1 0x0 PUSH2 0x5A62 DUP3 DUP5 PUSH2 0x53EB JUMP JUMPDEST SWAP2 POP DUP2 SWAP1 POP SWAP3 SWAP2 POP POP JUMP JUMPDEST PUSH1 0x0 PUSH1 0x20 DUP3 ADD SWAP1 POP PUSH2 0x5A82 PUSH1 0x0 DUP4 ADD DUP5 PUSH2 0x4A94 JUMP JUMPDEST SWAP3 SWAP2 POP POP JUMP JUMPDEST PUSH1 0x0 PUSH1 0xE0 DUP3 ADD SWAP1 POP PUSH2 0x5A9D PUSH1 0x0 DUP4 ADD DUP8 PUSH2 0x4A85 JUMP JUMPDEST PUSH2 0x5AAA PUSH1 0x20 DUP4 ADD DUP7 PUSH2 0x4B58 JUMP JUMPDEST PUSH2 0x5AB7 PUSH1 0xA0 DUP4 ADD DUP6 PUSH2 0x5A1A JUMP JUMPDEST PUSH2 0x5AC4 PUSH1 0xC0 DUP4 ADD DUP5 PUSH2 0x5A1A JUMP JUMPDEST SWAP6 SWAP5 POP POP POP POP POP JUMP JUMPDEST PUSH1 0x0 PUSH1 0x60 DUP3 ADD SWAP1 POP PUSH2 0x5AE2 PUSH1 0x0 DUP4 ADD DUP7 PUSH2 0x4A94 JUMP JUMPDEST PUSH2 0x5AEF PUSH1 0x20 DUP4 ADD DUP6 PUSH2 0x4A94 JUMP JUMPDEST PUSH2 0x5AFC PUSH1 0x40 DUP4 ADD DUP5 PUSH2 0x5A1A JUMP JUMPDEST SWAP5 SWAP4 POP POP POP POP JUMP JUMPDEST PUSH1 0x0 PUSH1 0xE0 DUP3 ADD SWAP1 POP PUSH2 0x5B19 PUSH1 0x0 DUP4 ADD DUP8 PUSH2 0x4A94 JUMP JUMPDEST PUSH2 0x5B26 PUSH1 0x20 DUP4 ADD DUP7 PUSH2 0x4B58 JUMP JUMPDEST PUSH2 0x5B33 PUSH1 0xA0 DUP4 ADD DUP6 PUSH2 0x5A1A JUMP JUMPDEST PUSH2 0x5B40 PUSH1 0xC0 DUP4 ADD DUP5 PUSH2 0x5A1A JUMP JUMPDEST SWAP6 SWAP5 POP POP POP POP POP JUMP JUMPDEST PUSH1 0x0 PUSH1 0x40 DUP3 ADD SWAP1 POP PUSH2 0x5B5E PUSH1 0x0 DUP4 ADD DUP6 PUSH2 0x4A94 JUMP JUMPDEST PUSH2 0x5B6B PUSH1 0x20 DUP4 ADD DUP5 PUSH2 0x5A1A JUMP JUMPDEST SWAP4 SWAP3 POP POP POP JUMP JUMPDEST PUSH1 0x0 PUSH1 0x20 DUP3 ADD SWAP1 POP DUP2 DUP2 SUB PUSH1 0x0 DUP4 ADD MSTORE PUSH2 0x5B8C DUP2 DUP5 PUSH2 0x4AA3 JUMP JUMPDEST SWAP1 POP SWAP3 SWAP2 POP POP JUMP JUMPDEST PUSH1 0x0 PUSH2 0x160 DUP3 ADD SWAP1 POP PUSH2 0x5BAA PUSH1 0x0 DUP4 ADD DUP5 PUSH2 0x4B01 JUMP JUMPDEST SWAP3 SWAP2 POP POP JUMP JUMPDEST PUSH1 0x0 PUSH1 0x80 DUP3 ADD SWAP1 POP PUSH2 0x5BC5 PUSH1 0x0 DUP4 ADD DUP5 PUSH2 0x4BAF JUMP JUMPDEST SWAP3 SWAP2 POP POP JUMP JUMPDEST PUSH1 0x0 PUSH1 0x20 DUP3 ADD SWAP1 POP PUSH2 0x5BE0 PUSH1 0x0 DUP4 ADD DUP5 PUSH2 0x53CD JUMP JUMPDEST SWAP3 SWAP2 POP POP JUMP JUMPDEST PUSH1 0x0 PUSH1 0x60 DUP3 ADD SWAP1 POP PUSH2 0x5BFB PUSH1 0x0 DUP4 ADD DUP7 PUSH2 0x53DC JUMP JUMPDEST PUSH2 0x5C08 PUSH1 0x20 DUP4 ADD DUP6 PUSH2 0x5A1A JUMP JUMPDEST PUSH2 0x5C15 PUSH1 0x40 DUP4 ADD DUP5 PUSH2 0x5A1A JUMP JUMPDEST SWAP5 SWAP4 POP POP POP POP JUMP JUMPDEST PUSH1 0x0 PUSH1 0x80 DUP3 ADD SWAP1 POP PUSH2 0x5C32 PUSH1 0x0 DUP4 ADD DUP8 PUSH2 0x53DC JUMP JUMPDEST PUSH2 0x5C3F PUSH1 0x20 DUP4 ADD DUP7 PUSH2 0x5A1A JUMP JUMPDEST PUSH2 0x5C4C PUSH1 0x40 DUP4 ADD DUP6 PUSH2 0x5A1A JUMP JUMPDEST PUSH2 0x5C59 PUSH1 0x60 DUP4 ADD DUP5 PUSH2 0x5A1A JUMP JUMPDEST SWAP6 SWAP5 POP POP POP POP POP JUMP JUMPDEST PUSH1 0x0 PUSH1 0x20 DUP3 ADD SWAP1 POP PUSH2 0x5C77 PUSH1 0x0 DUP4 ADD DUP5 PUSH2 0x541C JUMP JUMPDEST SWAP3 SWAP2 POP POP JUMP JUMPDEST PUSH1 0x0 PUSH1 0x20 DUP3 ADD SWAP1 POP PUSH2 0x5C92 PUSH1 0x0 DUP4 ADD DUP5 PUSH2 0x542B JUMP JUMPDEST SWAP3 SWAP2 POP POP JUMP JUMPDEST PUSH1 0x0 PUSH1 0x20 DUP3 ADD SWAP1 POP DUP2 DUP2 SUB PUSH1 0x0 DUP4 ADD MSTORE PUSH2 0x5CB2 DUP2 DUP5 PUSH2 0x543A JUMP JUMPDEST SWAP1 POP SWAP3 SWAP2 POP POP JUMP JUMPDEST PUSH1 0x0 PUSH1 0x20 DUP3 ADD SWAP1 POP DUP2 DUP2 SUB PUSH1 0x0 DUP4 ADD MSTORE PUSH2 0x5CD3 DUP2 PUSH2 0x5473 JUMP JUMPDEST SWAP1 POP SWAP2 SWAP1 POP JUMP JUMPDEST PUSH1 0x0 PUSH1 0x20 DUP3 ADD SWAP1 POP DUP2 DUP2 SUB PUSH1 0x0 DUP4 ADD MSTORE PUSH2 0x5CF3 DUP2 PUSH2 0x54B3 JUMP JUMPDEST SWAP1 POP SWAP2 SWAP1 POP JUMP JUMPDEST PUSH1 0x0 PUSH1 0x20 DUP3 ADD SWAP1 POP DUP2 DUP2 SUB PUSH1 0x0 DUP4 ADD MSTORE PUSH2 0x5D13 DUP2 PUSH2 0x54F3 JUMP JUMPDEST SWAP1 POP SWAP2 SWAP1 POP JUMP JUMPDEST PUSH1 0x0 PUSH1 0x20 DUP3 ADD SWAP1 POP DUP2 DUP2 SUB PUSH1 0x0 DUP4 ADD MSTORE PUSH2 0x5D33 DUP2 PUSH2 0x5533 JUMP JUMPDEST SWAP1 POP SWAP2 SWAP1 POP JUMP JUMPDEST PUSH1 0x0 PUSH1 0x20 DUP3 ADD SWAP1 POP DUP2 DUP2 SUB PUSH1 0x0 DUP4 ADD MSTORE PUSH2 0x5D53 DUP2 PUSH2 0x5573 JUMP JUMPDEST SWAP1 POP SWAP2 SWAP1 POP JUMP JUMPDEST PUSH1 0x0 PUSH1 0x20 DUP3 ADD SWAP1 POP DUP2 DUP2 SUB PUSH1 0x0 DUP4 ADD MSTORE PUSH2 0x5D73 DUP2 PUSH2 0x55D9 JUMP JUMPDEST SWAP1 POP SWAP2 SWAP1 POP JUMP JUMPDEST PUSH1 0x0 PUSH1 0x20 DUP3 ADD SWAP1 POP DUP2 DUP2 SUB PUSH1 0x0 DUP4 ADD MSTORE PUSH2 0x5D93 DUP2 PUSH2 0x5619 JUMP JUMPDEST SWAP1 POP SWAP2 SWAP1 POP JUMP JUMPDEST PUSH1 0x0 PUSH1 0x20 DUP3 ADD SWAP1 POP DUP2 DUP2 SUB PUSH1 0x0 DUP4 ADD MSTORE PUSH2 0x5DB3 DUP2 PUSH2 0x567F JUMP JUMPDEST SWAP1 POP SWAP2 SWAP1 POP JUMP JUMPDEST PUSH1 0x0 PUSH1 0x20 DUP3 ADD SWAP1 POP DUP2 DUP2 SUB PUSH1 0x0 DUP4 ADD MSTORE PUSH2 0x5DD3 DUP2 PUSH2 0x56BF JUMP JUMPDEST SWAP1 POP SWAP2 SWAP1 POP JUMP JUMPDEST PUSH1 0x0 PUSH1 0x20 DUP3 ADD SWAP1 POP DUP2 DUP2 SUB PUSH1 0x0 DUP4 ADD MSTORE PUSH2 0x5DF3 DUP2 PUSH2 0x56FF JUMP JUMPDEST SWAP1 POP SWAP2 SWAP1 POP JUMP JUMPDEST PUSH1 0x0 PUSH1 0x20 DUP3 ADD SWAP1 POP DUP2 DUP2 SUB PUSH1 0x0 DUP4 ADD MSTORE PUSH2 0x5E13 DUP2 PUSH2 0x573F JUMP JUMPDEST SWAP1 POP SWAP2 SWAP1 POP JUMP JUMPDEST PUSH1 0x0 PUSH1 0x20 DUP3 ADD SWAP1 POP DUP2 DUP2 SUB PUSH1 0x0 DUP4 ADD MSTORE PUSH2 0x5E33 DUP2 PUSH2 0x577F JUMP JUMPDEST SWAP1 POP SWAP2 SWAP1 POP JUMP JUMPDEST PUSH1 0x0 PUSH1 0x20 DUP3 ADD SWAP1 POP DUP2 DUP2 SUB PUSH1 0x0 DUP4 ADD MSTORE PUSH2 0x5E53 DUP2 PUSH2 0x57E5 JUMP JUMPDEST SWAP1 POP SWAP2 SWAP1 POP JUMP JUMPDEST PUSH1 0x0 PUSH1 0x20 DUP3 ADD SWAP1 POP DUP2 DUP2 SUB PUSH1 0x0 DUP4 ADD MSTORE PUSH2 0x5E73 DUP2 PUSH2 0x5825 JUMP JUMPDEST SWAP1 POP SWAP2 SWAP1 POP JUMP JUMPDEST PUSH1 0x0 PUSH1 0x20 DUP3 ADD SWAP1 POP DUP2 DUP2 SUB PUSH1 0x0 DUP4 ADD MSTORE PUSH2 0x5E93 DUP2 PUSH2 0x5865 JUMP JUMPDEST SWAP1 POP SWAP2 SWAP1 POP JUMP JUMPDEST PUSH1 0x0 PUSH1 0x20 DUP3 ADD SWAP1 POP DUP2 DUP2 SUB PUSH1 0x0 DUP4 ADD MSTORE PUSH2 0x5EB3 DUP2 PUSH2 0x58A5 JUMP JUMPDEST SWAP1 POP SWAP2 SWAP1 POP JUMP JUMPDEST PUSH1 0x0 PUSH1 0x20 DUP3 ADD SWAP1 POP DUP2 DUP2 SUB PUSH1 0x0 DUP4 ADD MSTORE PUSH2 0x5ED3 DUP2 PUSH2 0x58E5 JUMP JUMPDEST SWAP1 POP SWAP2 SWAP1 POP JUMP JUMPDEST PUSH1 0x0 PUSH1 0x20 DUP3 ADD SWAP1 POP DUP2 DUP2 SUB PUSH1 0x0 DUP4 ADD MSTORE PUSH2 0x5EF3 DUP2 PUSH2 0x5925 JUMP JUMPDEST SWAP1 POP SWAP2 SWAP1 POP JUMP JUMPDEST PUSH1 0x0 PUSH1 0x20 DUP3 ADD SWAP1 POP DUP2 DUP2 SUB PUSH1 0x0 DUP4 ADD MSTORE PUSH2 0x5F13 DUP2 PUSH2 0x5965 JUMP JUMPDEST SWAP1 POP SWAP2 SWAP1 POP JUMP JUMPDEST PUSH1 0x0 PUSH1 0x20 DUP3 ADD SWAP1 POP DUP2 DUP2 SUB PUSH1 0x0 DUP4 ADD MSTORE PUSH2 0x5F33 DUP2 PUSH2 0x59CB JUMP JUMPDEST SWAP1 POP SWAP2 SWAP1 POP JUMP JUMPDEST PUSH1 0x0 PUSH1 0x20 DUP3 ADD SWAP1 POP PUSH2 0x5F4F PUSH1 0x0 DUP4 ADD DUP5 PUSH2 0x5A1A JUMP JUMPDEST SWAP3 SWAP2 POP POP JUMP JUMPDEST PUSH1 0x0 PUSH1 0x40 DUP3 ADD SWAP1 POP PUSH2 0x5F6A PUSH1 0x0 DUP4 ADD DUP6 PUSH2 0x5A1A JUMP JUMPDEST PUSH2 0x5F77 PUSH1 0x20 DUP4 ADD DUP5 PUSH2 0x5A1A JUMP JUMPDEST SWAP4 SWAP3 POP POP POP JUMP JUMPDEST PUSH1 0x0 PUSH1 0x20 DUP3 ADD SWAP1 POP PUSH2 0x5F93 PUSH1 0x0 DUP4 ADD DUP5 PUSH2 0x5A47 JUMP JUMPDEST SWAP3 SWAP2 POP POP JUMP JUMPDEST PUSH1 0x0 PUSH1 0x40 MLOAD SWAP1 POP DUP2 DUP2 ADD DUP2 DUP2 LT PUSH8 0xFFFFFFFFFFFFFFFF DUP3 GT OR ISZERO PUSH2 0x5FBC JUMPI PUSH1 0x0 DUP1 REVERT JUMPDEST DUP1 PUSH1 0x40 MSTORE POP SWAP2 SWAP1 POP JUMP JUMPDEST PUSH1 0x0 PUSH8 0xFFFFFFFFFFFFFFFF DUP3 GT ISZERO PUSH2 0x5FDD JUMPI PUSH1 0x0 DUP1 REVERT JUMPDEST PUSH1 0x20 DUP3 MUL SWAP1 POP PUSH1 0x20 DUP2 ADD SWAP1 POP SWAP2 SWAP1 POP JUMP JUMPDEST PUSH1 0x0 PUSH8 0xFFFFFFFFFFFFFFFF DUP3 GT ISZERO PUSH2 0x6005 JUMPI PUSH1 0x0 DUP1 REVERT JUMPDEST PUSH1 0x20 DUP3 MUL SWAP1 POP PUSH1 0x20 DUP2 ADD SWAP1 POP SWAP2 SWAP1 POP JUMP JUMPDEST PUSH1 0x0 PUSH8 0xFFFFFFFFFFFFFFFF DUP3 GT ISZERO PUSH2 0x602D JUMPI PUSH1 0x0 DUP1 REVERT JUMPDEST PUSH1 0x20 DUP3 MUL SWAP1 POP SWAP2 SWAP1 POP JUMP JUMPDEST PUSH1 0x0 DUP2 SWAP1 POP PUSH1 0x20 DUP3 ADD SWAP1 POP SWAP2 SWAP1 POP JUMP JUMPDEST PUSH1 0x0 DUP2 SWAP1 POP SWAP2 SWAP1 POP JUMP JUMPDEST PUSH1 0x0 DUP2 SWAP1 POP SWAP2 SWAP1 POP JUMP JUMPDEST PUSH1 0x0 DUP2 SWAP1 POP SWAP2 SWAP1 POP JUMP JUMPDEST PUSH1 0x0 DUP2 MLOAD SWAP1 POP SWAP2 SWAP1 POP JUMP JUMPDEST PUSH1 0x0 PUSH1 0xB SWAP1 POP SWAP2 SWAP1 POP JUMP JUMPDEST PUSH1 0x0 PUSH1 0x4 SWAP1 POP SWAP2 SWAP1 POP JUMP JUMPDEST PUSH1 0x0 PUSH1 0x4 SWAP1 POP SWAP2 SWAP1 POP JUMP JUMPDEST PUSH1 0x0 DUP2 MLOAD SWAP1 POP SWAP2 SWAP1 POP JUMP JUMPDEST PUSH1 0x0 DUP2 MLOAD SWAP1 POP SWAP2 SWAP1 POP JUMP JUMPDEST PUSH1 0x0 PUSH1 0x20 DUP3 ADD SWAP1 POP SWAP2 SWAP1 POP JUMP JUMPDEST PUSH1 0x0 PUSH1 0x20 DUP3 ADD SWAP1 POP SWAP2 SWAP1 POP JUMP JUMPDEST PUSH1 0x0 PUSH1 0x20 DUP3 ADD SWAP1 POP SWAP2 SWAP1 POP JUMP JUMPDEST PUSH1 0x0 DUP3 DUP3 MSTORE PUSH1 0x20 DUP3 ADD SWAP1 POP SWAP3 SWAP2 POP POP JUMP JUMPDEST PUSH1 0x0 DUP2 SWAP1 POP SWAP3 SWAP2 POP POP JUMP JUMPDEST PUSH1 0x0 DUP2 SWAP1 POP SWAP3 SWAP2 POP POP JUMP JUMPDEST PUSH1 0x0 DUP2 SWAP1 POP SWAP3 SWAP2 POP POP JUMP JUMPDEST PUSH1 0x0 DUP3 DUP3 MSTORE PUSH1 0x20 DUP3 ADD SWAP1 POP SWAP3 SWAP2 POP POP JUMP JUMPDEST PUSH1 0x0 PUSH1 0xFF DUP3 AND SWAP1 POP SWAP2 SWAP1 POP JUMP JUMPDEST PUSH1 0x0 PUSH2 0x612A DUP3 PUSH2 0x616B JUMP JUMPDEST SWAP1 POP SWAP2 SWAP1 POP JUMP JUMPDEST PUSH1 0x0 DUP2 ISZERO ISZERO SWAP1 POP SWAP2 SWAP1 POP JUMP JUMPDEST PUSH1 0x0 DUP2 SWAP1 POP SWAP2 SWAP1 POP JUMP JUMPDEST PUSH1 0x0 PUSH2 0x6152 DUP3 PUSH2 0x611F JUMP JUMPDEST SWAP1 POP SWAP2 SWAP1 POP JUMP JUMPDEST PUSH1 0x0 PUSH2 0x6164 DUP3 PUSH2 0x611F JUMP JUMPDEST SWAP1 POP SWAP2 SWAP1 POP JUMP JUMPDEST PUSH1 0x0 PUSH20 0xFFFFFFFFFFFFFFFFFFFFFFFFFFFFFFFFFFFFFFFF DUP3 AND SWAP1 POP SWAP2 SWAP1 POP JUMP JUMPDEST PUSH1 0x0 DUP2 SWAP1 POP SWAP2 SWAP1 POP JUMP JUMPDEST PUSH1 0x0 PUSH8 0xFFFFFFFFFFFFFFFF DUP3 AND SWAP1 POP SWAP2 SWAP1 POP JUMP JUMPDEST PUSH1 0x0 PUSH1 0xFF DUP3 AND SWAP1 POP SWAP2 SWAP1 POP JUMP JUMPDEST PUSH1 0x0 PUSH2 0x61C1 DUP3 PUSH2 0x6210 JUMP JUMPDEST SWAP1 POP SWAP2 SWAP1 POP JUMP JUMPDEST PUSH1 0x0 PUSH2 0x61D3 DUP3 PUSH2 0x61DA JUMP JUMPDEST SWAP1 POP SWAP2 SWAP1 POP JUMP JUMPDEST PUSH1 0x0 PUSH2 0x61E5 DUP3 PUSH2 0x616B JUMP JUMPDEST SWAP1 POP SWAP2 SWAP1 POP JUMP JUMPDEST PUSH1 0x0 PUSH2 0x61F7 DUP3 PUSH2 0x61FE JUMP JUMPDEST SWAP1 POP SWAP2 SWAP1 POP JUMP JUMPDEST PUSH1 0x0 PUSH2 0x6209 DUP3 PUSH2 0x616B JUMP JUMPDEST SWAP1 POP SWAP2 SWAP1 POP JUMP JUMPDEST PUSH1 0x0 PUSH2 0x621B DUP3 PUSH2 0x6222 JUMP JUMPDEST SWAP1 POP SWAP2 SWAP1 POP JUMP JUMPDEST PUSH1 0x0 PUSH2 0x622D DUP3 PUSH2 0x616B JUMP JUMPDEST SWAP1 POP SWAP2 SWAP1 POP JUMP JUMPDEST PUSH1 0x0 JUMPDEST DUP4 DUP2 LT ISZERO PUSH2 0x6252 JUMPI DUP1 DUP3 ADD MLOAD DUP2 DUP5 ADD MSTORE PUSH1 0x20 DUP2 ADD SWAP1 POP PUSH2 0x6237 JUMP JUMPDEST DUP4 DUP2 GT ISZERO PUSH2 0x6261 JUMPI PUSH1 0x0 DUP5 DUP5 ADD MSTORE JUMPDEST POP POP POP POP JUMP JUMPDEST PUSH1 0x0 PUSH2 0x627A PUSH2 0x6275 DUP4 PUSH2 0x65B8 JUMP JUMPDEST PUSH2 0x6112 JUMP JUMPDEST SWAP1 POP SWAP2 SWAP1 POP JUMP JUMPDEST PUSH1 0x0 PUSH2 0x6294 PUSH2 0x628F DUP4 PUSH2 0x6724 JUMP JUMPDEST PUSH2 0x6112 JUMP JUMPDEST SWAP1 POP SWAP2 SWAP1 POP JUMP JUMPDEST PUSH1 0x0 PUSH2 0x62AE PUSH2 0x62A9 DUP4 PUSH2 0x6731 JUMP JUMPDEST PUSH2 0x6112 JUMP JUMPDEST SWAP1 POP SWAP2 SWAP1 POP JUMP JUMPDEST PUSH1 0x0 PUSH2 0x62C8 PUSH2 0x62C3 DUP4 PUSH2 0x674B JUMP JUMPDEST PUSH2 0x6112 JUMP JUMPDEST SWAP1 POP SWAP2 SWAP1 POP JUMP JUMPDEST PUSH1 0x0 PUSH2 0x62E2 PUSH2 0x62DD DUP4 PUSH2 0x65C5 JUMP JUMPDEST PUSH2 0x6112 JUMP JUMPDEST SWAP1 POP SWAP2 SWAP1 POP JUMP JUMPDEST PUSH1 0x0 PUSH2 0x62FC PUSH2 0x62F7 DUP4 PUSH2 0x65D2 JUMP JUMPDEST PUSH2 0x6112 JUMP JUMPDEST SWAP1 POP SWAP2 SWAP1 POP JUMP JUMPDEST PUSH1 0x0 PUSH2 0x6316 PUSH2 0x6311 DUP4 PUSH2 0x65DF JUMP JUMPDEST PUSH2 0x6112 JUMP JUMPDEST SWAP1 POP SWAP2 SWAP1 POP JUMP JUMPDEST PUSH1 0x0 PUSH2 0x6330 PUSH2 0x632B DUP4 PUSH2 0x65EC JUMP JUMPDEST PUSH2 0x6112 JUMP JUMPDEST SWAP1 POP SWAP2 SWAP1 POP JUMP JUMPDEST PUSH1 0x0 PUSH2 0x634A PUSH2 0x6345 DUP4 PUSH2 0x65F9 JUMP JUMPDEST PUSH2 0x6112 JUMP JUMPDEST SWAP1 POP SWAP2 SWAP1 POP JUMP JUMPDEST PUSH1 0x0 PUSH2 0x6364 PUSH2 0x635F DUP4 PUSH2 0x6606 JUMP JUMPDEST PUSH2 0x6112 JUMP JUMPDEST SWAP1 POP SWAP2 SWAP1 POP JUMP JUMPDEST PUSH1 0x0 PUSH2 0x637E PUSH2 0x6379 DUP4 PUSH2 0x6613 JUMP JUMPDEST PUSH2 0x6112 JUMP JUMPDEST SWAP1 POP SWAP2 SWAP1 POP JUMP JUMPDEST PUSH1 0x0 PUSH2 0x6398 PUSH2 0x6393 DUP4 PUSH2 0x673E JUMP JUMPDEST PUSH2 0x6112 JUMP JUMPDEST SWAP1 POP SWAP2 SWAP1 POP JUMP JUMPDEST PUSH1 0x0 PUSH2 0x63B2 PUSH2 0x63AD DUP4 PUSH2 0x6620 JUMP JUMPDEST PUSH2 0x6112 JUMP JUMPDEST SWAP1 POP SWAP2 SWAP1 POP JUMP JUMPDEST PUSH1 0x0 PUSH2 0x63CC PUSH2 0x63C7 DUP4 PUSH2 0x662D JUMP JUMPDEST PUSH2 0x6112 JUMP JUMPDEST SWAP1 POP SWAP2 SWAP1 POP JUMP JUMPDEST PUSH1 0x0 PUSH2 0x63E6 PUSH2 0x63E1 DUP4 PUSH2 0x6647 JUMP JUMPDEST PUSH2 0x6112 JUMP JUMPDEST SWAP1 POP SWAP2 SWAP1 POP JUMP JUMPDEST PUSH1 0x0 PUSH2 0x6400 PUSH2 0x63FB DUP4 PUSH2 0x6654 JUMP JUMPDEST PUSH2 0x6112 JUMP JUMPDEST SWAP1 POP SWAP2 SWAP1 POP JUMP JUMPDEST PUSH1 0x0 PUSH2 0x641A PUSH2 0x6415 DUP4 PUSH2 0x6661 JUMP JUMPDEST PUSH2 0x6112 JUMP JUMPDEST SWAP1 POP SWAP2 SWAP1 POP JUMP JUMPDEST PUSH1 0x0 PUSH2 0x6434 PUSH2 0x642F DUP4 PUSH2 0x666E JUMP JUMPDEST PUSH2 0x6112 JUMP JUMPDEST SWAP1 POP SWAP2 SWAP1 POP JUMP JUMPDEST PUSH1 0x0 PUSH2 0x644E PUSH2 0x6449 DUP4 PUSH2 0x667B JUMP JUMPDEST PUSH2 0x6112 JUMP JUMPDEST SWAP1 POP SWAP2 SWAP1 POP JUMP JUMPDEST PUSH1 0x0 PUSH2 0x6468 PUSH2 0x6463 DUP4 PUSH2 0x6688 JUMP JUMPDEST PUSH2 0x6112 JUMP JUMPDEST SWAP1 POP SWAP2 SWAP1 POP JUMP JUMPDEST PUSH1 0x0 PUSH2 0x6482 PUSH2 0x647D DUP4 PUSH2 0x6695 JUMP JUMPDEST PUSH2 0x6112 JUMP JUMPDEST SWAP1 POP SWAP2 SWAP1 POP JUMP JUMPDEST PUSH1 0x0 PUSH2 0x649C PUSH2 0x6497 DUP4 PUSH2 0x66A2 JUMP JUMPDEST PUSH2 0x6112 JUMP JUMPDEST SWAP1 POP SWAP2 SWAP1 POP JUMP JUMPDEST PUSH1 0x0 PUSH2 0x64B6 PUSH2 0x64B1 DUP4 PUSH2 0x663A JUMP JUMPDEST PUSH2 0x6112 JUMP JUMPDEST SWAP1 POP SWAP2 SWAP1 POP JUMP JUMPDEST PUSH1 0x0 PUSH2 0x64D0 PUSH2 0x64CB DUP4 PUSH2 0x66AF JUMP JUMPDEST PUSH2 0x6112 JUMP JUMPDEST SWAP1 POP SWAP2 SWAP1 POP JUMP JUMPDEST PUSH1 0x0 PUSH2 0x64EA PUSH2 0x64E5 DUP4 PUSH2 0x66BC JUMP JUMPDEST PUSH2 0x6112 JUMP JUMPDEST SWAP1 POP SWAP2 SWAP1 POP JUMP JUMPDEST PUSH1 0x0 PUSH2 0x6504 PUSH2 0x64FF DUP4 PUSH2 0x66C9 JUMP JUMPDEST PUSH2 0x6112 JUMP JUMPDEST SWAP1 POP SWAP2 SWAP1 POP JUMP JUMPDEST PUSH1 0x0 PUSH2 0x651E PUSH2 0x6519 DUP4 PUSH2 0x66D6 JUMP JUMPDEST PUSH2 0x6112 JUMP JUMPDEST SWAP1 POP SWAP2 SWAP1 POP JUMP JUMPDEST PUSH1 0x0 PUSH2 0x6538 PUSH2 0x6533 DUP4 PUSH2 0x66E3 JUMP JUMPDEST PUSH2 0x6112 JUMP JUMPDEST SWAP1 POP SWAP2 SWAP1 POP JUMP JUMPDEST PUSH1 0x0 PUSH2 0x6552 PUSH2 0x654D DUP4 PUSH2 0x66F0 JUMP JUMPDEST PUSH2 0x6112 JUMP JUMPDEST SWAP1 POP SWAP2 SWAP1 POP JUMP JUMPDEST PUSH1 0x0 PUSH2 0x656C PUSH2 0x6567 DUP4 PUSH2 0x66FD JUMP JUMPDEST PUSH2 0x6112 JUMP JUMPDEST SWAP1 POP SWAP2 SWAP1 POP JUMP JUMPDEST PUSH1 0x0 PUSH2 0x6586 PUSH2 0x6581 DUP4 PUSH2 0x670A JUMP JUMPDEST PUSH2 0x6112 JUMP JUMPDEST SWAP1 POP SWAP2 SWAP1 POP JUMP JUMPDEST PUSH1 0x0 PUSH2 0x65A0 PUSH2 0x659B DUP4 PUSH2 0x6717 JUMP JUMPDEST PUSH2 0x6112 JUMP JUMPDEST SWAP1 POP SWAP2 SWAP1 POP JUMP JUMPDEST PUSH1 0x0 PUSH1 0x1F NOT PUSH1 0x1F DUP4 ADD AND SWAP1 POP SWAP2 SWAP1 POP JUMP JUMPDEST PUSH1 0x0 DUP2 PUSH1 0x0 SHR SWAP1 POP SWAP2 SWAP1 POP JUMP JUMPDEST PUSH1 0x0 DUP2 PUSH1 0x68 SHR SWAP1 POP SWAP2 SWAP1 POP JUMP JUMPDEST PUSH1 0x0 DUP2 PUSH1 0x70 SHR SWAP1 POP SWAP2 SWAP1 POP JUMP JUMPDEST PUSH1 0x0 DUP2 PUSH1 0x78 SHR SWAP1 POP SWAP2 SWAP1 POP JUMP JUMPDEST PUSH1 0x0 DUP2 PUSH1 0x80 SHR SWAP1 POP SWAP2 SWAP1 POP JUMP JUMPDEST PUSH1 0x0 DUP2 PUSH1 0x88 SHR SWAP1 POP SWAP2 SWAP1 POP JUMP JUMPDEST PUSH1 0x0 DUP2 PUSH1 0x90 SHR SWAP1 POP SWAP2 SWAP1 POP JUMP JUMPDEST PUSH1 0x0 DUP2 PUSH1 0x98 SHR SWAP1 POP SWAP2 SWAP1 POP JUMP JUMPDEST PUSH1 0x0 DUP2 PUSH1 0xA0 SHR SWAP1 POP SWAP2 SWAP1 POP JUMP JUMPDEST PUSH1 0x0 DUP2 PUSH1 0xA8 SHR SWAP1 POP SWAP2 SWAP1 POP JUMP JUMPDEST PUSH1 0x0 DUP2 PUSH1 0x10 SHR SWAP1 POP SWAP2 SWAP1 POP JUMP JUMPDEST PUSH1 0x0 DUP2 PUSH1 0xB0 SHR SWAP1 POP SWAP2 SWAP1 POP JUMP JUMPDEST PUSH1 0x0 DUP2 PUSH1 0xB8 SHR SWAP1 POP SWAP2 SWAP1 POP JUMP JUMPDEST PUSH1 0x0 DUP2 PUSH1 0xC0 SHR SWAP1 POP SWAP2 SWAP1 POP JUMP JUMPDEST PUSH1 0x0 DUP2 PUSH1 0xC8 SHR SWAP1 POP SWAP2 SWAP1 POP JUMP JUMPDEST PUSH1 0x0 DUP2 PUSH1 0xD0 SHR SWAP1 POP SWAP2 SWAP1 POP JUMP JUMPDEST PUSH1 0x0 DUP2 PUSH1 0xD8 SHR SWAP1 POP SWAP2 SWAP1 POP JUMP JUMPDEST PUSH1 0x0 DUP2 PUSH1 0xE0 SHR SWAP1 POP SWAP2 SWAP1 POP JUMP JUMPDEST PUSH1 0x0 DUP2 PUSH1 0xE8 SHR SWAP1 POP SWAP2 SWAP1 POP JUMP JUMPDEST PUSH1 0x0 DUP2 PUSH1 0xF0 SHR SWAP1 POP SWAP2 SWAP1 POP JUMP JUMPDEST PUSH1 0x0 DUP2 PUSH1 0xF8 SHR SWAP1 POP SWAP2 SWAP1 POP JUMP JUMPDEST PUSH1 0x0 DUP2 PUSH1 0x18 SHR SWAP1 POP SWAP2 SWAP1 POP JUMP JUMPDEST PUSH1 0x0 DUP2 PUSH1 0x20 SHR SWAP1 POP SWAP2 SWAP1 POP JUMP JUMPDEST PUSH1 0x0 DUP2 PUSH1 0x28 SHR SWAP1 POP SWAP2 SWAP1 POP JUMP JUMPDEST PUSH1 0x0 DUP2 PUSH1 0x30 SHR SWAP1 POP SWAP2 SWAP1 POP JUMP JUMPDEST PUSH1 0x0 DUP2 PUSH1 0x38 SHR SWAP1 POP SWAP2 SWAP1 POP JUMP JUMPDEST PUSH1 0x0 DUP2 PUSH1 0x40 SHR SWAP1 POP SWAP2 SWAP1 POP JUMP JUMPDEST PUSH1 0x0 DUP2 PUSH1 0x48 SHR SWAP1 POP SWAP2 SWAP1 POP JUMP JUMPDEST PUSH1 0x0 DUP2 PUSH1 0x50 SHR SWAP1 POP SWAP2 SWAP1 POP JUMP JUMPDEST PUSH1 0x0 DUP2 PUSH1 0x58 SHR SWAP1 POP SWAP2 SWAP1 POP JUMP JUMPDEST PUSH1 0x0 DUP2 PUSH1 0x8 SHR SWAP1 POP SWAP2 SWAP1 POP JUMP JUMPDEST PUSH1 0x0 DUP2 PUSH1 0x60 SHR SWAP1 POP SWAP2 SWAP1 POP JUMP JUMPDEST PUSH2 0x6761 DUP2 PUSH2 0x611F JUMP JUMPDEST DUP2 EQ PUSH2 0x676C JUMPI PUSH1 0x0 DUP1 REVERT JUMPDEST POP JUMP JUMPDEST PUSH2 0x6778 DUP2 PUSH2 0x6131 JUMP JUMPDEST DUP2 EQ PUSH2 0x6783 JUMPI PUSH1 0x0 DUP1 REVERT JUMPDEST POP JUMP JUMPDEST PUSH2 0x678F DUP2 PUSH2 0x6147 JUMP JUMPDEST DUP2 EQ PUSH2 0x679A JUMPI PUSH1 0x0 DUP1 REVERT JUMPDEST POP JUMP JUMPDEST PUSH2 0x67A6 DUP2 PUSH2 0x6159 JUMP JUMPDEST DUP2 EQ PUSH2 0x67B1 JUMPI PUSH1 0x0 DUP1 REVERT JUMPDEST POP JUMP JUMPDEST PUSH2 0x67BD DUP2 PUSH2 0x618B JUMP JUMPDEST DUP2 EQ PUSH2 0x67C8 JUMPI PUSH1 0x0 DUP1 REVERT JUMPDEST POP JUMP JUMPDEST PUSH2 0x67D4 DUP2 PUSH2 0x6195 JUMP JUMPDEST DUP2 EQ PUSH2 0x67DF JUMPI PUSH1 0x0 DUP1 REVERT JUMPDEST POP JUMP JUMPDEST PUSH2 0x67EB DUP2 PUSH2 0x61A9 JUMP JUMPDEST DUP2 EQ PUSH2 0x67F6 JUMPI PUSH1 0x0 DUP1 REVERT JUMPDEST POP JUMP INVALID LOG2 PUSH5 0x6970667358 0x22 SLT KECCAK256 0xDA 0xDF PUSH2 0x5883 0x5D SWAP10 0xE5 OR SWAP12 0xF PUSH10 0xD8F5085FA67B9B200C15 LOG0 0xCC SHL DUP2 0x1F SIGNEXTEND 0xC2 SWAP15 DUP15 0xBB PUSH5 0x736F6C6343 STOP MOD 0xC STOP CALLER "
		},
		"gasEstimates": {
			"creation": {
				"codeDepositCost": "5334200",
				"executionCost": "infinite",
				"totalCost": "infinite"
			},
			"external": {
				"adminAddress()": "1346",
				"adminWithdraw(uint256)": "infinite",
				"allocation(uint256)": "3132",
				"buy(uint256,uint8[4])": "infinite",
				"claimReward(uint256)": "infinite",
				"drawed()": "1292",
				"drawing(uint256)": "infinite",
				"drawingPhase()": "1261",
				"enterDrawingPhase()": "22909",
				"generateNumberIndexKey(uint8[4])": "infinite",
				"getMatchingRewardAmount(uint256,uint256)": "infinite",
				"getRewardView(uint256)": "infinite",
				"getTotalRewards(uint256)": "infinite",
				"historyAmount(uint256,uint256)": "infinite",
				"historyNumbers(uint256,uint256)": "infinite",
				"initialize(address,address,uint256,uint8,address,address)": "infinite",
				"issueIndex()": "1175",
				"lastTimestamp()": "1242",
				"lotteryInfo(uint256,uint256)": "infinite",
				"lotteryNFT()": "1345",
				"maxNumber()": "1289",
				"minPrice()": "1195",
				"multiBuy(uint256,uint8[4][])": "infinite",
				"multiClaim(uint256[])": "infinite",
				"owner()": "1311",
				"panther()": "1304",
				"renounceOwnership()": "24346",
				"reset()": "infinite",
				"setAdmin(address)": "22257",
				"setAllocation(uint8,uint8,uint8)": "infinite",
				"setMaxNumber(uint8)": "22245",
				"setMinPrice(uint256)": "21401",
				"totalAddresses()": "1196",
				"totalAmount()": "1175",
				"transferOwnership(address)": "24715",
				"userBuyAmountSum(uint256,uint64)": "infinite",
				"userInfo(address,uint256)": "infinite",
				"winningNumbers(uint256)": "3199"
			},
			"internal": {
				"calculateMatchingRewardAmount()": "infinite",
				"internalBuy(uint256,uint8[4] memory)": "infinite"
			}
		},
		"methodIdentifiers": {
			"adminAddress()": "fc6f9468",
			"adminWithdraw(uint256)": "7c5b4a37",
			"allocation(uint256)": "850bad94",
			"buy(uint256,uint8[4])": "14c20d57",
			"claimReward(uint256)": "ae169a50",
			"drawed()": "e1345416",
			"drawing(uint256)": "a42206c9",
			"drawingPhase()": "438209f5",
			"enterDrawingPhase()": "1ff68866",
			"generateNumberIndexKey(uint8[4])": "85dcdf1b",
			"getMatchingRewardAmount(uint256,uint256)": "d1f7dbcf",
			"getRewardView(uint256)": "d411b0fa",
			"getTotalRewards(uint256)": "552164ee",
			"historyAmount(uint256,uint256)": "c39f49c0",
			"historyNumbers(uint256,uint256)": "59bcbd68",
			"initialize(address,address,uint256,uint8,address,address)": "11e42065",
			"issueIndex()": "6a28f828",
			"lastTimestamp()": "19d8ac61",
			"lotteryInfo(uint256,uint256)": "6575243f",
			"lotteryNFT()": "e8adfbc7",
			"maxNumber()": "3a4f6999",
			"minPrice()": "e45be8eb",
			"multiBuy(uint256,uint8[4][])": "2bdff851",
			"multiClaim(uint256[])": "4ed73d28",
			"owner()": "8da5cb5b",
			"panther()": "04d59dbf",
			"renounceOwnership()": "715018a6",
			"reset()": "d826f88f",
			"setAdmin(address)": "704b6c02",
			"setAllocation(uint8,uint8,uint8)": "5c17623a",
			"setMaxNumber(uint8)": "324a5562",
			"setMinPrice(uint256)": "5ea8cd12",
			"totalAddresses()": "cfad5277",
			"totalAmount()": "1a39d8ef",
			"transferOwnership(address)": "f2fde38b",
			"userBuyAmountSum(uint256,uint64)": "2f506b20",
			"userInfo(address,uint256)": "21ce919d",
			"winningNumbers(uint256)": "4e45f095"
		}
	},
	"abi": [
		{
			"inputs": [],
			"stateMutability": "nonpayable",
			"type": "constructor"
		},
		{
			"anonymous": false,
			"inputs": [
				{
					"indexed": true,
					"internalType": "address",
					"name": "user",
					"type": "address"
				},
				{
					"indexed": false,
					"internalType": "uint256",
					"name": "tokenId",
					"type": "uint256"
				}
			],
			"name": "Buy",
			"type": "event"
		},
		{
			"anonymous": false,
			"inputs": [
				{
					"indexed": true,
					"internalType": "address",
					"name": "user",
					"type": "address"
				},
				{
					"indexed": false,
					"internalType": "uint256",
					"name": "tokenid",
					"type": "uint256"
				},
				{
					"indexed": false,
					"internalType": "uint256",
					"name": "amount",
					"type": "uint256"
				}
			],
			"name": "Claim",
			"type": "event"
		},
		{
			"anonymous": false,
			"inputs": [
				{
					"indexed": true,
					"internalType": "address",
					"name": "user",
					"type": "address"
				},
				{
					"indexed": false,
					"internalType": "uint256",
					"name": "amount",
					"type": "uint256"
				}
			],
			"name": "DevWithdraw",
			"type": "event"
		},
		{
			"anonymous": false,
			"inputs": [
				{
					"indexed": true,
					"internalType": "uint256",
					"name": "issueIndex",
					"type": "uint256"
				},
				{
					"indexed": false,
					"internalType": "uint8[4]",
					"name": "winningNumbers",
					"type": "uint8[4]"
				}
			],
			"name": "Drawing",
			"type": "event"
		},
		{
			"anonymous": false,
			"inputs": [
				{
					"indexed": true,
					"internalType": "address",
					"name": "user",
					"type": "address"
				},
				{
					"indexed": false,
					"internalType": "uint256",
					"name": "amount",
					"type": "uint256"
				}
			],
			"name": "MultiBuy",
			"type": "event"
		},
		{
			"anonymous": false,
			"inputs": [
				{
					"indexed": true,
					"internalType": "address",
					"name": "user",
					"type": "address"
				},
				{
					"indexed": false,
					"internalType": "uint256",
					"name": "amount",
					"type": "uint256"
				}
			],
			"name": "MultiClaim",
			"type": "event"
		},
		{
			"anonymous": false,
			"inputs": [
				{
					"indexed": true,
					"internalType": "address",
					"name": "previousOwner",
					"type": "address"
				},
				{
					"indexed": true,
					"internalType": "address",
					"name": "newOwner",
					"type": "address"
				}
			],
			"name": "OwnershipTransferred",
			"type": "event"
		},
		{
			"anonymous": false,
			"inputs": [
				{
					"indexed": true,
					"internalType": "uint256",
					"name": "issueIndex",
					"type": "uint256"
				}
			],
			"name": "Reset",
			"type": "event"
		},
		{
			"inputs": [],
			"name": "adminAddress",
			"outputs": [
				{
					"internalType": "address",
					"name": "",
					"type": "address"
				}
			],
			"stateMutability": "view",
			"type": "function"
		},
		{
			"inputs": [
				{
					"internalType": "uint256",
					"name": "_amount",
					"type": "uint256"
				}
			],
			"name": "adminWithdraw",
			"outputs": [],
			"stateMutability": "nonpayable",
			"type": "function"
		},
		{
			"inputs": [
				{
					"internalType": "uint256",
					"name": "",
					"type": "uint256"
				}
			],
			"name": "allocation",
			"outputs": [
				{
					"internalType": "uint8",
					"name": "",
					"type": "uint8"
				}
			],
			"stateMutability": "view",
			"type": "function"
		},
		{
			"inputs": [
				{
					"internalType": "uint256",
					"name": "_price",
					"type": "uint256"
				},
				{
					"internalType": "uint8[4]",
					"name": "_numbers",
					"type": "uint8[4]"
				}
			],
			"name": "buy",
			"outputs": [],
			"stateMutability": "nonpayable",
			"type": "function"
		},
		{
			"inputs": [
				{
					"internalType": "uint256",
					"name": "_tokenId",
					"type": "uint256"
				}
			],
			"name": "claimReward",
			"outputs": [],
			"stateMutability": "nonpayable",
			"type": "function"
		},
		{
			"inputs": [],
			"name": "drawed",
			"outputs": [
				{
					"internalType": "bool",
					"name": "",
					"type": "bool"
				}
			],
			"stateMutability": "view",
			"type": "function"
		},
		{
			"inputs": [
				{
					"internalType": "uint256",
					"name": "_externalRandomNumber",
					"type": "uint256"
				}
			],
			"name": "drawing",
			"outputs": [],
			"stateMutability": "nonpayable",
			"type": "function"
		},
		{
			"inputs": [],
			"name": "drawingPhase",
			"outputs": [
				{
					"internalType": "bool",
					"name": "",
					"type": "bool"
				}
			],
			"stateMutability": "view",
			"type": "function"
		},
		{
			"inputs": [],
			"name": "enterDrawingPhase",
			"outputs": [],
			"stateMutability": "nonpayable",
			"type": "function"
		},
		{
			"inputs": [
				{
					"internalType": "uint8[4]",
					"name": "number",
					"type": "uint8[4]"
				}
			],
			"name": "generateNumberIndexKey",
			"outputs": [
				{
					"internalType": "uint64[11]",
					"name": "",
					"type": "uint64[11]"
				}
			],
			"stateMutability": "pure",
			"type": "function"
		},
		{
			"inputs": [
				{
					"internalType": "uint256",
					"name": "_issueIndex",
					"type": "uint256"
				},
				{
					"internalType": "uint256",
					"name": "_matchingNumber",
					"type": "uint256"
				}
			],
			"name": "getMatchingRewardAmount",
			"outputs": [
				{
					"internalType": "uint256",
					"name": "",
					"type": "uint256"
				}
			],
			"stateMutability": "view",
			"type": "function"
		},
		{
			"inputs": [
				{
					"internalType": "uint256",
					"name": "_tokenId",
					"type": "uint256"
				}
			],
			"name": "getRewardView",
			"outputs": [
				{
					"internalType": "uint256",
					"name": "",
					"type": "uint256"
				}
			],
			"stateMutability": "view",
			"type": "function"
		},
		{
			"inputs": [
				{
					"internalType": "uint256",
					"name": "_issueIndex",
					"type": "uint256"
				}
			],
			"name": "getTotalRewards",
			"outputs": [
				{
					"internalType": "uint256",
					"name": "",
					"type": "uint256"
				}
			],
			"stateMutability": "view",
			"type": "function"
		},
		{
			"inputs": [
				{
					"internalType": "uint256",
					"name": "",
					"type": "uint256"
				},
				{
					"internalType": "uint256",
					"name": "",
					"type": "uint256"
				}
			],
			"name": "historyAmount",
			"outputs": [
				{
					"internalType": "uint256",
					"name": "",
					"type": "uint256"
				}
			],
			"stateMutability": "view",
			"type": "function"
		},
		{
			"inputs": [
				{
					"internalType": "uint256",
					"name": "",
					"type": "uint256"
				},
				{
					"internalType": "uint256",
					"name": "",
					"type": "uint256"
				}
			],
			"name": "historyNumbers",
			"outputs": [
				{
					"internalType": "uint8",
					"name": "",
					"type": "uint8"
				}
			],
			"stateMutability": "view",
			"type": "function"
		},
		{
			"inputs": [
				{
					"internalType": "contract IERC20",
					"name": "_panther",
					"type": "address"
				},
				{
					"internalType": "contract LotteryNFT",
					"name": "_lottery",
					"type": "address"
				},
				{
					"internalType": "uint256",
					"name": "_minPrice",
					"type": "uint256"
				},
				{
					"internalType": "uint8",
					"name": "_maxNumber",
					"type": "uint8"
				},
				{
					"internalType": "address",
					"name": "_owner",
					"type": "address"
				},
				{
					"internalType": "address",
					"name": "_adminAddress",
					"type": "address"
				}
			],
			"name": "initialize",
			"outputs": [],
			"stateMutability": "nonpayable",
			"type": "function"
		},
		{
			"inputs": [],
			"name": "issueIndex",
			"outputs": [
				{
					"internalType": "uint256",
					"name": "",
					"type": "uint256"
				}
			],
			"stateMutability": "view",
			"type": "function"
		},
		{
			"inputs": [],
			"name": "lastTimestamp",
			"outputs": [
				{
					"internalType": "uint256",
					"name": "",
					"type": "uint256"
				}
			],
			"stateMutability": "view",
			"type": "function"
		},
		{
			"inputs": [
				{
					"internalType": "uint256",
					"name": "",
					"type": "uint256"
				},
				{
					"internalType": "uint256",
					"name": "",
					"type": "uint256"
				}
			],
			"name": "lotteryInfo",
			"outputs": [
				{
					"internalType": "uint256",
					"name": "",
					"type": "uint256"
				}
			],
			"stateMutability": "view",
			"type": "function"
		},
		{
			"inputs": [],
			"name": "lotteryNFT",
			"outputs": [
				{
					"internalType": "contract LotteryNFT",
					"name": "",
					"type": "address"
				}
			],
			"stateMutability": "view",
			"type": "function"
		},
		{
			"inputs": [],
			"name": "maxNumber",
			"outputs": [
				{
					"internalType": "uint8",
					"name": "",
					"type": "uint8"
				}
			],
			"stateMutability": "view",
			"type": "function"
		},
		{
			"inputs": [],
			"name": "minPrice",
			"outputs": [
				{
					"internalType": "uint256",
					"name": "",
					"type": "uint256"
				}
			],
			"stateMutability": "view",
			"type": "function"
		},
		{
			"inputs": [
				{
					"internalType": "uint256",
					"name": "_price",
					"type": "uint256"
				},
				{
					"internalType": "uint8[4][]",
					"name": "_numbers",
					"type": "uint8[4][]"
				}
			],
			"name": "multiBuy",
			"outputs": [],
			"stateMutability": "nonpayable",
			"type": "function"
		},
		{
			"inputs": [
				{
					"internalType": "uint256[]",
					"name": "_tickets",
					"type": "uint256[]"
				}
			],
			"name": "multiClaim",
			"outputs": [],
			"stateMutability": "nonpayable",
			"type": "function"
		},
		{
			"inputs": [],
			"name": "owner",
			"outputs": [
				{
					"internalType": "address",
					"name": "",
					"type": "address"
				}
			],
			"stateMutability": "view",
			"type": "function"
		},
		{
			"inputs": [],
			"name": "panther",
			"outputs": [
				{
					"internalType": "contract IERC20",
					"name": "",
					"type": "address"
				}
			],
			"stateMutability": "view",
			"type": "function"
		},
		{
			"inputs": [],
			"name": "renounceOwnership",
			"outputs": [],
			"stateMutability": "nonpayable",
			"type": "function"
		},
		{
			"inputs": [],
			"name": "reset",
			"outputs": [],
			"stateMutability": "nonpayable",
			"type": "function"
		},
		{
			"inputs": [
				{
					"internalType": "address",
					"name": "_adminAddress",
					"type": "address"
				}
			],
			"name": "setAdmin",
			"outputs": [],
			"stateMutability": "nonpayable",
			"type": "function"
		},
		{
			"inputs": [
				{
					"internalType": "uint8",
					"name": "_allcation1",
					"type": "uint8"
				},
				{
					"internalType": "uint8",
					"name": "_allcation2",
					"type": "uint8"
				},
				{
					"internalType": "uint8",
					"name": "_allcation3",
					"type": "uint8"
				}
			],
			"name": "setAllocation",
			"outputs": [],
			"stateMutability": "nonpayable",
			"type": "function"
		},
		{
			"inputs": [
				{
					"internalType": "uint8",
					"name": "_maxNumber",
					"type": "uint8"
				}
			],
			"name": "setMaxNumber",
			"outputs": [],
			"stateMutability": "nonpayable",
			"type": "function"
		},
		{
			"inputs": [
				{
					"internalType": "uint256",
					"name": "_price",
					"type": "uint256"
				}
			],
			"name": "setMinPrice",
			"outputs": [],
			"stateMutability": "nonpayable",
			"type": "function"
		},
		{
			"inputs": [],
			"name": "totalAddresses",
			"outputs": [
				{
					"internalType": "uint256",
					"name": "",
					"type": "uint256"
				}
			],
			"stateMutability": "view",
			"type": "function"
		},
		{
			"inputs": [],
			"name": "totalAmount",
			"outputs": [
				{
					"internalType": "uint256",
					"name": "",
					"type": "uint256"
				}
			],
			"stateMutability": "view",
			"type": "function"
		},
		{
			"inputs": [
				{
					"internalType": "address",
					"name": "newOwner",
					"type": "address"
				}
			],
			"name": "transferOwnership",
			"outputs": [],
			"stateMutability": "nonpayable",
			"type": "function"
		},
		{
			"inputs": [
				{
					"internalType": "uint256",
					"name": "",
					"type": "uint256"
				},
				{
					"internalType": "uint64",
					"name": "",
					"type": "uint64"
				}
			],
			"name": "userBuyAmountSum",
			"outputs": [
				{
					"internalType": "uint256",
					"name": "",
					"type": "uint256"
				}
			],
			"stateMutability": "view",
			"type": "function"
		},
		{
			"inputs": [
				{
					"internalType": "address",
					"name": "",
					"type": "address"
				},
				{
					"internalType": "uint256",
					"name": "",
					"type": "uint256"
				}
			],
			"name": "userInfo",
			"outputs": [
				{
					"internalType": "uint256",
					"name": "",
					"type": "uint256"
				}
			],
			"stateMutability": "view",
			"type": "function"
		},
		{
			"inputs": [
				{
					"internalType": "uint256",
					"name": "",
					"type": "uint256"
				}
			],
			"name": "winningNumbers",
			"outputs": [
				{
					"internalType": "uint8",
					"name": "",
					"type": "uint8"
				}
			],
			"stateMutability": "view",
			"type": "function"
		}
	]
}